{
  "contracts/Teachain.sol": {
    "Teachain": {
      "abi": [
        {
          "inputs": [],
          "stateMutability": "nonpayable",
          "type": "constructor"
        },
        {
          "anonymous": false,
          "inputs": [
            {
              "indexed": false,
              "internalType": "uint256",
              "name": "_batchId",
              "type": "uint256"
            }
          ],
          "name": "BatchCreated",
          "type": "event"
        },
        {
          "inputs": [
            {
              "internalType": "address",
              "name": "",
              "type": "address"
            },
            {
              "internalType": "uint256",
              "name": "",
              "type": "uint256"
            }
          ],
          "name": "batches",
          "outputs": [
            {
              "internalType": "uint256",
              "name": "",
              "type": "uint256"
            }
          ],
          "stateMutability": "view",
          "type": "function"
        },
        {
          "inputs": [],
          "name": "createBatch",
          "outputs": [],
          "stateMutability": "nonpayable",
          "type": "function"
        },
        {
          "inputs": [
            {
              "internalType": "address",
              "name": "_addr",
              "type": "address"
            }
          ],
          "name": "getBatches",
          "outputs": [
            {
              "components": [
                {
                  "internalType": "uint256",
                  "name": "batchId",
                  "type": "uint256"
                },
                {
                  "components": [
                    {
                      "internalType": "string",
                      "name": "role",
                      "type": "string"
                    },
                    {
                      "internalType": "address",
                      "name": "farmerAddress",
                      "type": "address"
                    },
                    {
                      "internalType": "string",
                      "name": "farmerName",
                      "type": "string"
                    },
                    {
                      "internalType": "string",
                      "name": "teaSpecies",
                      "type": "string"
                    },
                    {
                      "internalType": "string",
                      "name": "teaLocation",
                      "type": "string"
                    },
                    {
                      "internalType": "uint256",
                      "name": "harvestingDate",
                      "type": "uint256"
                    },
                    {
                      "internalType": "uint8",
                      "name": "flushNumber",
                      "type": "uint8"
                    },
                    {
                      "internalType": "bool",
                      "name": "isVerified",
                      "type": "bool"
                    }
                  ],
                  "internalType": "struct Teachain.FarmerEntry",
                  "name": "farmerEntry",
                  "type": "tuple"
                },
                {
                  "components": [
                    {
                      "internalType": "string",
                      "name": "role",
                      "type": "string"
                    },
                    {
                      "internalType": "address",
                      "name": "manufacturerAddress",
                      "type": "address"
                    },
                    {
                      "internalType": "string",
                      "name": "manufacturerName",
                      "type": "string"
                    },
                    {
                      "internalType": "string",
                      "name": "teaType",
                      "type": "string"
                    },
                    {
                      "internalType": "uint256",
                      "name": "receivingDate",
                      "type": "uint256"
                    },
                    {
                      "internalType": "uint256",
                      "name": "witheringDuration",
                      "type": "uint256"
                    },
                    {
                      "internalType": "bool",
                      "name": "isVerified",
                      "type": "bool"
                    }
                  ],
                  "internalType": "struct Teachain.ManufacturerEntry",
                  "name": "manufacturerEntry",
                  "type": "tuple"
                },
                {
                  "components": [
                    {
                      "internalType": "string",
                      "name": "role",
                      "type": "string"
                    },
                    {
                      "internalType": "address",
                      "name": "wholesalerAddress",
                      "type": "address"
                    },
                    {
                      "internalType": "string",
                      "name": "wholesalerName",
                      "type": "string"
                    },
                    {
                      "internalType": "uint256",
                      "name": "receivingDate",
                      "type": "uint256"
                    },
                    {
                      "internalType": "bool",
                      "name": "isVerified",
                      "type": "bool"
                    }
                  ],
                  "internalType": "struct Teachain.WholesalerEntry",
                  "name": "wholesalerEntry",
                  "type": "tuple"
                },
                {
                  "components": [
                    {
                      "internalType": "string",
                      "name": "role",
                      "type": "string"
                    },
                    {
                      "internalType": "address",
                      "name": "distributerAddress",
                      "type": "address"
                    },
                    {
                      "internalType": "string",
                      "name": "distributerName",
                      "type": "string"
                    },
                    {
                      "internalType": "uint256",
                      "name": "receivingDate",
                      "type": "uint256"
                    },
                    {
                      "internalType": "uint32",
                      "name": "storageTemperature",
                      "type": "uint32"
                    },
                    {
                      "internalType": "bool",
                      "name": "isVerified",
                      "type": "bool"
                    }
                  ],
                  "internalType": "struct Teachain.DistributerEntry",
                  "name": "distributerEntry",
                  "type": "tuple"
                },
                {
                  "components": [
                    {
                      "internalType": "string",
                      "name": "role",
                      "type": "string"
                    },
                    {
                      "internalType": "address",
                      "name": "retailerAddress",
                      "type": "address"
                    },
                    {
                      "internalType": "string",
                      "name": "retailerName",
                      "type": "string"
                    },
                    {
                      "internalType": "uint256",
                      "name": "receivingDate",
                      "type": "uint256"
                    },
                    {
                      "internalType": "bool",
                      "name": "isVerified",
                      "type": "bool"
                    }
                  ],
                  "internalType": "struct Teachain.RetailerEntry",
                  "name": "retailerEntry",
                  "type": "tuple"
                }
              ],
              "internalType": "struct Teachain.TeaBatch[]",
              "name": "",
              "type": "tuple[]"
            }
          ],
          "stateMutability": "view",
          "type": "function"
        },
        {
          "inputs": [
            {
              "internalType": "uint256",
              "name": "_id",
              "type": "uint256"
            }
          ],
          "name": "getTeaBatch",
          "outputs": [
            {
              "components": [
                {
                  "internalType": "uint256",
                  "name": "batchId",
                  "type": "uint256"
                },
                {
                  "components": [
                    {
                      "internalType": "string",
                      "name": "role",
                      "type": "string"
                    },
                    {
                      "internalType": "address",
                      "name": "farmerAddress",
                      "type": "address"
                    },
                    {
                      "internalType": "string",
                      "name": "farmerName",
                      "type": "string"
                    },
                    {
                      "internalType": "string",
                      "name": "teaSpecies",
                      "type": "string"
                    },
                    {
                      "internalType": "string",
                      "name": "teaLocation",
                      "type": "string"
                    },
                    {
                      "internalType": "uint256",
                      "name": "harvestingDate",
                      "type": "uint256"
                    },
                    {
                      "internalType": "uint8",
                      "name": "flushNumber",
                      "type": "uint8"
                    },
                    {
                      "internalType": "bool",
                      "name": "isVerified",
                      "type": "bool"
                    }
                  ],
                  "internalType": "struct Teachain.FarmerEntry",
                  "name": "farmerEntry",
                  "type": "tuple"
                },
                {
                  "components": [
                    {
                      "internalType": "string",
                      "name": "role",
                      "type": "string"
                    },
                    {
                      "internalType": "address",
                      "name": "manufacturerAddress",
                      "type": "address"
                    },
                    {
                      "internalType": "string",
                      "name": "manufacturerName",
                      "type": "string"
                    },
                    {
                      "internalType": "string",
                      "name": "teaType",
                      "type": "string"
                    },
                    {
                      "internalType": "uint256",
                      "name": "receivingDate",
                      "type": "uint256"
                    },
                    {
                      "internalType": "uint256",
                      "name": "witheringDuration",
                      "type": "uint256"
                    },
                    {
                      "internalType": "bool",
                      "name": "isVerified",
                      "type": "bool"
                    }
                  ],
                  "internalType": "struct Teachain.ManufacturerEntry",
                  "name": "manufacturerEntry",
                  "type": "tuple"
                },
                {
                  "components": [
                    {
                      "internalType": "string",
                      "name": "role",
                      "type": "string"
                    },
                    {
                      "internalType": "address",
                      "name": "wholesalerAddress",
                      "type": "address"
                    },
                    {
                      "internalType": "string",
                      "name": "wholesalerName",
                      "type": "string"
                    },
                    {
                      "internalType": "uint256",
                      "name": "receivingDate",
                      "type": "uint256"
                    },
                    {
                      "internalType": "bool",
                      "name": "isVerified",
                      "type": "bool"
                    }
                  ],
                  "internalType": "struct Teachain.WholesalerEntry",
                  "name": "wholesalerEntry",
                  "type": "tuple"
                },
                {
                  "components": [
                    {
                      "internalType": "string",
                      "name": "role",
                      "type": "string"
                    },
                    {
                      "internalType": "address",
                      "name": "distributerAddress",
                      "type": "address"
                    },
                    {
                      "internalType": "string",
                      "name": "distributerName",
                      "type": "string"
                    },
                    {
                      "internalType": "uint256",
                      "name": "receivingDate",
                      "type": "uint256"
                    },
                    {
                      "internalType": "uint32",
                      "name": "storageTemperature",
                      "type": "uint32"
                    },
                    {
                      "internalType": "bool",
                      "name": "isVerified",
                      "type": "bool"
                    }
                  ],
                  "internalType": "struct Teachain.DistributerEntry",
                  "name": "distributerEntry",
                  "type": "tuple"
                },
                {
                  "components": [
                    {
                      "internalType": "string",
                      "name": "role",
                      "type": "string"
                    },
                    {
                      "internalType": "address",
                      "name": "retailerAddress",
                      "type": "address"
                    },
                    {
                      "internalType": "string",
                      "name": "retailerName",
                      "type": "string"
                    },
                    {
                      "internalType": "uint256",
                      "name": "receivingDate",
                      "type": "uint256"
                    },
                    {
                      "internalType": "bool",
                      "name": "isVerified",
                      "type": "bool"
                    }
                  ],
                  "internalType": "struct Teachain.RetailerEntry",
                  "name": "retailerEntry",
                  "type": "tuple"
                }
              ],
              "internalType": "struct Teachain.TeaBatch",
              "name": "",
              "type": "tuple"
            }
          ],
          "stateMutability": "view",
          "type": "function"
        },
        {
          "inputs": [
            {
              "internalType": "uint256",
              "name": "",
              "type": "uint256"
            }
          ],
          "name": "teaBatches",
          "outputs": [
            {
              "internalType": "uint256",
              "name": "batchId",
              "type": "uint256"
            },
            {
              "components": [
                {
                  "internalType": "string",
                  "name": "role",
                  "type": "string"
                },
                {
                  "internalType": "address",
                  "name": "farmerAddress",
                  "type": "address"
                },
                {
                  "internalType": "string",
                  "name": "farmerName",
                  "type": "string"
                },
                {
                  "internalType": "string",
                  "name": "teaSpecies",
                  "type": "string"
                },
                {
                  "internalType": "string",
                  "name": "teaLocation",
                  "type": "string"
                },
                {
                  "internalType": "uint256",
                  "name": "harvestingDate",
                  "type": "uint256"
                },
                {
                  "internalType": "uint8",
                  "name": "flushNumber",
                  "type": "uint8"
                },
                {
                  "internalType": "bool",
                  "name": "isVerified",
                  "type": "bool"
                }
              ],
              "internalType": "struct Teachain.FarmerEntry",
              "name": "farmerEntry",
              "type": "tuple"
            },
            {
              "components": [
                {
                  "internalType": "string",
                  "name": "role",
                  "type": "string"
                },
                {
                  "internalType": "address",
                  "name": "manufacturerAddress",
                  "type": "address"
                },
                {
                  "internalType": "string",
                  "name": "manufacturerName",
                  "type": "string"
                },
                {
                  "internalType": "string",
                  "name": "teaType",
                  "type": "string"
                },
                {
                  "internalType": "uint256",
                  "name": "receivingDate",
                  "type": "uint256"
                },
                {
                  "internalType": "uint256",
                  "name": "witheringDuration",
                  "type": "uint256"
                },
                {
                  "internalType": "bool",
                  "name": "isVerified",
                  "type": "bool"
                }
              ],
              "internalType": "struct Teachain.ManufacturerEntry",
              "name": "manufacturerEntry",
              "type": "tuple"
            },
            {
              "components": [
                {
                  "internalType": "string",
                  "name": "role",
                  "type": "string"
                },
                {
                  "internalType": "address",
                  "name": "wholesalerAddress",
                  "type": "address"
                },
                {
                  "internalType": "string",
                  "name": "wholesalerName",
                  "type": "string"
                },
                {
                  "internalType": "uint256",
                  "name": "receivingDate",
                  "type": "uint256"
                },
                {
                  "internalType": "bool",
                  "name": "isVerified",
                  "type": "bool"
                }
              ],
              "internalType": "struct Teachain.WholesalerEntry",
              "name": "wholesalerEntry",
              "type": "tuple"
            },
            {
              "components": [
                {
                  "internalType": "string",
                  "name": "role",
                  "type": "string"
                },
                {
                  "internalType": "address",
                  "name": "distributerAddress",
                  "type": "address"
                },
                {
                  "internalType": "string",
                  "name": "distributerName",
                  "type": "string"
                },
                {
                  "internalType": "uint256",
                  "name": "receivingDate",
                  "type": "uint256"
                },
                {
                  "internalType": "uint32",
                  "name": "storageTemperature",
                  "type": "uint32"
                },
                {
                  "internalType": "bool",
                  "name": "isVerified",
                  "type": "bool"
                }
              ],
              "internalType": "struct Teachain.DistributerEntry",
              "name": "distributerEntry",
              "type": "tuple"
            },
            {
              "components": [
                {
                  "internalType": "string",
                  "name": "role",
                  "type": "string"
                },
                {
                  "internalType": "address",
                  "name": "retailerAddress",
                  "type": "address"
                },
                {
                  "internalType": "string",
                  "name": "retailerName",
                  "type": "string"
                },
                {
                  "internalType": "uint256",
                  "name": "receivingDate",
                  "type": "uint256"
                },
                {
                  "internalType": "bool",
                  "name": "isVerified",
                  "type": "bool"
                }
              ],
              "internalType": "struct Teachain.RetailerEntry",
              "name": "retailerEntry",
              "type": "tuple"
            }
          ],
          "stateMutability": "view",
          "type": "function"
        },
        {
          "inputs": [
            {
              "internalType": "uint256",
              "name": "_batchId",
              "type": "uint256"
            },
            {
              "internalType": "address",
              "name": "_addr",
              "type": "address"
            },
            {
              "internalType": "string",
              "name": "_distributerName",
              "type": "string"
            },
            {
              "internalType": "uint256",
              "name": "_receivingDate",
              "type": "uint256"
            },
            {
              "internalType": "uint32",
              "name": "_storageTemperature",
              "type": "uint32"
            }
          ],
          "name": "updateDistributerEntry",
          "outputs": [],
          "stateMutability": "nonpayable",
          "type": "function"
        },
        {
          "inputs": [
            {
              "internalType": "uint256",
              "name": "_batchId",
              "type": "uint256"
            },
            {
              "internalType": "address",
              "name": "_addr",
              "type": "address"
            },
            {
              "internalType": "string",
              "name": "_farmerName",
              "type": "string"
            },
            {
              "internalType": "string",
              "name": "_teaSpecies",
              "type": "string"
            },
            {
              "internalType": "string",
              "name": "_teaLocation",
              "type": "string"
            },
            {
              "internalType": "uint256",
              "name": "_harvestingDate",
              "type": "uint256"
            },
            {
              "internalType": "uint8",
              "name": "_flushNumber",
              "type": "uint8"
            }
          ],
          "name": "updateFarmerEntry",
          "outputs": [],
          "stateMutability": "nonpayable",
          "type": "function"
        },
        {
          "inputs": [
            {
              "internalType": "uint256",
              "name": "_batchId",
              "type": "uint256"
            },
            {
              "internalType": "address",
              "name": "_addr",
              "type": "address"
            },
            {
              "internalType": "string",
              "name": "_manufacturerName",
              "type": "string"
            },
            {
              "internalType": "string",
              "name": "_teaType",
              "type": "string"
            },
            {
              "internalType": "uint256",
              "name": "_receivingDate",
              "type": "uint256"
            },
            {
              "internalType": "uint256",
              "name": "_witheringDuration",
              "type": "uint256"
            }
          ],
          "name": "updateManufcturerEntry",
          "outputs": [],
          "stateMutability": "nonpayable",
          "type": "function"
        },
        {
          "inputs": [
            {
              "internalType": "uint256",
              "name": "_batchId",
              "type": "uint256"
            },
            {
              "internalType": "address",
              "name": "_addr",
              "type": "address"
            },
            {
              "internalType": "string",
              "name": "_retailerName",
              "type": "string"
            },
            {
              "internalType": "uint256",
              "name": "_receivingDate",
              "type": "uint256"
            }
          ],
          "name": "updateRetailerEntry",
          "outputs": [],
          "stateMutability": "nonpayable",
          "type": "function"
        },
        {
          "inputs": [
            {
              "internalType": "uint256",
              "name": "_batchId",
              "type": "uint256"
            },
            {
              "internalType": "address",
              "name": "_addr",
              "type": "address"
            },
            {
              "internalType": "string",
              "name": "_wholesalerName",
              "type": "string"
            },
            {
              "internalType": "uint256",
              "name": "_receivingDate",
              "type": "uint256"
            }
          ],
          "name": "updateWholesalerEntry",
          "outputs": [],
          "stateMutability": "nonpayable",
          "type": "function"
        }
      ],
      "evm": {
        "bytecode": {
          "linkReferences": {},
          "object": "60806040523480156200001157600080fd5b50620000226200002860201b60201c565b62000c25565b60006200003a620004ff60201b60201c565b90506200004662000611565b818160000181815250508060016000848152602001908152602001600020600082015181600001556020820151816001016000820151816000019080519060200190620000959291906200066f565b5060208201518160010160006101000a81548173ffffffffffffffffffffffffffffffffffffffff021916908373ffffffffffffffffffffffffffffffffffffffff1602179055506040820151816002019080519060200190620000fb9291906200066f565b5060608201518160030190805190602001906200011a9291906200066f565b506080820151816004019080519060200190620001399291906200066f565b5060a0820151816005015560c08201518160060160006101000a81548160ff021916908360ff16021790555060e08201518160060160016101000a81548160ff02191690831515021790555050506040820151816008016000820151816000019080519060200190620001ae9291906200066f565b5060208201518160010160006101000a81548173ffffffffffffffffffffffffffffffffffffffff021916908373ffffffffffffffffffffffffffffffffffffffff1602179055506040820151816002019080519060200190620002149291906200066f565b506060820151816003019080519060200190620002339291906200066f565b506080820151816004015560a0820151816005015560c08201518160060160006101000a81548160ff0219169083151502179055505050606082015181600f016000820151816000019080519060200190620002919291906200066f565b5060208201518160010160006101000a81548173ffffffffffffffffffffffffffffffffffffffff021916908373ffffffffffffffffffffffffffffffffffffffff1602179055506040820151816002019080519060200190620002f79291906200066f565b506060820151816003015560808201518160040160006101000a81548160ff021916908315150217905550505060808201518160140160008201518160000190805190602001906200034b9291906200066f565b5060208201518160010160006101000a81548173ffffffffffffffffffffffffffffffffffffffff021916908373ffffffffffffffffffffffffffffffffffffffff1602179055506040820151816002019080519060200190620003b19291906200066f565b506060820151816003015560808201518160040160006101000a81548163ffffffff021916908363ffffffff16021790555060a08201518160040160046101000a81548160ff021916908315150217905550505060a08201518160190160008201518160000190805190602001906200042c9291906200066f565b5060208201518160010160006101000a81548173ffffffffffffffffffffffffffffffffffffffff021916908373ffffffffffffffffffffffffffffffffffffffff1602179055506040820151816002019080519060200190620004929291906200066f565b506060820151816003015560808201518160040160006101000a81548160ff02191690831515021790555050509050507f2354c6982830f23074cbadd3a8326546827ca5be87b6cfe41e906c66e75cd96582604051620004f391906200096f565b60405180910390a15050565b60008043423360405160200162000517919062000918565b6040516020818303038152906040528051906020012060001c6200053c9190620009e9565b45424160405160200162000551919062000935565b6040516020818303038152906040528051906020012060001c620005769190620009e9565b44426200058491906200098c565b6200059091906200098c565b6200059c91906200098c565b620005a891906200098c565b620005b491906200098c565b604051602001620005c6919062000952565b6040516020818303038152906040528051906020012060001c90506103e88082620005f29190620009e9565b620005fe919062000a21565b816200060b919062000a82565b91505090565b6040518060c00160405280600081526020016200062d62000700565b81526020016200063c62000760565b81526020016200064b620007b5565b81526020016200065a620007fc565b81526020016200066962000850565b81525090565b8280546200067d9062000b0f565b90600052602060002090601f016020900481019282620006a15760008555620006ed565b82601f10620006bc57805160ff1916838001178555620006ed565b82800160010185558215620006ed579182015b82811115620006ec578251825591602001919060010190620006cf565b5b509050620006fc919062000897565b5090565b60405180610100016040528060608152602001600073ffffffffffffffffffffffffffffffffffffffff16815260200160608152602001606081526020016060815260200160008152602001600060ff1681526020016000151581525090565b6040518060e0016040528060608152602001600073ffffffffffffffffffffffffffffffffffffffff168152602001606081526020016060815260200160008152602001600081526020016000151581525090565b6040518060a0016040528060608152602001600073ffffffffffffffffffffffffffffffffffffffff16815260200160608152602001600081526020016000151581525090565b6040518060c0016040528060608152602001600073ffffffffffffffffffffffffffffffffffffffff1681526020016060815260200160008152602001600063ffffffff1681526020016000151581525090565b6040518060a0016040528060608152602001600073ffffffffffffffffffffffffffffffffffffffff16815260200160608152602001600081526020016000151581525090565b5b80821115620008b257600081600090555060010162000898565b5090565b620008cb620008c58262000ad1565b62000b59565b82525050565b620008e6620008e08262000abd565b62000b45565b82525050565b620008f78162000b05565b82525050565b620009126200090c8262000b05565b62000b81565b82525050565b6000620009268284620008d1565b60148201915081905092915050565b6000620009438284620008b6565b60148201915081905092915050565b6000620009608284620008fd565b60208201915081905092915050565b6000602082019050620009866000830184620008ec565b92915050565b6000620009998262000b05565b9150620009a68362000b05565b9250827fffffffffffffffffffffffffffffffffffffffffffffffffffffffffffffffff03821115620009de57620009dd62000b8b565b5b828201905092915050565b6000620009f68262000b05565b915062000a038362000b05565b92508262000a165762000a1562000bba565b5b828204905092915050565b600062000a2e8262000b05565b915062000a3b8362000b05565b9250817fffffffffffffffffffffffffffffffffffffffffffffffffffffffffffffffff048311821515161562000a775762000a7662000b8b565b5b828202905092915050565b600062000a8f8262000b05565b915062000a9c8362000b05565b92508282101562000ab25762000ab162000b8b565b5b828203905092915050565b600062000aca8262000ae5565b9050919050565b600062000ade8262000ae5565b9050919050565b600073ffffffffffffffffffffffffffffffffffffffff82169050919050565b6000819050919050565b6000600282049050600182168062000b2857607f821691505b6020821081141562000b3f5762000b3e62000be9565b5b50919050565b600062000b528262000b6d565b9050919050565b600062000b668262000b6d565b9050919050565b600062000b7a8262000c18565b9050919050565b6000819050919050565b7f4e487b7100000000000000000000000000000000000000000000000000000000600052601160045260246000fd5b7f4e487b7100000000000000000000000000000000000000000000000000000000600052601260045260246000fd5b7f4e487b7100000000000000000000000000000000000000000000000000000000600052602260045260246000fd5b60008160601b9050919050565b6147dc8062000c356000396000f3fe608060405234801561001057600080fd5b506004361061009e5760003560e01c80636fe937c5116100665780636fe937c51461015757806395ed230d14610173578063b91297c81461018f578063e34c781314610199578063f8185a13146101ce5761009e565b80630655b240146100a35780630709d217146100d35780633647534b146100ef578063536aee821461010b5780636aafa5e914610127575b600080fd5b6100bd60048036038101906100b89190613668565b6101fe565b6040516100ca919061424a565b60405180910390f35b6100ed60048036038101906100e89190613691565b610cb8565b005b610109600480360381019061010491906138ab565b610ed6565b005b61012560048036038101906101209190613830565b6110b4565b005b610141600480360381019061013c919061362c565b61125e565b60405161014e919061426c565b60405180910390f35b610171600480360381019061016c9190613830565b61128f565b005b61018d60048036038101906101889190613777565b611439565b005b610197611618565b005b6101b360048036038101906101ae9190613668565b611ac9565b6040516101c596959493929190614287565b60405180910390f35b6101e860048036038101906101e39190613603565b612556565b6040516101f59190614228565b60405180910390f35b6102066132b9565b600160008381526020019081526020016000206040518060c001604052908160008201548152602001600182016040518061010001604052908160008201805461024f90614584565b80601f016020809104026020016040519081016040528092919081815260200182805461027b90614584565b80156102c85780601f1061029d576101008083540402835291602001916102c8565b820191906000526020600020905b8154815290600101906020018083116102ab57829003601f168201915b505050505081526020016001820160009054906101000a900473ffffffffffffffffffffffffffffffffffffffff1673ffffffffffffffffffffffffffffffffffffffff1673ffffffffffffffffffffffffffffffffffffffff16815260200160028201805461033790614584565b80601f016020809104026020016040519081016040528092919081815260200182805461036390614584565b80156103b05780601f10610385576101008083540402835291602001916103b0565b820191906000526020600020905b81548152906001019060200180831161039357829003601f168201915b505050505081526020016003820180546103c990614584565b80601f01602080910402602001604051908101604052809291908181526020018280546103f590614584565b80156104425780601f1061041757610100808354040283529160200191610442565b820191906000526020600020905b81548152906001019060200180831161042557829003601f168201915b5050505050815260200160048201805461045b90614584565b80601f016020809104026020016040519081016040528092919081815260200182805461048790614584565b80156104d45780601f106104a9576101008083540402835291602001916104d4565b820191906000526020600020905b8154815290600101906020018083116104b757829003601f168201915b50505050508152602001600582015481526020016006820160009054906101000a900460ff1660ff1660ff1681526020016006820160019054906101000a900460ff1615151515815250508152602001600882016040518060e001604052908160008201805461054390614584565b80601f016020809104026020016040519081016040528092919081815260200182805461056f90614584565b80156105bc5780601f10610591576101008083540402835291602001916105bc565b820191906000526020600020905b81548152906001019060200180831161059f57829003601f168201915b505050505081526020016001820160009054906101000a900473ffffffffffffffffffffffffffffffffffffffff1673ffffffffffffffffffffffffffffffffffffffff1673ffffffffffffffffffffffffffffffffffffffff16815260200160028201805461062b90614584565b80601f016020809104026020016040519081016040528092919081815260200182805461065790614584565b80156106a45780601f10610679576101008083540402835291602001916106a4565b820191906000526020600020905b81548152906001019060200180831161068757829003601f168201915b505050505081526020016003820180546106bd90614584565b80601f01602080910402602001604051908101604052809291908181526020018280546106e990614584565b80156107365780601f1061070b57610100808354040283529160200191610736565b820191906000526020600020905b81548152906001019060200180831161071957829003601f168201915b5050505050815260200160048201548152602001600582015481526020016006820160009054906101000a900460ff1615151515815250508152602001600f82016040518060a001604052908160008201805461079290614584565b80601f01602080910402602001604051908101604052809291908181526020018280546107be90614584565b801561080b5780601f106107e05761010080835404028352916020019161080b565b820191906000526020600020905b8154815290600101906020018083116107ee57829003601f168201915b505050505081526020016001820160009054906101000a900473ffffffffffffffffffffffffffffffffffffffff1673ffffffffffffffffffffffffffffffffffffffff1673ffffffffffffffffffffffffffffffffffffffff16815260200160028201805461087a90614584565b80601f01602080910402602001604051908101604052809291908181526020018280546108a690614584565b80156108f35780601f106108c8576101008083540402835291602001916108f3565b820191906000526020600020905b8154815290600101906020018083116108d657829003601f168201915b50505050508152602001600382015481526020016004820160009054906101000a900460ff1615151515815250508152602001601482016040518060c001604052908160008201805461094590614584565b80601f016020809104026020016040519081016040528092919081815260200182805461097190614584565b80156109be5780601f10610993576101008083540402835291602001916109be565b820191906000526020600020905b8154815290600101906020018083116109a157829003601f168201915b505050505081526020016001820160009054906101000a900473ffffffffffffffffffffffffffffffffffffffff1673ffffffffffffffffffffffffffffffffffffffff1673ffffffffffffffffffffffffffffffffffffffff168152602001600282018054610a2d90614584565b80601f0160208091040260200160405190810160405280929190818152602001828054610a5990614584565b8015610aa65780601f10610a7b57610100808354040283529160200191610aa6565b820191906000526020600020905b815481529060010190602001808311610a8957829003601f168201915b50505050508152602001600382015481526020016004820160009054906101000a900463ffffffff1663ffffffff1663ffffffff1681526020016004820160049054906101000a900460ff1615151515815250508152602001601982016040518060a0016040529081600082018054610b1e90614584565b80601f0160208091040260200160405190810160405280929190818152602001828054610b4a90614584565b8015610b975780601f10610b6c57610100808354040283529160200191610b97565b820191906000526020600020905b815481529060010190602001808311610b7a57829003601f168201915b505050505081526020016001820160009054906101000a900473ffffffffffffffffffffffffffffffffffffffff1673ffffffffffffffffffffffffffffffffffffffff1673ffffffffffffffffffffffffffffffffffffffff168152602001600282018054610c0690614584565b80601f0160208091040260200160405190810160405280929190818152602001828054610c3290614584565b8015610c7f5780601f10610c5457610100808354040283529160200191610c7f565b820191906000526020600020905b815481529060010190602001808311610c6257829003601f168201915b50505050508152602001600382015481526020016004820160009054906101000a900460ff161515151581525050815250509050919050565b60006040518061010001604052806040518060400160405280600681526020017f4661726d6572000000000000000000000000000000000000000000000000000081525081526020018873ffffffffffffffffffffffffffffffffffffffff1681526020018781526020018681526020018581526020018481526020018360ff16815260200160011515815250905080600160008a81526020019081526020016000206001016000820151816000019080519060200190610d7a92919061330d565b5060208201518160010160006101000a81548173ffffffffffffffffffffffffffffffffffffffff021916908373ffffffffffffffffffffffffffffffffffffffff1602179055506040820151816002019080519060200190610dde92919061330d565b506060820151816003019080519060200190610dfb92919061330d565b506080820151816004019080519060200190610e1892919061330d565b5060a0820151816005015560c08201518160060160006101000a81548160ff021916908360ff16021790555060e08201518160060160016101000a81548160ff0219169083151502179055509050506000808873ffffffffffffffffffffffffffffffffffffffff1673ffffffffffffffffffffffffffffffffffffffff1681526020019081526020016000208890806001815401808255809150506001900390600052602060002001600090919091909150555050505050505050565b60006040518060c001604052806040518060400160405280600b81526020017f446973747269627574657200000000000000000000000000000000000000000081525081526020018673ffffffffffffffffffffffffffffffffffffffff1681526020018581526020018481526020018363ffffffff16815260200160011515815250905080600160008881526020019081526020016000206014016000820151816000019080519060200190610f8e92919061330d565b5060208201518160010160006101000a81548173ffffffffffffffffffffffffffffffffffffffff021916908373ffffffffffffffffffffffffffffffffffffffff1602179055506040820151816002019080519060200190610ff292919061330d565b506060820151816003015560808201518160040160006101000a81548163ffffffff021916908363ffffffff16021790555060a08201518160040160046101000a81548160ff0219169083151502179055509050506000808673ffffffffffffffffffffffffffffffffffffffff1673ffffffffffffffffffffffffffffffffffffffff168152602001908152602001600020869080600181540180825580915050600190039060005260206000200160009091909190915055505050505050565b60006040518060a001604052806040518060400160405280600881526020017f52657461696c657200000000000000000000000000000000000000000000000081525081526020018573ffffffffffffffffffffffffffffffffffffffff1681526020018481526020018381526020016001151581525090508060016000878152602001908152602001600020601901600082015181600001908051906020019061116092919061330d565b5060208201518160010160006101000a81548173ffffffffffffffffffffffffffffffffffffffff021916908373ffffffffffffffffffffffffffffffffffffffff16021790555060408201518160020190805190602001906111c492919061330d565b506060820151816003015560808201518160040160006101000a81548160ff0219169083151502179055509050506000808573ffffffffffffffffffffffffffffffffffffffff1673ffffffffffffffffffffffffffffffffffffffff1681526020019081526020016000208590806001815401808255809150506001900390600052602060002001600090919091909150555050505050565b6000602052816000526040600020818154811061127a57600080fd5b90600052602060002001600091509150505481565b60006040518060a001604052806040518060400160405280600a81526020017f57686f6c6573616c65720000000000000000000000000000000000000000000081525081526020018573ffffffffffffffffffffffffffffffffffffffff1681526020018481526020018381526020016001151581525090508060016000878152602001908152602001600020600f01600082015181600001908051906020019061133b92919061330d565b5060208201518160010160006101000a81548173ffffffffffffffffffffffffffffffffffffffff021916908373ffffffffffffffffffffffffffffffffffffffff160217905550604082015181600201908051906020019061139f92919061330d565b506060820151816003015560808201518160040160006101000a81548160ff0219169083151502179055509050506000808573ffffffffffffffffffffffffffffffffffffffff1673ffffffffffffffffffffffffffffffffffffffff1681526020019081526020016000208590806001815401808255809150506001900390600052602060002001600090919091909150555050505050565b60006040518060e001604052806040518060400160405280600c81526020017f4d616e756661637475726572000000000000000000000000000000000000000081525081526020018773ffffffffffffffffffffffffffffffffffffffff168152602001868152602001858152602001848152602001838152602001600115158152509050806001600089815260200190815260200160002060080160008201518160000190805190602001906114f192919061330d565b5060208201518160010160006101000a81548173ffffffffffffffffffffffffffffffffffffffff021916908373ffffffffffffffffffffffffffffffffffffffff160217905550604082015181600201908051906020019061155592919061330d565b50606082015181600301908051906020019061157292919061330d565b506080820151816004015560a0820151816005015560c08201518160060160006101000a81548160ff0219169083151502179055509050506000808773ffffffffffffffffffffffffffffffffffffffff1673ffffffffffffffffffffffffffffffffffffffff16815260200190815260200160002087908060018154018082558091505060019003906000526020600020016000909190919091505550505050505050565b60006116226131c1565b905061162c6132b9565b81816000018181525050806001600084815260200190815260200160002060008201518160000155602082015181600101600082015181600001908051906020019061167992919061330d565b5060208201518160010160006101000a81548173ffffffffffffffffffffffffffffffffffffffff021916908373ffffffffffffffffffffffffffffffffffffffff16021790555060408201518160020190805190602001906116dd92919061330d565b5060608201518160030190805190602001906116fa92919061330d565b50608082015181600401908051906020019061171792919061330d565b5060a0820151816005015560c08201518160060160006101000a81548160ff021916908360ff16021790555060e08201518160060160016101000a81548160ff0219169083151502179055505050604082015181600801600082015181600001908051906020019061178a92919061330d565b5060208201518160010160006101000a81548173ffffffffffffffffffffffffffffffffffffffff021916908373ffffffffffffffffffffffffffffffffffffffff16021790555060408201518160020190805190602001906117ee92919061330d565b50606082015181600301908051906020019061180b92919061330d565b506080820151816004015560a0820151816005015560c08201518160060160006101000a81548160ff0219169083151502179055505050606082015181600f01600082015181600001908051906020019061186792919061330d565b5060208201518160010160006101000a81548173ffffffffffffffffffffffffffffffffffffffff021916908373ffffffffffffffffffffffffffffffffffffffff16021790555060408201518160020190805190602001906118cb92919061330d565b506060820151816003015560808201518160040160006101000a81548160ff0219169083151502179055505050608082015181601401600082015181600001908051906020019061191d92919061330d565b5060208201518160010160006101000a81548173ffffffffffffffffffffffffffffffffffffffff021916908373ffffffffffffffffffffffffffffffffffffffff160217905550604082015181600201908051906020019061198192919061330d565b506060820151816003015560808201518160040160006101000a81548163ffffffff021916908363ffffffff16021790555060a08201518160040160046101000a81548160ff021916908315150217905550505060a08201518160190160008201518160000190805190602001906119fa92919061330d565b5060208201518160010160006101000a81548173ffffffffffffffffffffffffffffffffffffffff021916908373ffffffffffffffffffffffffffffffffffffffff1602179055506040820151816002019080519060200190611a5e92919061330d565b506060820151816003015560808201518160040160006101000a81548160ff02191690831515021790555050509050507f2354c6982830f23074cbadd3a8326546827ca5be87b6cfe41e906c66e75cd96582604051611abd919061426c565b60405180910390a15050565b60016020528060005260406000206000915090508060000154908060010160405180610100016040529081600082018054611b0390614584565b80601f0160208091040260200160405190810160405280929190818152602001828054611b2f90614584565b8015611b7c5780601f10611b5157610100808354040283529160200191611b7c565b820191906000526020600020905b815481529060010190602001808311611b5f57829003601f168201915b505050505081526020016001820160009054906101000a900473ffffffffffffffffffffffffffffffffffffffff1673ffffffffffffffffffffffffffffffffffffffff1673ffffffffffffffffffffffffffffffffffffffff168152602001600282018054611beb90614584565b80601f0160208091040260200160405190810160405280929190818152602001828054611c1790614584565b8015611c645780601f10611c3957610100808354040283529160200191611c64565b820191906000526020600020905b815481529060010190602001808311611c4757829003601f168201915b50505050508152602001600382018054611c7d90614584565b80601f0160208091040260200160405190810160405280929190818152602001828054611ca990614584565b8015611cf65780601f10611ccb57610100808354040283529160200191611cf6565b820191906000526020600020905b815481529060010190602001808311611cd957829003601f168201915b50505050508152602001600482018054611d0f90614584565b80601f0160208091040260200160405190810160405280929190818152602001828054611d3b90614584565b8015611d885780601f10611d5d57610100808354040283529160200191611d88565b820191906000526020600020905b815481529060010190602001808311611d6b57829003601f168201915b50505050508152602001600582015481526020016006820160009054906101000a900460ff1660ff1660ff1681526020016006820160019054906101000a900460ff16151515158152505090806008016040518060e0016040529081600082018054611df390614584565b80601f0160208091040260200160405190810160405280929190818152602001828054611e1f90614584565b8015611e6c5780601f10611e4157610100808354040283529160200191611e6c565b820191906000526020600020905b815481529060010190602001808311611e4f57829003601f168201915b505050505081526020016001820160009054906101000a900473ffffffffffffffffffffffffffffffffffffffff1673ffffffffffffffffffffffffffffffffffffffff1673ffffffffffffffffffffffffffffffffffffffff168152602001600282018054611edb90614584565b80601f0160208091040260200160405190810160405280929190818152602001828054611f0790614584565b8015611f545780601f10611f2957610100808354040283529160200191611f54565b820191906000526020600020905b815481529060010190602001808311611f3757829003601f168201915b50505050508152602001600382018054611f6d90614584565b80601f0160208091040260200160405190810160405280929190818152602001828054611f9990614584565b8015611fe65780601f10611fbb57610100808354040283529160200191611fe6565b820191906000526020600020905b815481529060010190602001808311611fc957829003601f168201915b5050505050815260200160048201548152602001600582015481526020016006820160009054906101000a900460ff1615151515815250509080600f016040518060a001604052908160008201805461203e90614584565b80601f016020809104026020016040519081016040528092919081815260200182805461206a90614584565b80156120b75780601f1061208c576101008083540402835291602001916120b7565b820191906000526020600020905b81548152906001019060200180831161209a57829003601f168201915b505050505081526020016001820160009054906101000a900473ffffffffffffffffffffffffffffffffffffffff1673ffffffffffffffffffffffffffffffffffffffff1673ffffffffffffffffffffffffffffffffffffffff16815260200160028201805461212690614584565b80601f016020809104026020016040519081016040528092919081815260200182805461215290614584565b801561219f5780601f106121745761010080835404028352916020019161219f565b820191906000526020600020905b81548152906001019060200180831161218257829003601f168201915b50505050508152602001600382015481526020016004820160009054906101000a900460ff16151515158152505090806014016040518060c00160405290816000820180546121ed90614584565b80601f016020809104026020016040519081016040528092919081815260200182805461221990614584565b80156122665780601f1061223b57610100808354040283529160200191612266565b820191906000526020600020905b81548152906001019060200180831161224957829003601f168201915b505050505081526020016001820160009054906101000a900473ffffffffffffffffffffffffffffffffffffffff1673ffffffffffffffffffffffffffffffffffffffff1673ffffffffffffffffffffffffffffffffffffffff1681526020016002820180546122d590614584565b80601f016020809104026020016040519081016040528092919081815260200182805461230190614584565b801561234e5780601f106123235761010080835404028352916020019161234e565b820191906000526020600020905b81548152906001019060200180831161233157829003601f168201915b50505050508152602001600382015481526020016004820160009054906101000a900463ffffffff1663ffffffff1663ffffffff1681526020016004820160049054906101000a900460ff16151515158152505090806019016040518060a00160405290816000820180546123c290614584565b80601f01602080910402602001604051908101604052809291908181526020018280546123ee90614584565b801561243b5780601f106124105761010080835404028352916020019161243b565b820191906000526020600020905b81548152906001019060200180831161241e57829003601f168201915b505050505081526020016001820160009054906101000a900473ffffffffffffffffffffffffffffffffffffffff1673ffffffffffffffffffffffffffffffffffffffff1673ffffffffffffffffffffffffffffffffffffffff1681526020016002820180546124aa90614584565b80601f01602080910402602001604051908101604052809291908181526020018280546124d690614584565b80156125235780601f106124f857610100808354040283529160200191612523565b820191906000526020600020905b81548152906001019060200180831161250657829003601f168201915b50505050508152602001600382015481526020016004820160009054906101000a900460ff161515151581525050905086565b606060008060008473ffffffffffffffffffffffffffffffffffffffff1673ffffffffffffffffffffffffffffffffffffffff1681526020019081526020016000208054806020026020016040519081016040528092919081815260200182805480156125e257602002820191906000526020600020905b8154815260200190600101908083116125ce575b505050505090506000815167ffffffffffffffff81111561262c577f4e487b7100000000000000000000000000000000000000000000000000000000600052604160045260246000fd5b60405190808252806020026020018201604052801561266557816020015b6126526132b9565b81526020019060019003908161264a5790505b50905060005b82518110156131b657600160008483815181106126b1577f4e487b7100000000000000000000000000000000000000000000000000000000600052603260045260246000fd5b602002602001015181526020019081526020016000206040518060c00160405290816000820154815260200160018201604051806101000160405290816000820180546126fd90614584565b80601f016020809104026020016040519081016040528092919081815260200182805461272990614584565b80156127765780601f1061274b57610100808354040283529160200191612776565b820191906000526020600020905b81548152906001019060200180831161275957829003601f168201915b505050505081526020016001820160009054906101000a900473ffffffffffffffffffffffffffffffffffffffff1673ffffffffffffffffffffffffffffffffffffffff1673ffffffffffffffffffffffffffffffffffffffff1681526020016002820180546127e590614584565b80601f016020809104026020016040519081016040528092919081815260200182805461281190614584565b801561285e5780601f106128335761010080835404028352916020019161285e565b820191906000526020600020905b81548152906001019060200180831161284157829003601f168201915b5050505050815260200160038201805461287790614584565b80601f01602080910402602001604051908101604052809291908181526020018280546128a390614584565b80156128f05780601f106128c5576101008083540402835291602001916128f0565b820191906000526020600020905b8154815290600101906020018083116128d357829003601f168201915b5050505050815260200160048201805461290990614584565b80601f016020809104026020016040519081016040528092919081815260200182805461293590614584565b80156129825780601f1061295757610100808354040283529160200191612982565b820191906000526020600020905b81548152906001019060200180831161296557829003601f168201915b50505050508152602001600582015481526020016006820160009054906101000a900460ff1660ff1660ff1681526020016006820160019054906101000a900460ff1615151515815250508152602001600882016040518060e00160405290816000820180546129f190614584565b80601f0160208091040260200160405190810160405280929190818152602001828054612a1d90614584565b8015612a6a5780601f10612a3f57610100808354040283529160200191612a6a565b820191906000526020600020905b815481529060010190602001808311612a4d57829003601f168201915b505050505081526020016001820160009054906101000a900473ffffffffffffffffffffffffffffffffffffffff1673ffffffffffffffffffffffffffffffffffffffff1673ffffffffffffffffffffffffffffffffffffffff168152602001600282018054612ad990614584565b80601f0160208091040260200160405190810160405280929190818152602001828054612b0590614584565b8015612b525780601f10612b2757610100808354040283529160200191612b52565b820191906000526020600020905b815481529060010190602001808311612b3557829003601f168201915b50505050508152602001600382018054612b6b90614584565b80601f0160208091040260200160405190810160405280929190818152602001828054612b9790614584565b8015612be45780601f10612bb957610100808354040283529160200191612be4565b820191906000526020600020905b815481529060010190602001808311612bc757829003601f168201915b5050505050815260200160048201548152602001600582015481526020016006820160009054906101000a900460ff1615151515815250508152602001600f82016040518060a0016040529081600082018054612c4090614584565b80601f0160208091040260200160405190810160405280929190818152602001828054612c6c90614584565b8015612cb95780601f10612c8e57610100808354040283529160200191612cb9565b820191906000526020600020905b815481529060010190602001808311612c9c57829003601f168201915b505050505081526020016001820160009054906101000a900473ffffffffffffffffffffffffffffffffffffffff1673ffffffffffffffffffffffffffffffffffffffff1673ffffffffffffffffffffffffffffffffffffffff168152602001600282018054612d2890614584565b80601f0160208091040260200160405190810160405280929190818152602001828054612d5490614584565b8015612da15780601f10612d7657610100808354040283529160200191612da1565b820191906000526020600020905b815481529060010190602001808311612d8457829003601f168201915b50505050508152602001600382015481526020016004820160009054906101000a900460ff1615151515815250508152602001601482016040518060c0016040529081600082018054612df390614584565b80601f0160208091040260200160405190810160405280929190818152602001828054612e1f90614584565b8015612e6c5780601f10612e4157610100808354040283529160200191612e6c565b820191906000526020600020905b815481529060010190602001808311612e4f57829003601f168201915b505050505081526020016001820160009054906101000a900473ffffffffffffffffffffffffffffffffffffffff1673ffffffffffffffffffffffffffffffffffffffff1673ffffffffffffffffffffffffffffffffffffffff168152602001600282018054612edb90614584565b80601f0160208091040260200160405190810160405280929190818152602001828054612f0790614584565b8015612f545780601f10612f2957610100808354040283529160200191612f54565b820191906000526020600020905b815481529060010190602001808311612f3757829003601f168201915b50505050508152602001600382015481526020016004820160009054906101000a900463ffffffff1663ffffffff1663ffffffff1681526020016004820160049054906101000a900460ff1615151515815250508152602001601982016040518060a0016040529081600082018054612fcc90614584565b80601f0160208091040260200160405190810160405280929190818152602001828054612ff890614584565b80156130455780601f1061301a57610100808354040283529160200191613045565b820191906000526020600020905b81548152906001019060200180831161302857829003601f168201915b505050505081526020016001820160009054906101000a900473ffffffffffffffffffffffffffffffffffffffff1673ffffffffffffffffffffffffffffffffffffffff1673ffffffffffffffffffffffffffffffffffffffff1681526020016002820180546130b490614584565b80601f01602080910402602001604051908101604052809291908181526020018280546130e090614584565b801561312d5780601f106131025761010080835404028352916020019161312d565b820191906000526020600020905b81548152906001019060200180831161311057829003601f168201915b50505050508152602001600382015481526020016004820160009054906101000a900460ff16151515158152505081525050828281518110613198577f4e487b7100000000000000000000000000000000000000000000000000000000600052603260045260246000fd5b602002602001018190525080806131ae906145e7565b91505061266b565b508092505050919050565b6000804342336040516020016131d791906141d7565b6040516020818303038152906040528051906020012060001c6131fa919061440c565b45424160405160200161320d91906141f2565b6040516020818303038152906040528051906020012060001c613230919061440c565b444261323c91906143b6565b61324691906143b6565b61325091906143b6565b61325a91906143b6565b61326491906143b6565b604051602001613274919061420d565b6040516020818303038152906040528051906020012060001c90506103e8808261329e919061440c565b6132a8919061443d565b816132b39190614497565b91505090565b6040518060c00160405280600081526020016132d3613393565b81526020016132e06133f3565b81526020016132ed613448565b81526020016132fa61348f565b81526020016133076134e3565b81525090565b82805461331990614584565b90600052602060002090601f01602090048101928261333b5760008555613382565b82601f1061335457805160ff1916838001178555613382565b82800160010185558215613382579182015b82811115613381578251825591602001919060010190613366565b5b50905061338f919061352a565b5090565b60405180610100016040528060608152602001600073ffffffffffffffffffffffffffffffffffffffff16815260200160608152602001606081526020016060815260200160008152602001600060ff1681526020016000151581525090565b6040518060e0016040528060608152602001600073ffffffffffffffffffffffffffffffffffffffff168152602001606081526020016060815260200160008152602001600081526020016000151581525090565b6040518060a0016040528060608152602001600073ffffffffffffffffffffffffffffffffffffffff16815260200160608152602001600081526020016000151581525090565b6040518060c0016040528060608152602001600073ffffffffffffffffffffffffffffffffffffffff1681526020016060815260200160008152602001600063ffffffff1681526020016000151581525090565b6040518060a0016040528060608152602001600073ffffffffffffffffffffffffffffffffffffffff16815260200160608152602001600081526020016000151581525090565b5b8082111561354357600081600090555060010161352b565b5090565b600061355a61355584614330565b61430b565b90508281526020810184848401111561357257600080fd5b61357d848285614542565b509392505050565b6000813590506135948161474a565b92915050565b600082601f8301126135ab57600080fd5b81356135bb848260208601613547565b91505092915050565b6000813590506135d381614761565b92915050565b6000813590506135e881614778565b92915050565b6000813590506135fd8161478f565b92915050565b60006020828403121561361557600080fd5b600061362384828501613585565b91505092915050565b6000806040838503121561363f57600080fd5b600061364d85828601613585565b925050602061365e858286016135c4565b9150509250929050565b60006020828403121561367a57600080fd5b6000613688848285016135c4565b91505092915050565b600080600080600080600060e0888a0312156136ac57600080fd5b60006136ba8a828b016135c4565b97505060206136cb8a828b01613585565b965050604088013567ffffffffffffffff8111156136e857600080fd5b6136f48a828b0161359a565b955050606088013567ffffffffffffffff81111561371157600080fd5b61371d8a828b0161359a565b945050608088013567ffffffffffffffff81111561373a57600080fd5b6137468a828b0161359a565b93505060a06137578a828b016135c4565b92505060c06137688a828b016135ee565b91505092959891949750929550565b60008060008060008060c0878903121561379057600080fd5b600061379e89828a016135c4565b96505060206137af89828a01613585565b955050604087013567ffffffffffffffff8111156137cc57600080fd5b6137d889828a0161359a565b945050606087013567ffffffffffffffff8111156137f557600080fd5b61380189828a0161359a565b935050608061381289828a016135c4565b92505060a061382389828a016135c4565b9150509295509295509295565b6000806000806080858703121561384657600080fd5b6000613854878288016135c4565b945050602061386587828801613585565b935050604085013567ffffffffffffffff81111561388257600080fd5b61388e8782880161359a565b925050606061389f878288016135c4565b91505092959194509250565b600080600080600060a086880312156138c357600080fd5b60006138d1888289016135c4565b95505060206138e288828901613585565b945050604086013567ffffffffffffffff8111156138ff57600080fd5b61390b8882890161359a565b935050606061391c888289016135c4565b925050608061392d888289016135d9565b9150509295509295909350565b60006139468383613f40565b905092915050565b61395f61395a826144dd565b614642565b82525050565b61396e816144cb565b82525050565b613985613980826144cb565b614630565b82525050565b600061399682614371565b6139a08185614394565b9350836020820285016139b285614361565b8060005b858110156139ee57848403895281516139cf858261393a565b94506139da83614387565b925060208a019950506001810190506139b6565b50829750879550505050505092915050565b613a09816144ef565b82525050565b6000613a1a8261437c565b613a2481856143a5565b9350613a34818560208601614551565b613a3d8161472c565b840191505092915050565b600060c0830160008301518482036000860152613a658282613a0f565b9150506020830151613a7a6020860182613965565b5060408301518482036040860152613a928282613a0f565b9150506060830151613aa76060860182614184565b506080830151613aba60808601826141b9565b5060a0830151613acd60a0860182613a00565b508091505092915050565b600060c0830160008301518482036000860152613af58282613a0f565b9150506020830151613b0a6020860182613965565b5060408301518482036040860152613b228282613a0f565b9150506060830151613b376060860182614184565b506080830151613b4a60808601826141b9565b5060a0830151613b5d60a0860182613a00565b508091505092915050565b6000610100830160008301518482036000860152613b868282613a0f565b9150506020830151613b9b6020860182613965565b5060408301518482036040860152613bb38282613a0f565b91505060608301518482036060860152613bcd8282613a0f565b91505060808301518482036080860152613be78282613a0f565b91505060a0830151613bfc60a0860182614184565b5060c0830151613c0f60c08601826141c8565b5060e0830151613c2260e0860182613a00565b508091505092915050565b6000610100830160008301518482036000860152613c4b8282613a0f565b9150506020830151613c606020860182613965565b5060408301518482036040860152613c788282613a0f565b91505060608301518482036060860152613c928282613a0f565b91505060808301518482036080860152613cac8282613a0f565b91505060a0830151613cc160a0860182614184565b5060c0830151613cd460c08601826141c8565b5060e0830151613ce760e0860182613a00565b508091505092915050565b600060e0830160008301518482036000860152613d0f8282613a0f565b9150506020830151613d246020860182613965565b5060408301518482036040860152613d3c8282613a0f565b91505060608301518482036060860152613d568282613a0f565b9150506080830151613d6b6080860182614184565b5060a0830151613d7e60a0860182614184565b5060c0830151613d9160c0860182613a00565b508091505092915050565b600060e0830160008301518482036000860152613db98282613a0f565b9150506020830151613dce6020860182613965565b5060408301518482036040860152613de68282613a0f565b91505060608301518482036060860152613e008282613a0f565b9150506080830151613e156080860182614184565b5060a0830151613e2860a0860182614184565b5060c0830151613e3b60c0860182613a00565b508091505092915050565b600060a0830160008301518482036000860152613e638282613a0f565b9150506020830151613e786020860182613965565b5060408301518482036040860152613e908282613a0f565b9150506060830151613ea56060860182614184565b506080830151613eb86080860182613a00565b508091505092915050565b600060a0830160008301518482036000860152613ee08282613a0f565b9150506020830151613ef56020860182613965565b5060408301518482036040860152613f0d8282613a0f565b9150506060830151613f226060860182614184565b506080830151613f356080860182613a00565b508091505092915050565b600060c083016000830151613f586000860182614184565b5060208301518482036020860152613f708282613b68565b91505060408301518482036040860152613f8a8282613cf2565b91505060608301518482036060860152613fa4828261408a565b91505060808301518482036080860152613fbe8282613a48565b91505060a083015184820360a0860152613fd88282613e46565b9150508091505092915050565b600060c083016000830151613ffd6000860182614184565b50602083015184820360208601526140158282613b68565b9150506040830151848203604086015261402f8282613cf2565b91505060608301518482036060860152614049828261408a565b915050608083015184820360808601526140638282613a48565b91505060a083015184820360a086015261407d8282613e46565b9150508091505092915050565b600060a08301600083015184820360008601526140a78282613a0f565b91505060208301516140bc6020860182613965565b50604083015184820360408601526140d48282613a0f565b91505060608301516140e96060860182614184565b5060808301516140fc6080860182613a00565b508091505092915050565b600060a08301600083015184820360008601526141248282613a0f565b91505060208301516141396020860182613965565b50604083015184820360408601526141518282613a0f565b91505060608301516141666060860182614184565b5060808301516141796080860182613a00565b508091505092915050565b61418d8161451b565b82525050565b61419c8161451b565b82525050565b6141b36141ae8261451b565b614666565b82525050565b6141c281614525565b82525050565b6141d181614535565b82525050565b60006141e38284613974565b60148201915081905092915050565b60006141fe828461394e565b60148201915081905092915050565b600061421982846141a2565b60208201915081905092915050565b60006020820190508181036000830152614242818461398b565b905092915050565b600060208201905081810360008301526142648184613fe5565b905092915050565b60006020820190506142816000830184614193565b92915050565b600060c08201905061429c6000830189614193565b81810360208301526142ae8188613c2d565b905081810360408301526142c28187613d9c565b905081810360608301526142d68186614107565b905081810360808301526142ea8185613ad8565b905081810360a08301526142fe8184613ec3565b9050979650505050505050565b6000614315614326565b905061432182826145b6565b919050565b6000604051905090565b600067ffffffffffffffff82111561434b5761434a6146fd565b5b6143548261472c565b9050602081019050919050565b6000819050602082019050919050565b600081519050919050565b600081519050919050565b6000602082019050919050565b600082825260208201905092915050565b600082825260208201905092915050565b60006143c18261451b565b91506143cc8361451b565b9250827fffffffffffffffffffffffffffffffffffffffffffffffffffffffffffffffff0382111561440157614400614670565b5b828201905092915050565b60006144178261451b565b91506144228361451b565b9250826144325761443161469f565b5b828204905092915050565b60006144488261451b565b91506144538361451b565b9250817fffffffffffffffffffffffffffffffffffffffffffffffffffffffffffffffff048311821515161561448c5761448b614670565b5b828202905092915050565b60006144a28261451b565b91506144ad8361451b565b9250828210156144c0576144bf614670565b5b828203905092915050565b60006144d6826144fb565b9050919050565b60006144e8826144fb565b9050919050565b60008115159050919050565b600073ffffffffffffffffffffffffffffffffffffffff82169050919050565b6000819050919050565b600063ffffffff82169050919050565b600060ff82169050919050565b82818337600083830152505050565b60005b8381101561456f578082015181840152602081019050614554565b8381111561457e576000848401525b50505050565b6000600282049050600182168061459c57607f821691505b602082108114156145b0576145af6146ce565b5b50919050565b6145bf8261472c565b810181811067ffffffffffffffff821117156145de576145dd6146fd565b5b80604052505050565b60006145f28261451b565b91507fffffffffffffffffffffffffffffffffffffffffffffffffffffffffffffffff82141561462557614624614670565b5b600182019050919050565b600061463b82614654565b9050919050565b600061464d82614654565b9050919050565b600061465f8261473d565b9050919050565b6000819050919050565b7f4e487b7100000000000000000000000000000000000000000000000000000000600052601160045260246000fd5b7f4e487b7100000000000000000000000000000000000000000000000000000000600052601260045260246000fd5b7f4e487b7100000000000000000000000000000000000000000000000000000000600052602260045260246000fd5b7f4e487b7100000000000000000000000000000000000000000000000000000000600052604160045260246000fd5b6000601f19601f8301169050919050565b60008160601b9050919050565b614753816144cb565b811461475e57600080fd5b50565b61476a8161451b565b811461477557600080fd5b50565b61478181614525565b811461478c57600080fd5b50565b61479881614535565b81146147a357600080fd5b5056fea26469706673582212204fc015fff9b839f7aac0909e522c7f5f88af1ecd227f52d5a70cb9d8638bb6a164736f6c63430008030033",
          "opcodes": "PUSH1 0x80 PUSH1 0x40 MSTORE CALLVALUE DUP1 ISZERO PUSH3 0x11 JUMPI PUSH1 0x0 DUP1 REVERT JUMPDEST POP PUSH3 0x22 PUSH3 0x28 PUSH1 0x20 SHL PUSH1 0x20 SHR JUMP JUMPDEST PUSH3 0xC25 JUMP JUMPDEST PUSH1 0x0 PUSH3 0x3A PUSH3 0x4FF PUSH1 0x20 SHL PUSH1 0x20 SHR JUMP JUMPDEST SWAP1 POP PUSH3 0x46 PUSH3 0x611 JUMP JUMPDEST DUP2 DUP2 PUSH1 0x0 ADD DUP2 DUP2 MSTORE POP POP DUP1 PUSH1 0x1 PUSH1 0x0 DUP5 DUP2 MSTORE PUSH1 0x20 ADD SWAP1 DUP2 MSTORE PUSH1 0x20 ADD PUSH1 0x0 KECCAK256 PUSH1 0x0 DUP3 ADD MLOAD DUP2 PUSH1 0x0 ADD SSTORE PUSH1 0x20 DUP3 ADD MLOAD DUP2 PUSH1 0x1 ADD PUSH1 0x0 DUP3 ADD MLOAD DUP2 PUSH1 0x0 ADD SWAP1 DUP1 MLOAD SWAP1 PUSH1 0x20 ADD SWAP1 PUSH3 0x95 SWAP3 SWAP2 SWAP1 PUSH3 0x66F JUMP JUMPDEST POP PUSH1 0x20 DUP3 ADD MLOAD DUP2 PUSH1 0x1 ADD PUSH1 0x0 PUSH2 0x100 EXP DUP2 SLOAD DUP2 PUSH20 0xFFFFFFFFFFFFFFFFFFFFFFFFFFFFFFFFFFFFFFFF MUL NOT AND SWAP1 DUP4 PUSH20 0xFFFFFFFFFFFFFFFFFFFFFFFFFFFFFFFFFFFFFFFF AND MUL OR SWAP1 SSTORE POP PUSH1 0x40 DUP3 ADD MLOAD DUP2 PUSH1 0x2 ADD SWAP1 DUP1 MLOAD SWAP1 PUSH1 0x20 ADD SWAP1 PUSH3 0xFB SWAP3 SWAP2 SWAP1 PUSH3 0x66F JUMP JUMPDEST POP PUSH1 0x60 DUP3 ADD MLOAD DUP2 PUSH1 0x3 ADD SWAP1 DUP1 MLOAD SWAP1 PUSH1 0x20 ADD SWAP1 PUSH3 0x11A SWAP3 SWAP2 SWAP1 PUSH3 0x66F JUMP JUMPDEST POP PUSH1 0x80 DUP3 ADD MLOAD DUP2 PUSH1 0x4 ADD SWAP1 DUP1 MLOAD SWAP1 PUSH1 0x20 ADD SWAP1 PUSH3 0x139 SWAP3 SWAP2 SWAP1 PUSH3 0x66F JUMP JUMPDEST POP PUSH1 0xA0 DUP3 ADD MLOAD DUP2 PUSH1 0x5 ADD SSTORE PUSH1 0xC0 DUP3 ADD MLOAD DUP2 PUSH1 0x6 ADD PUSH1 0x0 PUSH2 0x100 EXP DUP2 SLOAD DUP2 PUSH1 0xFF MUL NOT AND SWAP1 DUP4 PUSH1 0xFF AND MUL OR SWAP1 SSTORE POP PUSH1 0xE0 DUP3 ADD MLOAD DUP2 PUSH1 0x6 ADD PUSH1 0x1 PUSH2 0x100 EXP DUP2 SLOAD DUP2 PUSH1 0xFF MUL NOT AND SWAP1 DUP4 ISZERO ISZERO MUL OR SWAP1 SSTORE POP POP POP PUSH1 0x40 DUP3 ADD MLOAD DUP2 PUSH1 0x8 ADD PUSH1 0x0 DUP3 ADD MLOAD DUP2 PUSH1 0x0 ADD SWAP1 DUP1 MLOAD SWAP1 PUSH1 0x20 ADD SWAP1 PUSH3 0x1AE SWAP3 SWAP2 SWAP1 PUSH3 0x66F JUMP JUMPDEST POP PUSH1 0x20 DUP3 ADD MLOAD DUP2 PUSH1 0x1 ADD PUSH1 0x0 PUSH2 0x100 EXP DUP2 SLOAD DUP2 PUSH20 0xFFFFFFFFFFFFFFFFFFFFFFFFFFFFFFFFFFFFFFFF MUL NOT AND SWAP1 DUP4 PUSH20 0xFFFFFFFFFFFFFFFFFFFFFFFFFFFFFFFFFFFFFFFF AND MUL OR SWAP1 SSTORE POP PUSH1 0x40 DUP3 ADD MLOAD DUP2 PUSH1 0x2 ADD SWAP1 DUP1 MLOAD SWAP1 PUSH1 0x20 ADD SWAP1 PUSH3 0x214 SWAP3 SWAP2 SWAP1 PUSH3 0x66F JUMP JUMPDEST POP PUSH1 0x60 DUP3 ADD MLOAD DUP2 PUSH1 0x3 ADD SWAP1 DUP1 MLOAD SWAP1 PUSH1 0x20 ADD SWAP1 PUSH3 0x233 SWAP3 SWAP2 SWAP1 PUSH3 0x66F JUMP JUMPDEST POP PUSH1 0x80 DUP3 ADD MLOAD DUP2 PUSH1 0x4 ADD SSTORE PUSH1 0xA0 DUP3 ADD MLOAD DUP2 PUSH1 0x5 ADD SSTORE PUSH1 0xC0 DUP3 ADD MLOAD DUP2 PUSH1 0x6 ADD PUSH1 0x0 PUSH2 0x100 EXP DUP2 SLOAD DUP2 PUSH1 0xFF MUL NOT AND SWAP1 DUP4 ISZERO ISZERO MUL OR SWAP1 SSTORE POP POP POP PUSH1 0x60 DUP3 ADD MLOAD DUP2 PUSH1 0xF ADD PUSH1 0x0 DUP3 ADD MLOAD DUP2 PUSH1 0x0 ADD SWAP1 DUP1 MLOAD SWAP1 PUSH1 0x20 ADD SWAP1 PUSH3 0x291 SWAP3 SWAP2 SWAP1 PUSH3 0x66F JUMP JUMPDEST POP PUSH1 0x20 DUP3 ADD MLOAD DUP2 PUSH1 0x1 ADD PUSH1 0x0 PUSH2 0x100 EXP DUP2 SLOAD DUP2 PUSH20 0xFFFFFFFFFFFFFFFFFFFFFFFFFFFFFFFFFFFFFFFF MUL NOT AND SWAP1 DUP4 PUSH20 0xFFFFFFFFFFFFFFFFFFFFFFFFFFFFFFFFFFFFFFFF AND MUL OR SWAP1 SSTORE POP PUSH1 0x40 DUP3 ADD MLOAD DUP2 PUSH1 0x2 ADD SWAP1 DUP1 MLOAD SWAP1 PUSH1 0x20 ADD SWAP1 PUSH3 0x2F7 SWAP3 SWAP2 SWAP1 PUSH3 0x66F JUMP JUMPDEST POP PUSH1 0x60 DUP3 ADD MLOAD DUP2 PUSH1 0x3 ADD SSTORE PUSH1 0x80 DUP3 ADD MLOAD DUP2 PUSH1 0x4 ADD PUSH1 0x0 PUSH2 0x100 EXP DUP2 SLOAD DUP2 PUSH1 0xFF MUL NOT AND SWAP1 DUP4 ISZERO ISZERO MUL OR SWAP1 SSTORE POP POP POP PUSH1 0x80 DUP3 ADD MLOAD DUP2 PUSH1 0x14 ADD PUSH1 0x0 DUP3 ADD MLOAD DUP2 PUSH1 0x0 ADD SWAP1 DUP1 MLOAD SWAP1 PUSH1 0x20 ADD SWAP1 PUSH3 0x34B SWAP3 SWAP2 SWAP1 PUSH3 0x66F JUMP JUMPDEST POP PUSH1 0x20 DUP3 ADD MLOAD DUP2 PUSH1 0x1 ADD PUSH1 0x0 PUSH2 0x100 EXP DUP2 SLOAD DUP2 PUSH20 0xFFFFFFFFFFFFFFFFFFFFFFFFFFFFFFFFFFFFFFFF MUL NOT AND SWAP1 DUP4 PUSH20 0xFFFFFFFFFFFFFFFFFFFFFFFFFFFFFFFFFFFFFFFF AND MUL OR SWAP1 SSTORE POP PUSH1 0x40 DUP3 ADD MLOAD DUP2 PUSH1 0x2 ADD SWAP1 DUP1 MLOAD SWAP1 PUSH1 0x20 ADD SWAP1 PUSH3 0x3B1 SWAP3 SWAP2 SWAP1 PUSH3 0x66F JUMP JUMPDEST POP PUSH1 0x60 DUP3 ADD MLOAD DUP2 PUSH1 0x3 ADD SSTORE PUSH1 0x80 DUP3 ADD MLOAD DUP2 PUSH1 0x4 ADD PUSH1 0x0 PUSH2 0x100 EXP DUP2 SLOAD DUP2 PUSH4 0xFFFFFFFF MUL NOT AND SWAP1 DUP4 PUSH4 0xFFFFFFFF AND MUL OR SWAP1 SSTORE POP PUSH1 0xA0 DUP3 ADD MLOAD DUP2 PUSH1 0x4 ADD PUSH1 0x4 PUSH2 0x100 EXP DUP2 SLOAD DUP2 PUSH1 0xFF MUL NOT AND SWAP1 DUP4 ISZERO ISZERO MUL OR SWAP1 SSTORE POP POP POP PUSH1 0xA0 DUP3 ADD MLOAD DUP2 PUSH1 0x19 ADD PUSH1 0x0 DUP3 ADD MLOAD DUP2 PUSH1 0x0 ADD SWAP1 DUP1 MLOAD SWAP1 PUSH1 0x20 ADD SWAP1 PUSH3 0x42C SWAP3 SWAP2 SWAP1 PUSH3 0x66F JUMP JUMPDEST POP PUSH1 0x20 DUP3 ADD MLOAD DUP2 PUSH1 0x1 ADD PUSH1 0x0 PUSH2 0x100 EXP DUP2 SLOAD DUP2 PUSH20 0xFFFFFFFFFFFFFFFFFFFFFFFFFFFFFFFFFFFFFFFF MUL NOT AND SWAP1 DUP4 PUSH20 0xFFFFFFFFFFFFFFFFFFFFFFFFFFFFFFFFFFFFFFFF AND MUL OR SWAP1 SSTORE POP PUSH1 0x40 DUP3 ADD MLOAD DUP2 PUSH1 0x2 ADD SWAP1 DUP1 MLOAD SWAP1 PUSH1 0x20 ADD SWAP1 PUSH3 0x492 SWAP3 SWAP2 SWAP1 PUSH3 0x66F JUMP JUMPDEST POP PUSH1 0x60 DUP3 ADD MLOAD DUP2 PUSH1 0x3 ADD SSTORE PUSH1 0x80 DUP3 ADD MLOAD DUP2 PUSH1 0x4 ADD PUSH1 0x0 PUSH2 0x100 EXP DUP2 SLOAD DUP2 PUSH1 0xFF MUL NOT AND SWAP1 DUP4 ISZERO ISZERO MUL OR SWAP1 SSTORE POP POP POP SWAP1 POP POP PUSH32 0x2354C6982830F23074CBADD3A8326546827CA5BE87B6CFE41E906C66E75CD965 DUP3 PUSH1 0x40 MLOAD PUSH3 0x4F3 SWAP2 SWAP1 PUSH3 0x96F JUMP JUMPDEST PUSH1 0x40 MLOAD DUP1 SWAP2 SUB SWAP1 LOG1 POP POP JUMP JUMPDEST PUSH1 0x0 DUP1 NUMBER TIMESTAMP CALLER PUSH1 0x40 MLOAD PUSH1 0x20 ADD PUSH3 0x517 SWAP2 SWAP1 PUSH3 0x918 JUMP JUMPDEST PUSH1 0x40 MLOAD PUSH1 0x20 DUP2 DUP4 SUB SUB DUP2 MSTORE SWAP1 PUSH1 0x40 MSTORE DUP1 MLOAD SWAP1 PUSH1 0x20 ADD KECCAK256 PUSH1 0x0 SHR PUSH3 0x53C SWAP2 SWAP1 PUSH3 0x9E9 JUMP JUMPDEST GASLIMIT TIMESTAMP COINBASE PUSH1 0x40 MLOAD PUSH1 0x20 ADD PUSH3 0x551 SWAP2 SWAP1 PUSH3 0x935 JUMP JUMPDEST PUSH1 0x40 MLOAD PUSH1 0x20 DUP2 DUP4 SUB SUB DUP2 MSTORE SWAP1 PUSH1 0x40 MSTORE DUP1 MLOAD SWAP1 PUSH1 0x20 ADD KECCAK256 PUSH1 0x0 SHR PUSH3 0x576 SWAP2 SWAP1 PUSH3 0x9E9 JUMP JUMPDEST DIFFICULTY TIMESTAMP PUSH3 0x584 SWAP2 SWAP1 PUSH3 0x98C JUMP JUMPDEST PUSH3 0x590 SWAP2 SWAP1 PUSH3 0x98C JUMP JUMPDEST PUSH3 0x59C SWAP2 SWAP1 PUSH3 0x98C JUMP JUMPDEST PUSH3 0x5A8 SWAP2 SWAP1 PUSH3 0x98C JUMP JUMPDEST PUSH3 0x5B4 SWAP2 SWAP1 PUSH3 0x98C JUMP JUMPDEST PUSH1 0x40 MLOAD PUSH1 0x20 ADD PUSH3 0x5C6 SWAP2 SWAP1 PUSH3 0x952 JUMP JUMPDEST PUSH1 0x40 MLOAD PUSH1 0x20 DUP2 DUP4 SUB SUB DUP2 MSTORE SWAP1 PUSH1 0x40 MSTORE DUP1 MLOAD SWAP1 PUSH1 0x20 ADD KECCAK256 PUSH1 0x0 SHR SWAP1 POP PUSH2 0x3E8 DUP1 DUP3 PUSH3 0x5F2 SWAP2 SWAP1 PUSH3 0x9E9 JUMP JUMPDEST PUSH3 0x5FE SWAP2 SWAP1 PUSH3 0xA21 JUMP JUMPDEST DUP2 PUSH3 0x60B SWAP2 SWAP1 PUSH3 0xA82 JUMP JUMPDEST SWAP2 POP POP SWAP1 JUMP JUMPDEST PUSH1 0x40 MLOAD DUP1 PUSH1 0xC0 ADD PUSH1 0x40 MSTORE DUP1 PUSH1 0x0 DUP2 MSTORE PUSH1 0x20 ADD PUSH3 0x62D PUSH3 0x700 JUMP JUMPDEST DUP2 MSTORE PUSH1 0x20 ADD PUSH3 0x63C PUSH3 0x760 JUMP JUMPDEST DUP2 MSTORE PUSH1 0x20 ADD PUSH3 0x64B PUSH3 0x7B5 JUMP JUMPDEST DUP2 MSTORE PUSH1 0x20 ADD PUSH3 0x65A PUSH3 0x7FC JUMP JUMPDEST DUP2 MSTORE PUSH1 0x20 ADD PUSH3 0x669 PUSH3 0x850 JUMP JUMPDEST DUP2 MSTORE POP SWAP1 JUMP JUMPDEST DUP3 DUP1 SLOAD PUSH3 0x67D SWAP1 PUSH3 0xB0F JUMP JUMPDEST SWAP1 PUSH1 0x0 MSTORE PUSH1 0x20 PUSH1 0x0 KECCAK256 SWAP1 PUSH1 0x1F ADD PUSH1 0x20 SWAP1 DIV DUP2 ADD SWAP3 DUP3 PUSH3 0x6A1 JUMPI PUSH1 0x0 DUP6 SSTORE PUSH3 0x6ED JUMP JUMPDEST DUP3 PUSH1 0x1F LT PUSH3 0x6BC JUMPI DUP1 MLOAD PUSH1 0xFF NOT AND DUP4 DUP1 ADD OR DUP6 SSTORE PUSH3 0x6ED JUMP JUMPDEST DUP3 DUP1 ADD PUSH1 0x1 ADD DUP6 SSTORE DUP3 ISZERO PUSH3 0x6ED JUMPI SWAP2 DUP3 ADD JUMPDEST DUP3 DUP2 GT ISZERO PUSH3 0x6EC JUMPI DUP3 MLOAD DUP3 SSTORE SWAP2 PUSH1 0x20 ADD SWAP2 SWAP1 PUSH1 0x1 ADD SWAP1 PUSH3 0x6CF JUMP JUMPDEST JUMPDEST POP SWAP1 POP PUSH3 0x6FC SWAP2 SWAP1 PUSH3 0x897 JUMP JUMPDEST POP SWAP1 JUMP JUMPDEST PUSH1 0x40 MLOAD DUP1 PUSH2 0x100 ADD PUSH1 0x40 MSTORE DUP1 PUSH1 0x60 DUP2 MSTORE PUSH1 0x20 ADD PUSH1 0x0 PUSH20 0xFFFFFFFFFFFFFFFFFFFFFFFFFFFFFFFFFFFFFFFF AND DUP2 MSTORE PUSH1 0x20 ADD PUSH1 0x60 DUP2 MSTORE PUSH1 0x20 ADD PUSH1 0x60 DUP2 MSTORE PUSH1 0x20 ADD PUSH1 0x60 DUP2 MSTORE PUSH1 0x20 ADD PUSH1 0x0 DUP2 MSTORE PUSH1 0x20 ADD PUSH1 0x0 PUSH1 0xFF AND DUP2 MSTORE PUSH1 0x20 ADD PUSH1 0x0 ISZERO ISZERO DUP2 MSTORE POP SWAP1 JUMP JUMPDEST PUSH1 0x40 MLOAD DUP1 PUSH1 0xE0 ADD PUSH1 0x40 MSTORE DUP1 PUSH1 0x60 DUP2 MSTORE PUSH1 0x20 ADD PUSH1 0x0 PUSH20 0xFFFFFFFFFFFFFFFFFFFFFFFFFFFFFFFFFFFFFFFF AND DUP2 MSTORE PUSH1 0x20 ADD PUSH1 0x60 DUP2 MSTORE PUSH1 0x20 ADD PUSH1 0x60 DUP2 MSTORE PUSH1 0x20 ADD PUSH1 0x0 DUP2 MSTORE PUSH1 0x20 ADD PUSH1 0x0 DUP2 MSTORE PUSH1 0x20 ADD PUSH1 0x0 ISZERO ISZERO DUP2 MSTORE POP SWAP1 JUMP JUMPDEST PUSH1 0x40 MLOAD DUP1 PUSH1 0xA0 ADD PUSH1 0x40 MSTORE DUP1 PUSH1 0x60 DUP2 MSTORE PUSH1 0x20 ADD PUSH1 0x0 PUSH20 0xFFFFFFFFFFFFFFFFFFFFFFFFFFFFFFFFFFFFFFFF AND DUP2 MSTORE PUSH1 0x20 ADD PUSH1 0x60 DUP2 MSTORE PUSH1 0x20 ADD PUSH1 0x0 DUP2 MSTORE PUSH1 0x20 ADD PUSH1 0x0 ISZERO ISZERO DUP2 MSTORE POP SWAP1 JUMP JUMPDEST PUSH1 0x40 MLOAD DUP1 PUSH1 0xC0 ADD PUSH1 0x40 MSTORE DUP1 PUSH1 0x60 DUP2 MSTORE PUSH1 0x20 ADD PUSH1 0x0 PUSH20 0xFFFFFFFFFFFFFFFFFFFFFFFFFFFFFFFFFFFFFFFF AND DUP2 MSTORE PUSH1 0x20 ADD PUSH1 0x60 DUP2 MSTORE PUSH1 0x20 ADD PUSH1 0x0 DUP2 MSTORE PUSH1 0x20 ADD PUSH1 0x0 PUSH4 0xFFFFFFFF AND DUP2 MSTORE PUSH1 0x20 ADD PUSH1 0x0 ISZERO ISZERO DUP2 MSTORE POP SWAP1 JUMP JUMPDEST PUSH1 0x40 MLOAD DUP1 PUSH1 0xA0 ADD PUSH1 0x40 MSTORE DUP1 PUSH1 0x60 DUP2 MSTORE PUSH1 0x20 ADD PUSH1 0x0 PUSH20 0xFFFFFFFFFFFFFFFFFFFFFFFFFFFFFFFFFFFFFFFF AND DUP2 MSTORE PUSH1 0x20 ADD PUSH1 0x60 DUP2 MSTORE PUSH1 0x20 ADD PUSH1 0x0 DUP2 MSTORE PUSH1 0x20 ADD PUSH1 0x0 ISZERO ISZERO DUP2 MSTORE POP SWAP1 JUMP JUMPDEST JUMPDEST DUP1 DUP3 GT ISZERO PUSH3 0x8B2 JUMPI PUSH1 0x0 DUP2 PUSH1 0x0 SWAP1 SSTORE POP PUSH1 0x1 ADD PUSH3 0x898 JUMP JUMPDEST POP SWAP1 JUMP JUMPDEST PUSH3 0x8CB PUSH3 0x8C5 DUP3 PUSH3 0xAD1 JUMP JUMPDEST PUSH3 0xB59 JUMP JUMPDEST DUP3 MSTORE POP POP JUMP JUMPDEST PUSH3 0x8E6 PUSH3 0x8E0 DUP3 PUSH3 0xABD JUMP JUMPDEST PUSH3 0xB45 JUMP JUMPDEST DUP3 MSTORE POP POP JUMP JUMPDEST PUSH3 0x8F7 DUP2 PUSH3 0xB05 JUMP JUMPDEST DUP3 MSTORE POP POP JUMP JUMPDEST PUSH3 0x912 PUSH3 0x90C DUP3 PUSH3 0xB05 JUMP JUMPDEST PUSH3 0xB81 JUMP JUMPDEST DUP3 MSTORE POP POP JUMP JUMPDEST PUSH1 0x0 PUSH3 0x926 DUP3 DUP5 PUSH3 0x8D1 JUMP JUMPDEST PUSH1 0x14 DUP3 ADD SWAP2 POP DUP2 SWAP1 POP SWAP3 SWAP2 POP POP JUMP JUMPDEST PUSH1 0x0 PUSH3 0x943 DUP3 DUP5 PUSH3 0x8B6 JUMP JUMPDEST PUSH1 0x14 DUP3 ADD SWAP2 POP DUP2 SWAP1 POP SWAP3 SWAP2 POP POP JUMP JUMPDEST PUSH1 0x0 PUSH3 0x960 DUP3 DUP5 PUSH3 0x8FD JUMP JUMPDEST PUSH1 0x20 DUP3 ADD SWAP2 POP DUP2 SWAP1 POP SWAP3 SWAP2 POP POP JUMP JUMPDEST PUSH1 0x0 PUSH1 0x20 DUP3 ADD SWAP1 POP PUSH3 0x986 PUSH1 0x0 DUP4 ADD DUP5 PUSH3 0x8EC JUMP JUMPDEST SWAP3 SWAP2 POP POP JUMP JUMPDEST PUSH1 0x0 PUSH3 0x999 DUP3 PUSH3 0xB05 JUMP JUMPDEST SWAP2 POP PUSH3 0x9A6 DUP4 PUSH3 0xB05 JUMP JUMPDEST SWAP3 POP DUP3 PUSH32 0xFFFFFFFFFFFFFFFFFFFFFFFFFFFFFFFFFFFFFFFFFFFFFFFFFFFFFFFFFFFFFFFF SUB DUP3 GT ISZERO PUSH3 0x9DE JUMPI PUSH3 0x9DD PUSH3 0xB8B JUMP JUMPDEST JUMPDEST DUP3 DUP3 ADD SWAP1 POP SWAP3 SWAP2 POP POP JUMP JUMPDEST PUSH1 0x0 PUSH3 0x9F6 DUP3 PUSH3 0xB05 JUMP JUMPDEST SWAP2 POP PUSH3 0xA03 DUP4 PUSH3 0xB05 JUMP JUMPDEST SWAP3 POP DUP3 PUSH3 0xA16 JUMPI PUSH3 0xA15 PUSH3 0xBBA JUMP JUMPDEST JUMPDEST DUP3 DUP3 DIV SWAP1 POP SWAP3 SWAP2 POP POP JUMP JUMPDEST PUSH1 0x0 PUSH3 0xA2E DUP3 PUSH3 0xB05 JUMP JUMPDEST SWAP2 POP PUSH3 0xA3B DUP4 PUSH3 0xB05 JUMP JUMPDEST SWAP3 POP DUP2 PUSH32 0xFFFFFFFFFFFFFFFFFFFFFFFFFFFFFFFFFFFFFFFFFFFFFFFFFFFFFFFFFFFFFFFF DIV DUP4 GT DUP3 ISZERO ISZERO AND ISZERO PUSH3 0xA77 JUMPI PUSH3 0xA76 PUSH3 0xB8B JUMP JUMPDEST JUMPDEST DUP3 DUP3 MUL SWAP1 POP SWAP3 SWAP2 POP POP JUMP JUMPDEST PUSH1 0x0 PUSH3 0xA8F DUP3 PUSH3 0xB05 JUMP JUMPDEST SWAP2 POP PUSH3 0xA9C DUP4 PUSH3 0xB05 JUMP JUMPDEST SWAP3 POP DUP3 DUP3 LT ISZERO PUSH3 0xAB2 JUMPI PUSH3 0xAB1 PUSH3 0xB8B JUMP JUMPDEST JUMPDEST DUP3 DUP3 SUB SWAP1 POP SWAP3 SWAP2 POP POP JUMP JUMPDEST PUSH1 0x0 PUSH3 0xACA DUP3 PUSH3 0xAE5 JUMP JUMPDEST SWAP1 POP SWAP2 SWAP1 POP JUMP JUMPDEST PUSH1 0x0 PUSH3 0xADE DUP3 PUSH3 0xAE5 JUMP JUMPDEST SWAP1 POP SWAP2 SWAP1 POP JUMP JUMPDEST PUSH1 0x0 PUSH20 0xFFFFFFFFFFFFFFFFFFFFFFFFFFFFFFFFFFFFFFFF DUP3 AND SWAP1 POP SWAP2 SWAP1 POP JUMP JUMPDEST PUSH1 0x0 DUP2 SWAP1 POP SWAP2 SWAP1 POP JUMP JUMPDEST PUSH1 0x0 PUSH1 0x2 DUP3 DIV SWAP1 POP PUSH1 0x1 DUP3 AND DUP1 PUSH3 0xB28 JUMPI PUSH1 0x7F DUP3 AND SWAP2 POP JUMPDEST PUSH1 0x20 DUP3 LT DUP2 EQ ISZERO PUSH3 0xB3F JUMPI PUSH3 0xB3E PUSH3 0xBE9 JUMP JUMPDEST JUMPDEST POP SWAP2 SWAP1 POP JUMP JUMPDEST PUSH1 0x0 PUSH3 0xB52 DUP3 PUSH3 0xB6D JUMP JUMPDEST SWAP1 POP SWAP2 SWAP1 POP JUMP JUMPDEST PUSH1 0x0 PUSH3 0xB66 DUP3 PUSH3 0xB6D JUMP JUMPDEST SWAP1 POP SWAP2 SWAP1 POP JUMP JUMPDEST PUSH1 0x0 PUSH3 0xB7A DUP3 PUSH3 0xC18 JUMP JUMPDEST SWAP1 POP SWAP2 SWAP1 POP JUMP JUMPDEST PUSH1 0x0 DUP2 SWAP1 POP SWAP2 SWAP1 POP JUMP JUMPDEST PUSH32 0x4E487B7100000000000000000000000000000000000000000000000000000000 PUSH1 0x0 MSTORE PUSH1 0x11 PUSH1 0x4 MSTORE PUSH1 0x24 PUSH1 0x0 REVERT JUMPDEST PUSH32 0x4E487B7100000000000000000000000000000000000000000000000000000000 PUSH1 0x0 MSTORE PUSH1 0x12 PUSH1 0x4 MSTORE PUSH1 0x24 PUSH1 0x0 REVERT JUMPDEST PUSH32 0x4E487B7100000000000000000000000000000000000000000000000000000000 PUSH1 0x0 MSTORE PUSH1 0x22 PUSH1 0x4 MSTORE PUSH1 0x24 PUSH1 0x0 REVERT JUMPDEST PUSH1 0x0 DUP2 PUSH1 0x60 SHL SWAP1 POP SWAP2 SWAP1 POP JUMP JUMPDEST PUSH2 0x47DC DUP1 PUSH3 0xC35 PUSH1 0x0 CODECOPY PUSH1 0x0 RETURN INVALID PUSH1 0x80 PUSH1 0x40 MSTORE CALLVALUE DUP1 ISZERO PUSH2 0x10 JUMPI PUSH1 0x0 DUP1 REVERT JUMPDEST POP PUSH1 0x4 CALLDATASIZE LT PUSH2 0x9E JUMPI PUSH1 0x0 CALLDATALOAD PUSH1 0xE0 SHR DUP1 PUSH4 0x6FE937C5 GT PUSH2 0x66 JUMPI DUP1 PUSH4 0x6FE937C5 EQ PUSH2 0x157 JUMPI DUP1 PUSH4 0x95ED230D EQ PUSH2 0x173 JUMPI DUP1 PUSH4 0xB91297C8 EQ PUSH2 0x18F JUMPI DUP1 PUSH4 0xE34C7813 EQ PUSH2 0x199 JUMPI DUP1 PUSH4 0xF8185A13 EQ PUSH2 0x1CE JUMPI PUSH2 0x9E JUMP JUMPDEST DUP1 PUSH4 0x655B240 EQ PUSH2 0xA3 JUMPI DUP1 PUSH4 0x709D217 EQ PUSH2 0xD3 JUMPI DUP1 PUSH4 0x3647534B EQ PUSH2 0xEF JUMPI DUP1 PUSH4 0x536AEE82 EQ PUSH2 0x10B JUMPI DUP1 PUSH4 0x6AAFA5E9 EQ PUSH2 0x127 JUMPI JUMPDEST PUSH1 0x0 DUP1 REVERT JUMPDEST PUSH2 0xBD PUSH1 0x4 DUP1 CALLDATASIZE SUB DUP2 ADD SWAP1 PUSH2 0xB8 SWAP2 SWAP1 PUSH2 0x3668 JUMP JUMPDEST PUSH2 0x1FE JUMP JUMPDEST PUSH1 0x40 MLOAD PUSH2 0xCA SWAP2 SWAP1 PUSH2 0x424A JUMP JUMPDEST PUSH1 0x40 MLOAD DUP1 SWAP2 SUB SWAP1 RETURN JUMPDEST PUSH2 0xED PUSH1 0x4 DUP1 CALLDATASIZE SUB DUP2 ADD SWAP1 PUSH2 0xE8 SWAP2 SWAP1 PUSH2 0x3691 JUMP JUMPDEST PUSH2 0xCB8 JUMP JUMPDEST STOP JUMPDEST PUSH2 0x109 PUSH1 0x4 DUP1 CALLDATASIZE SUB DUP2 ADD SWAP1 PUSH2 0x104 SWAP2 SWAP1 PUSH2 0x38AB JUMP JUMPDEST PUSH2 0xED6 JUMP JUMPDEST STOP JUMPDEST PUSH2 0x125 PUSH1 0x4 DUP1 CALLDATASIZE SUB DUP2 ADD SWAP1 PUSH2 0x120 SWAP2 SWAP1 PUSH2 0x3830 JUMP JUMPDEST PUSH2 0x10B4 JUMP JUMPDEST STOP JUMPDEST PUSH2 0x141 PUSH1 0x4 DUP1 CALLDATASIZE SUB DUP2 ADD SWAP1 PUSH2 0x13C SWAP2 SWAP1 PUSH2 0x362C JUMP JUMPDEST PUSH2 0x125E JUMP JUMPDEST PUSH1 0x40 MLOAD PUSH2 0x14E SWAP2 SWAP1 PUSH2 0x426C JUMP JUMPDEST PUSH1 0x40 MLOAD DUP1 SWAP2 SUB SWAP1 RETURN JUMPDEST PUSH2 0x171 PUSH1 0x4 DUP1 CALLDATASIZE SUB DUP2 ADD SWAP1 PUSH2 0x16C SWAP2 SWAP1 PUSH2 0x3830 JUMP JUMPDEST PUSH2 0x128F JUMP JUMPDEST STOP JUMPDEST PUSH2 0x18D PUSH1 0x4 DUP1 CALLDATASIZE SUB DUP2 ADD SWAP1 PUSH2 0x188 SWAP2 SWAP1 PUSH2 0x3777 JUMP JUMPDEST PUSH2 0x1439 JUMP JUMPDEST STOP JUMPDEST PUSH2 0x197 PUSH2 0x1618 JUMP JUMPDEST STOP JUMPDEST PUSH2 0x1B3 PUSH1 0x4 DUP1 CALLDATASIZE SUB DUP2 ADD SWAP1 PUSH2 0x1AE SWAP2 SWAP1 PUSH2 0x3668 JUMP JUMPDEST PUSH2 0x1AC9 JUMP JUMPDEST PUSH1 0x40 MLOAD PUSH2 0x1C5 SWAP7 SWAP6 SWAP5 SWAP4 SWAP3 SWAP2 SWAP1 PUSH2 0x4287 JUMP JUMPDEST PUSH1 0x40 MLOAD DUP1 SWAP2 SUB SWAP1 RETURN JUMPDEST PUSH2 0x1E8 PUSH1 0x4 DUP1 CALLDATASIZE SUB DUP2 ADD SWAP1 PUSH2 0x1E3 SWAP2 SWAP1 PUSH2 0x3603 JUMP JUMPDEST PUSH2 0x2556 JUMP JUMPDEST PUSH1 0x40 MLOAD PUSH2 0x1F5 SWAP2 SWAP1 PUSH2 0x4228 JUMP JUMPDEST PUSH1 0x40 MLOAD DUP1 SWAP2 SUB SWAP1 RETURN JUMPDEST PUSH2 0x206 PUSH2 0x32B9 JUMP JUMPDEST PUSH1 0x1 PUSH1 0x0 DUP4 DUP2 MSTORE PUSH1 0x20 ADD SWAP1 DUP2 MSTORE PUSH1 0x20 ADD PUSH1 0x0 KECCAK256 PUSH1 0x40 MLOAD DUP1 PUSH1 0xC0 ADD PUSH1 0x40 MSTORE SWAP1 DUP2 PUSH1 0x0 DUP3 ADD SLOAD DUP2 MSTORE PUSH1 0x20 ADD PUSH1 0x1 DUP3 ADD PUSH1 0x40 MLOAD DUP1 PUSH2 0x100 ADD PUSH1 0x40 MSTORE SWAP1 DUP2 PUSH1 0x0 DUP3 ADD DUP1 SLOAD PUSH2 0x24F SWAP1 PUSH2 0x4584 JUMP JUMPDEST DUP1 PUSH1 0x1F ADD PUSH1 0x20 DUP1 SWAP2 DIV MUL PUSH1 0x20 ADD PUSH1 0x40 MLOAD SWAP1 DUP2 ADD PUSH1 0x40 MSTORE DUP1 SWAP3 SWAP2 SWAP1 DUP2 DUP2 MSTORE PUSH1 0x20 ADD DUP3 DUP1 SLOAD PUSH2 0x27B SWAP1 PUSH2 0x4584 JUMP JUMPDEST DUP1 ISZERO PUSH2 0x2C8 JUMPI DUP1 PUSH1 0x1F LT PUSH2 0x29D JUMPI PUSH2 0x100 DUP1 DUP4 SLOAD DIV MUL DUP4 MSTORE SWAP2 PUSH1 0x20 ADD SWAP2 PUSH2 0x2C8 JUMP JUMPDEST DUP3 ADD SWAP2 SWAP1 PUSH1 0x0 MSTORE PUSH1 0x20 PUSH1 0x0 KECCAK256 SWAP1 JUMPDEST DUP2 SLOAD DUP2 MSTORE SWAP1 PUSH1 0x1 ADD SWAP1 PUSH1 0x20 ADD DUP1 DUP4 GT PUSH2 0x2AB JUMPI DUP3 SWAP1 SUB PUSH1 0x1F AND DUP3 ADD SWAP2 JUMPDEST POP POP POP POP POP DUP2 MSTORE PUSH1 0x20 ADD PUSH1 0x1 DUP3 ADD PUSH1 0x0 SWAP1 SLOAD SWAP1 PUSH2 0x100 EXP SWAP1 DIV PUSH20 0xFFFFFFFFFFFFFFFFFFFFFFFFFFFFFFFFFFFFFFFF AND PUSH20 0xFFFFFFFFFFFFFFFFFFFFFFFFFFFFFFFFFFFFFFFF AND PUSH20 0xFFFFFFFFFFFFFFFFFFFFFFFFFFFFFFFFFFFFFFFF AND DUP2 MSTORE PUSH1 0x20 ADD PUSH1 0x2 DUP3 ADD DUP1 SLOAD PUSH2 0x337 SWAP1 PUSH2 0x4584 JUMP JUMPDEST DUP1 PUSH1 0x1F ADD PUSH1 0x20 DUP1 SWAP2 DIV MUL PUSH1 0x20 ADD PUSH1 0x40 MLOAD SWAP1 DUP2 ADD PUSH1 0x40 MSTORE DUP1 SWAP3 SWAP2 SWAP1 DUP2 DUP2 MSTORE PUSH1 0x20 ADD DUP3 DUP1 SLOAD PUSH2 0x363 SWAP1 PUSH2 0x4584 JUMP JUMPDEST DUP1 ISZERO PUSH2 0x3B0 JUMPI DUP1 PUSH1 0x1F LT PUSH2 0x385 JUMPI PUSH2 0x100 DUP1 DUP4 SLOAD DIV MUL DUP4 MSTORE SWAP2 PUSH1 0x20 ADD SWAP2 PUSH2 0x3B0 JUMP JUMPDEST DUP3 ADD SWAP2 SWAP1 PUSH1 0x0 MSTORE PUSH1 0x20 PUSH1 0x0 KECCAK256 SWAP1 JUMPDEST DUP2 SLOAD DUP2 MSTORE SWAP1 PUSH1 0x1 ADD SWAP1 PUSH1 0x20 ADD DUP1 DUP4 GT PUSH2 0x393 JUMPI DUP3 SWAP1 SUB PUSH1 0x1F AND DUP3 ADD SWAP2 JUMPDEST POP POP POP POP POP DUP2 MSTORE PUSH1 0x20 ADD PUSH1 0x3 DUP3 ADD DUP1 SLOAD PUSH2 0x3C9 SWAP1 PUSH2 0x4584 JUMP JUMPDEST DUP1 PUSH1 0x1F ADD PUSH1 0x20 DUP1 SWAP2 DIV MUL PUSH1 0x20 ADD PUSH1 0x40 MLOAD SWAP1 DUP2 ADD PUSH1 0x40 MSTORE DUP1 SWAP3 SWAP2 SWAP1 DUP2 DUP2 MSTORE PUSH1 0x20 ADD DUP3 DUP1 SLOAD PUSH2 0x3F5 SWAP1 PUSH2 0x4584 JUMP JUMPDEST DUP1 ISZERO PUSH2 0x442 JUMPI DUP1 PUSH1 0x1F LT PUSH2 0x417 JUMPI PUSH2 0x100 DUP1 DUP4 SLOAD DIV MUL DUP4 MSTORE SWAP2 PUSH1 0x20 ADD SWAP2 PUSH2 0x442 JUMP JUMPDEST DUP3 ADD SWAP2 SWAP1 PUSH1 0x0 MSTORE PUSH1 0x20 PUSH1 0x0 KECCAK256 SWAP1 JUMPDEST DUP2 SLOAD DUP2 MSTORE SWAP1 PUSH1 0x1 ADD SWAP1 PUSH1 0x20 ADD DUP1 DUP4 GT PUSH2 0x425 JUMPI DUP3 SWAP1 SUB PUSH1 0x1F AND DUP3 ADD SWAP2 JUMPDEST POP POP POP POP POP DUP2 MSTORE PUSH1 0x20 ADD PUSH1 0x4 DUP3 ADD DUP1 SLOAD PUSH2 0x45B SWAP1 PUSH2 0x4584 JUMP JUMPDEST DUP1 PUSH1 0x1F ADD PUSH1 0x20 DUP1 SWAP2 DIV MUL PUSH1 0x20 ADD PUSH1 0x40 MLOAD SWAP1 DUP2 ADD PUSH1 0x40 MSTORE DUP1 SWAP3 SWAP2 SWAP1 DUP2 DUP2 MSTORE PUSH1 0x20 ADD DUP3 DUP1 SLOAD PUSH2 0x487 SWAP1 PUSH2 0x4584 JUMP JUMPDEST DUP1 ISZERO PUSH2 0x4D4 JUMPI DUP1 PUSH1 0x1F LT PUSH2 0x4A9 JUMPI PUSH2 0x100 DUP1 DUP4 SLOAD DIV MUL DUP4 MSTORE SWAP2 PUSH1 0x20 ADD SWAP2 PUSH2 0x4D4 JUMP JUMPDEST DUP3 ADD SWAP2 SWAP1 PUSH1 0x0 MSTORE PUSH1 0x20 PUSH1 0x0 KECCAK256 SWAP1 JUMPDEST DUP2 SLOAD DUP2 MSTORE SWAP1 PUSH1 0x1 ADD SWAP1 PUSH1 0x20 ADD DUP1 DUP4 GT PUSH2 0x4B7 JUMPI DUP3 SWAP1 SUB PUSH1 0x1F AND DUP3 ADD SWAP2 JUMPDEST POP POP POP POP POP DUP2 MSTORE PUSH1 0x20 ADD PUSH1 0x5 DUP3 ADD SLOAD DUP2 MSTORE PUSH1 0x20 ADD PUSH1 0x6 DUP3 ADD PUSH1 0x0 SWAP1 SLOAD SWAP1 PUSH2 0x100 EXP SWAP1 DIV PUSH1 0xFF AND PUSH1 0xFF AND PUSH1 0xFF AND DUP2 MSTORE PUSH1 0x20 ADD PUSH1 0x6 DUP3 ADD PUSH1 0x1 SWAP1 SLOAD SWAP1 PUSH2 0x100 EXP SWAP1 DIV PUSH1 0xFF AND ISZERO ISZERO ISZERO ISZERO DUP2 MSTORE POP POP DUP2 MSTORE PUSH1 0x20 ADD PUSH1 0x8 DUP3 ADD PUSH1 0x40 MLOAD DUP1 PUSH1 0xE0 ADD PUSH1 0x40 MSTORE SWAP1 DUP2 PUSH1 0x0 DUP3 ADD DUP1 SLOAD PUSH2 0x543 SWAP1 PUSH2 0x4584 JUMP JUMPDEST DUP1 PUSH1 0x1F ADD PUSH1 0x20 DUP1 SWAP2 DIV MUL PUSH1 0x20 ADD PUSH1 0x40 MLOAD SWAP1 DUP2 ADD PUSH1 0x40 MSTORE DUP1 SWAP3 SWAP2 SWAP1 DUP2 DUP2 MSTORE PUSH1 0x20 ADD DUP3 DUP1 SLOAD PUSH2 0x56F SWAP1 PUSH2 0x4584 JUMP JUMPDEST DUP1 ISZERO PUSH2 0x5BC JUMPI DUP1 PUSH1 0x1F LT PUSH2 0x591 JUMPI PUSH2 0x100 DUP1 DUP4 SLOAD DIV MUL DUP4 MSTORE SWAP2 PUSH1 0x20 ADD SWAP2 PUSH2 0x5BC JUMP JUMPDEST DUP3 ADD SWAP2 SWAP1 PUSH1 0x0 MSTORE PUSH1 0x20 PUSH1 0x0 KECCAK256 SWAP1 JUMPDEST DUP2 SLOAD DUP2 MSTORE SWAP1 PUSH1 0x1 ADD SWAP1 PUSH1 0x20 ADD DUP1 DUP4 GT PUSH2 0x59F JUMPI DUP3 SWAP1 SUB PUSH1 0x1F AND DUP3 ADD SWAP2 JUMPDEST POP POP POP POP POP DUP2 MSTORE PUSH1 0x20 ADD PUSH1 0x1 DUP3 ADD PUSH1 0x0 SWAP1 SLOAD SWAP1 PUSH2 0x100 EXP SWAP1 DIV PUSH20 0xFFFFFFFFFFFFFFFFFFFFFFFFFFFFFFFFFFFFFFFF AND PUSH20 0xFFFFFFFFFFFFFFFFFFFFFFFFFFFFFFFFFFFFFFFF AND PUSH20 0xFFFFFFFFFFFFFFFFFFFFFFFFFFFFFFFFFFFFFFFF AND DUP2 MSTORE PUSH1 0x20 ADD PUSH1 0x2 DUP3 ADD DUP1 SLOAD PUSH2 0x62B SWAP1 PUSH2 0x4584 JUMP JUMPDEST DUP1 PUSH1 0x1F ADD PUSH1 0x20 DUP1 SWAP2 DIV MUL PUSH1 0x20 ADD PUSH1 0x40 MLOAD SWAP1 DUP2 ADD PUSH1 0x40 MSTORE DUP1 SWAP3 SWAP2 SWAP1 DUP2 DUP2 MSTORE PUSH1 0x20 ADD DUP3 DUP1 SLOAD PUSH2 0x657 SWAP1 PUSH2 0x4584 JUMP JUMPDEST DUP1 ISZERO PUSH2 0x6A4 JUMPI DUP1 PUSH1 0x1F LT PUSH2 0x679 JUMPI PUSH2 0x100 DUP1 DUP4 SLOAD DIV MUL DUP4 MSTORE SWAP2 PUSH1 0x20 ADD SWAP2 PUSH2 0x6A4 JUMP JUMPDEST DUP3 ADD SWAP2 SWAP1 PUSH1 0x0 MSTORE PUSH1 0x20 PUSH1 0x0 KECCAK256 SWAP1 JUMPDEST DUP2 SLOAD DUP2 MSTORE SWAP1 PUSH1 0x1 ADD SWAP1 PUSH1 0x20 ADD DUP1 DUP4 GT PUSH2 0x687 JUMPI DUP3 SWAP1 SUB PUSH1 0x1F AND DUP3 ADD SWAP2 JUMPDEST POP POP POP POP POP DUP2 MSTORE PUSH1 0x20 ADD PUSH1 0x3 DUP3 ADD DUP1 SLOAD PUSH2 0x6BD SWAP1 PUSH2 0x4584 JUMP JUMPDEST DUP1 PUSH1 0x1F ADD PUSH1 0x20 DUP1 SWAP2 DIV MUL PUSH1 0x20 ADD PUSH1 0x40 MLOAD SWAP1 DUP2 ADD PUSH1 0x40 MSTORE DUP1 SWAP3 SWAP2 SWAP1 DUP2 DUP2 MSTORE PUSH1 0x20 ADD DUP3 DUP1 SLOAD PUSH2 0x6E9 SWAP1 PUSH2 0x4584 JUMP JUMPDEST DUP1 ISZERO PUSH2 0x736 JUMPI DUP1 PUSH1 0x1F LT PUSH2 0x70B JUMPI PUSH2 0x100 DUP1 DUP4 SLOAD DIV MUL DUP4 MSTORE SWAP2 PUSH1 0x20 ADD SWAP2 PUSH2 0x736 JUMP JUMPDEST DUP3 ADD SWAP2 SWAP1 PUSH1 0x0 MSTORE PUSH1 0x20 PUSH1 0x0 KECCAK256 SWAP1 JUMPDEST DUP2 SLOAD DUP2 MSTORE SWAP1 PUSH1 0x1 ADD SWAP1 PUSH1 0x20 ADD DUP1 DUP4 GT PUSH2 0x719 JUMPI DUP3 SWAP1 SUB PUSH1 0x1F AND DUP3 ADD SWAP2 JUMPDEST POP POP POP POP POP DUP2 MSTORE PUSH1 0x20 ADD PUSH1 0x4 DUP3 ADD SLOAD DUP2 MSTORE PUSH1 0x20 ADD PUSH1 0x5 DUP3 ADD SLOAD DUP2 MSTORE PUSH1 0x20 ADD PUSH1 0x6 DUP3 ADD PUSH1 0x0 SWAP1 SLOAD SWAP1 PUSH2 0x100 EXP SWAP1 DIV PUSH1 0xFF AND ISZERO ISZERO ISZERO ISZERO DUP2 MSTORE POP POP DUP2 MSTORE PUSH1 0x20 ADD PUSH1 0xF DUP3 ADD PUSH1 0x40 MLOAD DUP1 PUSH1 0xA0 ADD PUSH1 0x40 MSTORE SWAP1 DUP2 PUSH1 0x0 DUP3 ADD DUP1 SLOAD PUSH2 0x792 SWAP1 PUSH2 0x4584 JUMP JUMPDEST DUP1 PUSH1 0x1F ADD PUSH1 0x20 DUP1 SWAP2 DIV MUL PUSH1 0x20 ADD PUSH1 0x40 MLOAD SWAP1 DUP2 ADD PUSH1 0x40 MSTORE DUP1 SWAP3 SWAP2 SWAP1 DUP2 DUP2 MSTORE PUSH1 0x20 ADD DUP3 DUP1 SLOAD PUSH2 0x7BE SWAP1 PUSH2 0x4584 JUMP JUMPDEST DUP1 ISZERO PUSH2 0x80B JUMPI DUP1 PUSH1 0x1F LT PUSH2 0x7E0 JUMPI PUSH2 0x100 DUP1 DUP4 SLOAD DIV MUL DUP4 MSTORE SWAP2 PUSH1 0x20 ADD SWAP2 PUSH2 0x80B JUMP JUMPDEST DUP3 ADD SWAP2 SWAP1 PUSH1 0x0 MSTORE PUSH1 0x20 PUSH1 0x0 KECCAK256 SWAP1 JUMPDEST DUP2 SLOAD DUP2 MSTORE SWAP1 PUSH1 0x1 ADD SWAP1 PUSH1 0x20 ADD DUP1 DUP4 GT PUSH2 0x7EE JUMPI DUP3 SWAP1 SUB PUSH1 0x1F AND DUP3 ADD SWAP2 JUMPDEST POP POP POP POP POP DUP2 MSTORE PUSH1 0x20 ADD PUSH1 0x1 DUP3 ADD PUSH1 0x0 SWAP1 SLOAD SWAP1 PUSH2 0x100 EXP SWAP1 DIV PUSH20 0xFFFFFFFFFFFFFFFFFFFFFFFFFFFFFFFFFFFFFFFF AND PUSH20 0xFFFFFFFFFFFFFFFFFFFFFFFFFFFFFFFFFFFFFFFF AND PUSH20 0xFFFFFFFFFFFFFFFFFFFFFFFFFFFFFFFFFFFFFFFF AND DUP2 MSTORE PUSH1 0x20 ADD PUSH1 0x2 DUP3 ADD DUP1 SLOAD PUSH2 0x87A SWAP1 PUSH2 0x4584 JUMP JUMPDEST DUP1 PUSH1 0x1F ADD PUSH1 0x20 DUP1 SWAP2 DIV MUL PUSH1 0x20 ADD PUSH1 0x40 MLOAD SWAP1 DUP2 ADD PUSH1 0x40 MSTORE DUP1 SWAP3 SWAP2 SWAP1 DUP2 DUP2 MSTORE PUSH1 0x20 ADD DUP3 DUP1 SLOAD PUSH2 0x8A6 SWAP1 PUSH2 0x4584 JUMP JUMPDEST DUP1 ISZERO PUSH2 0x8F3 JUMPI DUP1 PUSH1 0x1F LT PUSH2 0x8C8 JUMPI PUSH2 0x100 DUP1 DUP4 SLOAD DIV MUL DUP4 MSTORE SWAP2 PUSH1 0x20 ADD SWAP2 PUSH2 0x8F3 JUMP JUMPDEST DUP3 ADD SWAP2 SWAP1 PUSH1 0x0 MSTORE PUSH1 0x20 PUSH1 0x0 KECCAK256 SWAP1 JUMPDEST DUP2 SLOAD DUP2 MSTORE SWAP1 PUSH1 0x1 ADD SWAP1 PUSH1 0x20 ADD DUP1 DUP4 GT PUSH2 0x8D6 JUMPI DUP3 SWAP1 SUB PUSH1 0x1F AND DUP3 ADD SWAP2 JUMPDEST POP POP POP POP POP DUP2 MSTORE PUSH1 0x20 ADD PUSH1 0x3 DUP3 ADD SLOAD DUP2 MSTORE PUSH1 0x20 ADD PUSH1 0x4 DUP3 ADD PUSH1 0x0 SWAP1 SLOAD SWAP1 PUSH2 0x100 EXP SWAP1 DIV PUSH1 0xFF AND ISZERO ISZERO ISZERO ISZERO DUP2 MSTORE POP POP DUP2 MSTORE PUSH1 0x20 ADD PUSH1 0x14 DUP3 ADD PUSH1 0x40 MLOAD DUP1 PUSH1 0xC0 ADD PUSH1 0x40 MSTORE SWAP1 DUP2 PUSH1 0x0 DUP3 ADD DUP1 SLOAD PUSH2 0x945 SWAP1 PUSH2 0x4584 JUMP JUMPDEST DUP1 PUSH1 0x1F ADD PUSH1 0x20 DUP1 SWAP2 DIV MUL PUSH1 0x20 ADD PUSH1 0x40 MLOAD SWAP1 DUP2 ADD PUSH1 0x40 MSTORE DUP1 SWAP3 SWAP2 SWAP1 DUP2 DUP2 MSTORE PUSH1 0x20 ADD DUP3 DUP1 SLOAD PUSH2 0x971 SWAP1 PUSH2 0x4584 JUMP JUMPDEST DUP1 ISZERO PUSH2 0x9BE JUMPI DUP1 PUSH1 0x1F LT PUSH2 0x993 JUMPI PUSH2 0x100 DUP1 DUP4 SLOAD DIV MUL DUP4 MSTORE SWAP2 PUSH1 0x20 ADD SWAP2 PUSH2 0x9BE JUMP JUMPDEST DUP3 ADD SWAP2 SWAP1 PUSH1 0x0 MSTORE PUSH1 0x20 PUSH1 0x0 KECCAK256 SWAP1 JUMPDEST DUP2 SLOAD DUP2 MSTORE SWAP1 PUSH1 0x1 ADD SWAP1 PUSH1 0x20 ADD DUP1 DUP4 GT PUSH2 0x9A1 JUMPI DUP3 SWAP1 SUB PUSH1 0x1F AND DUP3 ADD SWAP2 JUMPDEST POP POP POP POP POP DUP2 MSTORE PUSH1 0x20 ADD PUSH1 0x1 DUP3 ADD PUSH1 0x0 SWAP1 SLOAD SWAP1 PUSH2 0x100 EXP SWAP1 DIV PUSH20 0xFFFFFFFFFFFFFFFFFFFFFFFFFFFFFFFFFFFFFFFF AND PUSH20 0xFFFFFFFFFFFFFFFFFFFFFFFFFFFFFFFFFFFFFFFF AND PUSH20 0xFFFFFFFFFFFFFFFFFFFFFFFFFFFFFFFFFFFFFFFF AND DUP2 MSTORE PUSH1 0x20 ADD PUSH1 0x2 DUP3 ADD DUP1 SLOAD PUSH2 0xA2D SWAP1 PUSH2 0x4584 JUMP JUMPDEST DUP1 PUSH1 0x1F ADD PUSH1 0x20 DUP1 SWAP2 DIV MUL PUSH1 0x20 ADD PUSH1 0x40 MLOAD SWAP1 DUP2 ADD PUSH1 0x40 MSTORE DUP1 SWAP3 SWAP2 SWAP1 DUP2 DUP2 MSTORE PUSH1 0x20 ADD DUP3 DUP1 SLOAD PUSH2 0xA59 SWAP1 PUSH2 0x4584 JUMP JUMPDEST DUP1 ISZERO PUSH2 0xAA6 JUMPI DUP1 PUSH1 0x1F LT PUSH2 0xA7B JUMPI PUSH2 0x100 DUP1 DUP4 SLOAD DIV MUL DUP4 MSTORE SWAP2 PUSH1 0x20 ADD SWAP2 PUSH2 0xAA6 JUMP JUMPDEST DUP3 ADD SWAP2 SWAP1 PUSH1 0x0 MSTORE PUSH1 0x20 PUSH1 0x0 KECCAK256 SWAP1 JUMPDEST DUP2 SLOAD DUP2 MSTORE SWAP1 PUSH1 0x1 ADD SWAP1 PUSH1 0x20 ADD DUP1 DUP4 GT PUSH2 0xA89 JUMPI DUP3 SWAP1 SUB PUSH1 0x1F AND DUP3 ADD SWAP2 JUMPDEST POP POP POP POP POP DUP2 MSTORE PUSH1 0x20 ADD PUSH1 0x3 DUP3 ADD SLOAD DUP2 MSTORE PUSH1 0x20 ADD PUSH1 0x4 DUP3 ADD PUSH1 0x0 SWAP1 SLOAD SWAP1 PUSH2 0x100 EXP SWAP1 DIV PUSH4 0xFFFFFFFF AND PUSH4 0xFFFFFFFF AND PUSH4 0xFFFFFFFF AND DUP2 MSTORE PUSH1 0x20 ADD PUSH1 0x4 DUP3 ADD PUSH1 0x4 SWAP1 SLOAD SWAP1 PUSH2 0x100 EXP SWAP1 DIV PUSH1 0xFF AND ISZERO ISZERO ISZERO ISZERO DUP2 MSTORE POP POP DUP2 MSTORE PUSH1 0x20 ADD PUSH1 0x19 DUP3 ADD PUSH1 0x40 MLOAD DUP1 PUSH1 0xA0 ADD PUSH1 0x40 MSTORE SWAP1 DUP2 PUSH1 0x0 DUP3 ADD DUP1 SLOAD PUSH2 0xB1E SWAP1 PUSH2 0x4584 JUMP JUMPDEST DUP1 PUSH1 0x1F ADD PUSH1 0x20 DUP1 SWAP2 DIV MUL PUSH1 0x20 ADD PUSH1 0x40 MLOAD SWAP1 DUP2 ADD PUSH1 0x40 MSTORE DUP1 SWAP3 SWAP2 SWAP1 DUP2 DUP2 MSTORE PUSH1 0x20 ADD DUP3 DUP1 SLOAD PUSH2 0xB4A SWAP1 PUSH2 0x4584 JUMP JUMPDEST DUP1 ISZERO PUSH2 0xB97 JUMPI DUP1 PUSH1 0x1F LT PUSH2 0xB6C JUMPI PUSH2 0x100 DUP1 DUP4 SLOAD DIV MUL DUP4 MSTORE SWAP2 PUSH1 0x20 ADD SWAP2 PUSH2 0xB97 JUMP JUMPDEST DUP3 ADD SWAP2 SWAP1 PUSH1 0x0 MSTORE PUSH1 0x20 PUSH1 0x0 KECCAK256 SWAP1 JUMPDEST DUP2 SLOAD DUP2 MSTORE SWAP1 PUSH1 0x1 ADD SWAP1 PUSH1 0x20 ADD DUP1 DUP4 GT PUSH2 0xB7A JUMPI DUP3 SWAP1 SUB PUSH1 0x1F AND DUP3 ADD SWAP2 JUMPDEST POP POP POP POP POP DUP2 MSTORE PUSH1 0x20 ADD PUSH1 0x1 DUP3 ADD PUSH1 0x0 SWAP1 SLOAD SWAP1 PUSH2 0x100 EXP SWAP1 DIV PUSH20 0xFFFFFFFFFFFFFFFFFFFFFFFFFFFFFFFFFFFFFFFF AND PUSH20 0xFFFFFFFFFFFFFFFFFFFFFFFFFFFFFFFFFFFFFFFF AND PUSH20 0xFFFFFFFFFFFFFFFFFFFFFFFFFFFFFFFFFFFFFFFF AND DUP2 MSTORE PUSH1 0x20 ADD PUSH1 0x2 DUP3 ADD DUP1 SLOAD PUSH2 0xC06 SWAP1 PUSH2 0x4584 JUMP JUMPDEST DUP1 PUSH1 0x1F ADD PUSH1 0x20 DUP1 SWAP2 DIV MUL PUSH1 0x20 ADD PUSH1 0x40 MLOAD SWAP1 DUP2 ADD PUSH1 0x40 MSTORE DUP1 SWAP3 SWAP2 SWAP1 DUP2 DUP2 MSTORE PUSH1 0x20 ADD DUP3 DUP1 SLOAD PUSH2 0xC32 SWAP1 PUSH2 0x4584 JUMP JUMPDEST DUP1 ISZERO PUSH2 0xC7F JUMPI DUP1 PUSH1 0x1F LT PUSH2 0xC54 JUMPI PUSH2 0x100 DUP1 DUP4 SLOAD DIV MUL DUP4 MSTORE SWAP2 PUSH1 0x20 ADD SWAP2 PUSH2 0xC7F JUMP JUMPDEST DUP3 ADD SWAP2 SWAP1 PUSH1 0x0 MSTORE PUSH1 0x20 PUSH1 0x0 KECCAK256 SWAP1 JUMPDEST DUP2 SLOAD DUP2 MSTORE SWAP1 PUSH1 0x1 ADD SWAP1 PUSH1 0x20 ADD DUP1 DUP4 GT PUSH2 0xC62 JUMPI DUP3 SWAP1 SUB PUSH1 0x1F AND DUP3 ADD SWAP2 JUMPDEST POP POP POP POP POP DUP2 MSTORE PUSH1 0x20 ADD PUSH1 0x3 DUP3 ADD SLOAD DUP2 MSTORE PUSH1 0x20 ADD PUSH1 0x4 DUP3 ADD PUSH1 0x0 SWAP1 SLOAD SWAP1 PUSH2 0x100 EXP SWAP1 DIV PUSH1 0xFF AND ISZERO ISZERO ISZERO ISZERO DUP2 MSTORE POP POP DUP2 MSTORE POP POP SWAP1 POP SWAP2 SWAP1 POP JUMP JUMPDEST PUSH1 0x0 PUSH1 0x40 MLOAD DUP1 PUSH2 0x100 ADD PUSH1 0x40 MSTORE DUP1 PUSH1 0x40 MLOAD DUP1 PUSH1 0x40 ADD PUSH1 0x40 MSTORE DUP1 PUSH1 0x6 DUP2 MSTORE PUSH1 0x20 ADD PUSH32 0x4661726D65720000000000000000000000000000000000000000000000000000 DUP2 MSTORE POP DUP2 MSTORE PUSH1 0x20 ADD DUP9 PUSH20 0xFFFFFFFFFFFFFFFFFFFFFFFFFFFFFFFFFFFFFFFF AND DUP2 MSTORE PUSH1 0x20 ADD DUP8 DUP2 MSTORE PUSH1 0x20 ADD DUP7 DUP2 MSTORE PUSH1 0x20 ADD DUP6 DUP2 MSTORE PUSH1 0x20 ADD DUP5 DUP2 MSTORE PUSH1 0x20 ADD DUP4 PUSH1 0xFF AND DUP2 MSTORE PUSH1 0x20 ADD PUSH1 0x1 ISZERO ISZERO DUP2 MSTORE POP SWAP1 POP DUP1 PUSH1 0x1 PUSH1 0x0 DUP11 DUP2 MSTORE PUSH1 0x20 ADD SWAP1 DUP2 MSTORE PUSH1 0x20 ADD PUSH1 0x0 KECCAK256 PUSH1 0x1 ADD PUSH1 0x0 DUP3 ADD MLOAD DUP2 PUSH1 0x0 ADD SWAP1 DUP1 MLOAD SWAP1 PUSH1 0x20 ADD SWAP1 PUSH2 0xD7A SWAP3 SWAP2 SWAP1 PUSH2 0x330D JUMP JUMPDEST POP PUSH1 0x20 DUP3 ADD MLOAD DUP2 PUSH1 0x1 ADD PUSH1 0x0 PUSH2 0x100 EXP DUP2 SLOAD DUP2 PUSH20 0xFFFFFFFFFFFFFFFFFFFFFFFFFFFFFFFFFFFFFFFF MUL NOT AND SWAP1 DUP4 PUSH20 0xFFFFFFFFFFFFFFFFFFFFFFFFFFFFFFFFFFFFFFFF AND MUL OR SWAP1 SSTORE POP PUSH1 0x40 DUP3 ADD MLOAD DUP2 PUSH1 0x2 ADD SWAP1 DUP1 MLOAD SWAP1 PUSH1 0x20 ADD SWAP1 PUSH2 0xDDE SWAP3 SWAP2 SWAP1 PUSH2 0x330D JUMP JUMPDEST POP PUSH1 0x60 DUP3 ADD MLOAD DUP2 PUSH1 0x3 ADD SWAP1 DUP1 MLOAD SWAP1 PUSH1 0x20 ADD SWAP1 PUSH2 0xDFB SWAP3 SWAP2 SWAP1 PUSH2 0x330D JUMP JUMPDEST POP PUSH1 0x80 DUP3 ADD MLOAD DUP2 PUSH1 0x4 ADD SWAP1 DUP1 MLOAD SWAP1 PUSH1 0x20 ADD SWAP1 PUSH2 0xE18 SWAP3 SWAP2 SWAP1 PUSH2 0x330D JUMP JUMPDEST POP PUSH1 0xA0 DUP3 ADD MLOAD DUP2 PUSH1 0x5 ADD SSTORE PUSH1 0xC0 DUP3 ADD MLOAD DUP2 PUSH1 0x6 ADD PUSH1 0x0 PUSH2 0x100 EXP DUP2 SLOAD DUP2 PUSH1 0xFF MUL NOT AND SWAP1 DUP4 PUSH1 0xFF AND MUL OR SWAP1 SSTORE POP PUSH1 0xE0 DUP3 ADD MLOAD DUP2 PUSH1 0x6 ADD PUSH1 0x1 PUSH2 0x100 EXP DUP2 SLOAD DUP2 PUSH1 0xFF MUL NOT AND SWAP1 DUP4 ISZERO ISZERO MUL OR SWAP1 SSTORE POP SWAP1 POP POP PUSH1 0x0 DUP1 DUP9 PUSH20 0xFFFFFFFFFFFFFFFFFFFFFFFFFFFFFFFFFFFFFFFF AND PUSH20 0xFFFFFFFFFFFFFFFFFFFFFFFFFFFFFFFFFFFFFFFF AND DUP2 MSTORE PUSH1 0x20 ADD SWAP1 DUP2 MSTORE PUSH1 0x20 ADD PUSH1 0x0 KECCAK256 DUP9 SWAP1 DUP1 PUSH1 0x1 DUP2 SLOAD ADD DUP1 DUP3 SSTORE DUP1 SWAP2 POP POP PUSH1 0x1 SWAP1 SUB SWAP1 PUSH1 0x0 MSTORE PUSH1 0x20 PUSH1 0x0 KECCAK256 ADD PUSH1 0x0 SWAP1 SWAP2 SWAP1 SWAP2 SWAP1 SWAP2 POP SSTORE POP POP POP POP POP POP POP POP JUMP JUMPDEST PUSH1 0x0 PUSH1 0x40 MLOAD DUP1 PUSH1 0xC0 ADD PUSH1 0x40 MSTORE DUP1 PUSH1 0x40 MLOAD DUP1 PUSH1 0x40 ADD PUSH1 0x40 MSTORE DUP1 PUSH1 0xB DUP2 MSTORE PUSH1 0x20 ADD PUSH32 0x4469737472696275746572000000000000000000000000000000000000000000 DUP2 MSTORE POP DUP2 MSTORE PUSH1 0x20 ADD DUP7 PUSH20 0xFFFFFFFFFFFFFFFFFFFFFFFFFFFFFFFFFFFFFFFF AND DUP2 MSTORE PUSH1 0x20 ADD DUP6 DUP2 MSTORE PUSH1 0x20 ADD DUP5 DUP2 MSTORE PUSH1 0x20 ADD DUP4 PUSH4 0xFFFFFFFF AND DUP2 MSTORE PUSH1 0x20 ADD PUSH1 0x1 ISZERO ISZERO DUP2 MSTORE POP SWAP1 POP DUP1 PUSH1 0x1 PUSH1 0x0 DUP9 DUP2 MSTORE PUSH1 0x20 ADD SWAP1 DUP2 MSTORE PUSH1 0x20 ADD PUSH1 0x0 KECCAK256 PUSH1 0x14 ADD PUSH1 0x0 DUP3 ADD MLOAD DUP2 PUSH1 0x0 ADD SWAP1 DUP1 MLOAD SWAP1 PUSH1 0x20 ADD SWAP1 PUSH2 0xF8E SWAP3 SWAP2 SWAP1 PUSH2 0x330D JUMP JUMPDEST POP PUSH1 0x20 DUP3 ADD MLOAD DUP2 PUSH1 0x1 ADD PUSH1 0x0 PUSH2 0x100 EXP DUP2 SLOAD DUP2 PUSH20 0xFFFFFFFFFFFFFFFFFFFFFFFFFFFFFFFFFFFFFFFF MUL NOT AND SWAP1 DUP4 PUSH20 0xFFFFFFFFFFFFFFFFFFFFFFFFFFFFFFFFFFFFFFFF AND MUL OR SWAP1 SSTORE POP PUSH1 0x40 DUP3 ADD MLOAD DUP2 PUSH1 0x2 ADD SWAP1 DUP1 MLOAD SWAP1 PUSH1 0x20 ADD SWAP1 PUSH2 0xFF2 SWAP3 SWAP2 SWAP1 PUSH2 0x330D JUMP JUMPDEST POP PUSH1 0x60 DUP3 ADD MLOAD DUP2 PUSH1 0x3 ADD SSTORE PUSH1 0x80 DUP3 ADD MLOAD DUP2 PUSH1 0x4 ADD PUSH1 0x0 PUSH2 0x100 EXP DUP2 SLOAD DUP2 PUSH4 0xFFFFFFFF MUL NOT AND SWAP1 DUP4 PUSH4 0xFFFFFFFF AND MUL OR SWAP1 SSTORE POP PUSH1 0xA0 DUP3 ADD MLOAD DUP2 PUSH1 0x4 ADD PUSH1 0x4 PUSH2 0x100 EXP DUP2 SLOAD DUP2 PUSH1 0xFF MUL NOT AND SWAP1 DUP4 ISZERO ISZERO MUL OR SWAP1 SSTORE POP SWAP1 POP POP PUSH1 0x0 DUP1 DUP7 PUSH20 0xFFFFFFFFFFFFFFFFFFFFFFFFFFFFFFFFFFFFFFFF AND PUSH20 0xFFFFFFFFFFFFFFFFFFFFFFFFFFFFFFFFFFFFFFFF AND DUP2 MSTORE PUSH1 0x20 ADD SWAP1 DUP2 MSTORE PUSH1 0x20 ADD PUSH1 0x0 KECCAK256 DUP7 SWAP1 DUP1 PUSH1 0x1 DUP2 SLOAD ADD DUP1 DUP3 SSTORE DUP1 SWAP2 POP POP PUSH1 0x1 SWAP1 SUB SWAP1 PUSH1 0x0 MSTORE PUSH1 0x20 PUSH1 0x0 KECCAK256 ADD PUSH1 0x0 SWAP1 SWAP2 SWAP1 SWAP2 SWAP1 SWAP2 POP SSTORE POP POP POP POP POP POP JUMP JUMPDEST PUSH1 0x0 PUSH1 0x40 MLOAD DUP1 PUSH1 0xA0 ADD PUSH1 0x40 MSTORE DUP1 PUSH1 0x40 MLOAD DUP1 PUSH1 0x40 ADD PUSH1 0x40 MSTORE DUP1 PUSH1 0x8 DUP2 MSTORE PUSH1 0x20 ADD PUSH32 0x52657461696C6572000000000000000000000000000000000000000000000000 DUP2 MSTORE POP DUP2 MSTORE PUSH1 0x20 ADD DUP6 PUSH20 0xFFFFFFFFFFFFFFFFFFFFFFFFFFFFFFFFFFFFFFFF AND DUP2 MSTORE PUSH1 0x20 ADD DUP5 DUP2 MSTORE PUSH1 0x20 ADD DUP4 DUP2 MSTORE PUSH1 0x20 ADD PUSH1 0x1 ISZERO ISZERO DUP2 MSTORE POP SWAP1 POP DUP1 PUSH1 0x1 PUSH1 0x0 DUP8 DUP2 MSTORE PUSH1 0x20 ADD SWAP1 DUP2 MSTORE PUSH1 0x20 ADD PUSH1 0x0 KECCAK256 PUSH1 0x19 ADD PUSH1 0x0 DUP3 ADD MLOAD DUP2 PUSH1 0x0 ADD SWAP1 DUP1 MLOAD SWAP1 PUSH1 0x20 ADD SWAP1 PUSH2 0x1160 SWAP3 SWAP2 SWAP1 PUSH2 0x330D JUMP JUMPDEST POP PUSH1 0x20 DUP3 ADD MLOAD DUP2 PUSH1 0x1 ADD PUSH1 0x0 PUSH2 0x100 EXP DUP2 SLOAD DUP2 PUSH20 0xFFFFFFFFFFFFFFFFFFFFFFFFFFFFFFFFFFFFFFFF MUL NOT AND SWAP1 DUP4 PUSH20 0xFFFFFFFFFFFFFFFFFFFFFFFFFFFFFFFFFFFFFFFF AND MUL OR SWAP1 SSTORE POP PUSH1 0x40 DUP3 ADD MLOAD DUP2 PUSH1 0x2 ADD SWAP1 DUP1 MLOAD SWAP1 PUSH1 0x20 ADD SWAP1 PUSH2 0x11C4 SWAP3 SWAP2 SWAP1 PUSH2 0x330D JUMP JUMPDEST POP PUSH1 0x60 DUP3 ADD MLOAD DUP2 PUSH1 0x3 ADD SSTORE PUSH1 0x80 DUP3 ADD MLOAD DUP2 PUSH1 0x4 ADD PUSH1 0x0 PUSH2 0x100 EXP DUP2 SLOAD DUP2 PUSH1 0xFF MUL NOT AND SWAP1 DUP4 ISZERO ISZERO MUL OR SWAP1 SSTORE POP SWAP1 POP POP PUSH1 0x0 DUP1 DUP6 PUSH20 0xFFFFFFFFFFFFFFFFFFFFFFFFFFFFFFFFFFFFFFFF AND PUSH20 0xFFFFFFFFFFFFFFFFFFFFFFFFFFFFFFFFFFFFFFFF AND DUP2 MSTORE PUSH1 0x20 ADD SWAP1 DUP2 MSTORE PUSH1 0x20 ADD PUSH1 0x0 KECCAK256 DUP6 SWAP1 DUP1 PUSH1 0x1 DUP2 SLOAD ADD DUP1 DUP3 SSTORE DUP1 SWAP2 POP POP PUSH1 0x1 SWAP1 SUB SWAP1 PUSH1 0x0 MSTORE PUSH1 0x20 PUSH1 0x0 KECCAK256 ADD PUSH1 0x0 SWAP1 SWAP2 SWAP1 SWAP2 SWAP1 SWAP2 POP SSTORE POP POP POP POP POP JUMP JUMPDEST PUSH1 0x0 PUSH1 0x20 MSTORE DUP2 PUSH1 0x0 MSTORE PUSH1 0x40 PUSH1 0x0 KECCAK256 DUP2 DUP2 SLOAD DUP2 LT PUSH2 0x127A JUMPI PUSH1 0x0 DUP1 REVERT JUMPDEST SWAP1 PUSH1 0x0 MSTORE PUSH1 0x20 PUSH1 0x0 KECCAK256 ADD PUSH1 0x0 SWAP2 POP SWAP2 POP POP SLOAD DUP2 JUMP JUMPDEST PUSH1 0x0 PUSH1 0x40 MLOAD DUP1 PUSH1 0xA0 ADD PUSH1 0x40 MSTORE DUP1 PUSH1 0x40 MLOAD DUP1 PUSH1 0x40 ADD PUSH1 0x40 MSTORE DUP1 PUSH1 0xA DUP2 MSTORE PUSH1 0x20 ADD PUSH32 0x57686F6C6573616C657200000000000000000000000000000000000000000000 DUP2 MSTORE POP DUP2 MSTORE PUSH1 0x20 ADD DUP6 PUSH20 0xFFFFFFFFFFFFFFFFFFFFFFFFFFFFFFFFFFFFFFFF AND DUP2 MSTORE PUSH1 0x20 ADD DUP5 DUP2 MSTORE PUSH1 0x20 ADD DUP4 DUP2 MSTORE PUSH1 0x20 ADD PUSH1 0x1 ISZERO ISZERO DUP2 MSTORE POP SWAP1 POP DUP1 PUSH1 0x1 PUSH1 0x0 DUP8 DUP2 MSTORE PUSH1 0x20 ADD SWAP1 DUP2 MSTORE PUSH1 0x20 ADD PUSH1 0x0 KECCAK256 PUSH1 0xF ADD PUSH1 0x0 DUP3 ADD MLOAD DUP2 PUSH1 0x0 ADD SWAP1 DUP1 MLOAD SWAP1 PUSH1 0x20 ADD SWAP1 PUSH2 0x133B SWAP3 SWAP2 SWAP1 PUSH2 0x330D JUMP JUMPDEST POP PUSH1 0x20 DUP3 ADD MLOAD DUP2 PUSH1 0x1 ADD PUSH1 0x0 PUSH2 0x100 EXP DUP2 SLOAD DUP2 PUSH20 0xFFFFFFFFFFFFFFFFFFFFFFFFFFFFFFFFFFFFFFFF MUL NOT AND SWAP1 DUP4 PUSH20 0xFFFFFFFFFFFFFFFFFFFFFFFFFFFFFFFFFFFFFFFF AND MUL OR SWAP1 SSTORE POP PUSH1 0x40 DUP3 ADD MLOAD DUP2 PUSH1 0x2 ADD SWAP1 DUP1 MLOAD SWAP1 PUSH1 0x20 ADD SWAP1 PUSH2 0x139F SWAP3 SWAP2 SWAP1 PUSH2 0x330D JUMP JUMPDEST POP PUSH1 0x60 DUP3 ADD MLOAD DUP2 PUSH1 0x3 ADD SSTORE PUSH1 0x80 DUP3 ADD MLOAD DUP2 PUSH1 0x4 ADD PUSH1 0x0 PUSH2 0x100 EXP DUP2 SLOAD DUP2 PUSH1 0xFF MUL NOT AND SWAP1 DUP4 ISZERO ISZERO MUL OR SWAP1 SSTORE POP SWAP1 POP POP PUSH1 0x0 DUP1 DUP6 PUSH20 0xFFFFFFFFFFFFFFFFFFFFFFFFFFFFFFFFFFFFFFFF AND PUSH20 0xFFFFFFFFFFFFFFFFFFFFFFFFFFFFFFFFFFFFFFFF AND DUP2 MSTORE PUSH1 0x20 ADD SWAP1 DUP2 MSTORE PUSH1 0x20 ADD PUSH1 0x0 KECCAK256 DUP6 SWAP1 DUP1 PUSH1 0x1 DUP2 SLOAD ADD DUP1 DUP3 SSTORE DUP1 SWAP2 POP POP PUSH1 0x1 SWAP1 SUB SWAP1 PUSH1 0x0 MSTORE PUSH1 0x20 PUSH1 0x0 KECCAK256 ADD PUSH1 0x0 SWAP1 SWAP2 SWAP1 SWAP2 SWAP1 SWAP2 POP SSTORE POP POP POP POP POP JUMP JUMPDEST PUSH1 0x0 PUSH1 0x40 MLOAD DUP1 PUSH1 0xE0 ADD PUSH1 0x40 MSTORE DUP1 PUSH1 0x40 MLOAD DUP1 PUSH1 0x40 ADD PUSH1 0x40 MSTORE DUP1 PUSH1 0xC DUP2 MSTORE PUSH1 0x20 ADD PUSH32 0x4D616E7566616374757265720000000000000000000000000000000000000000 DUP2 MSTORE POP DUP2 MSTORE PUSH1 0x20 ADD DUP8 PUSH20 0xFFFFFFFFFFFFFFFFFFFFFFFFFFFFFFFFFFFFFFFF AND DUP2 MSTORE PUSH1 0x20 ADD DUP7 DUP2 MSTORE PUSH1 0x20 ADD DUP6 DUP2 MSTORE PUSH1 0x20 ADD DUP5 DUP2 MSTORE PUSH1 0x20 ADD DUP4 DUP2 MSTORE PUSH1 0x20 ADD PUSH1 0x1 ISZERO ISZERO DUP2 MSTORE POP SWAP1 POP DUP1 PUSH1 0x1 PUSH1 0x0 DUP10 DUP2 MSTORE PUSH1 0x20 ADD SWAP1 DUP2 MSTORE PUSH1 0x20 ADD PUSH1 0x0 KECCAK256 PUSH1 0x8 ADD PUSH1 0x0 DUP3 ADD MLOAD DUP2 PUSH1 0x0 ADD SWAP1 DUP1 MLOAD SWAP1 PUSH1 0x20 ADD SWAP1 PUSH2 0x14F1 SWAP3 SWAP2 SWAP1 PUSH2 0x330D JUMP JUMPDEST POP PUSH1 0x20 DUP3 ADD MLOAD DUP2 PUSH1 0x1 ADD PUSH1 0x0 PUSH2 0x100 EXP DUP2 SLOAD DUP2 PUSH20 0xFFFFFFFFFFFFFFFFFFFFFFFFFFFFFFFFFFFFFFFF MUL NOT AND SWAP1 DUP4 PUSH20 0xFFFFFFFFFFFFFFFFFFFFFFFFFFFFFFFFFFFFFFFF AND MUL OR SWAP1 SSTORE POP PUSH1 0x40 DUP3 ADD MLOAD DUP2 PUSH1 0x2 ADD SWAP1 DUP1 MLOAD SWAP1 PUSH1 0x20 ADD SWAP1 PUSH2 0x1555 SWAP3 SWAP2 SWAP1 PUSH2 0x330D JUMP JUMPDEST POP PUSH1 0x60 DUP3 ADD MLOAD DUP2 PUSH1 0x3 ADD SWAP1 DUP1 MLOAD SWAP1 PUSH1 0x20 ADD SWAP1 PUSH2 0x1572 SWAP3 SWAP2 SWAP1 PUSH2 0x330D JUMP JUMPDEST POP PUSH1 0x80 DUP3 ADD MLOAD DUP2 PUSH1 0x4 ADD SSTORE PUSH1 0xA0 DUP3 ADD MLOAD DUP2 PUSH1 0x5 ADD SSTORE PUSH1 0xC0 DUP3 ADD MLOAD DUP2 PUSH1 0x6 ADD PUSH1 0x0 PUSH2 0x100 EXP DUP2 SLOAD DUP2 PUSH1 0xFF MUL NOT AND SWAP1 DUP4 ISZERO ISZERO MUL OR SWAP1 SSTORE POP SWAP1 POP POP PUSH1 0x0 DUP1 DUP8 PUSH20 0xFFFFFFFFFFFFFFFFFFFFFFFFFFFFFFFFFFFFFFFF AND PUSH20 0xFFFFFFFFFFFFFFFFFFFFFFFFFFFFFFFFFFFFFFFF AND DUP2 MSTORE PUSH1 0x20 ADD SWAP1 DUP2 MSTORE PUSH1 0x20 ADD PUSH1 0x0 KECCAK256 DUP8 SWAP1 DUP1 PUSH1 0x1 DUP2 SLOAD ADD DUP1 DUP3 SSTORE DUP1 SWAP2 POP POP PUSH1 0x1 SWAP1 SUB SWAP1 PUSH1 0x0 MSTORE PUSH1 0x20 PUSH1 0x0 KECCAK256 ADD PUSH1 0x0 SWAP1 SWAP2 SWAP1 SWAP2 SWAP1 SWAP2 POP SSTORE POP POP POP POP POP POP POP JUMP JUMPDEST PUSH1 0x0 PUSH2 0x1622 PUSH2 0x31C1 JUMP JUMPDEST SWAP1 POP PUSH2 0x162C PUSH2 0x32B9 JUMP JUMPDEST DUP2 DUP2 PUSH1 0x0 ADD DUP2 DUP2 MSTORE POP POP DUP1 PUSH1 0x1 PUSH1 0x0 DUP5 DUP2 MSTORE PUSH1 0x20 ADD SWAP1 DUP2 MSTORE PUSH1 0x20 ADD PUSH1 0x0 KECCAK256 PUSH1 0x0 DUP3 ADD MLOAD DUP2 PUSH1 0x0 ADD SSTORE PUSH1 0x20 DUP3 ADD MLOAD DUP2 PUSH1 0x1 ADD PUSH1 0x0 DUP3 ADD MLOAD DUP2 PUSH1 0x0 ADD SWAP1 DUP1 MLOAD SWAP1 PUSH1 0x20 ADD SWAP1 PUSH2 0x1679 SWAP3 SWAP2 SWAP1 PUSH2 0x330D JUMP JUMPDEST POP PUSH1 0x20 DUP3 ADD MLOAD DUP2 PUSH1 0x1 ADD PUSH1 0x0 PUSH2 0x100 EXP DUP2 SLOAD DUP2 PUSH20 0xFFFFFFFFFFFFFFFFFFFFFFFFFFFFFFFFFFFFFFFF MUL NOT AND SWAP1 DUP4 PUSH20 0xFFFFFFFFFFFFFFFFFFFFFFFFFFFFFFFFFFFFFFFF AND MUL OR SWAP1 SSTORE POP PUSH1 0x40 DUP3 ADD MLOAD DUP2 PUSH1 0x2 ADD SWAP1 DUP1 MLOAD SWAP1 PUSH1 0x20 ADD SWAP1 PUSH2 0x16DD SWAP3 SWAP2 SWAP1 PUSH2 0x330D JUMP JUMPDEST POP PUSH1 0x60 DUP3 ADD MLOAD DUP2 PUSH1 0x3 ADD SWAP1 DUP1 MLOAD SWAP1 PUSH1 0x20 ADD SWAP1 PUSH2 0x16FA SWAP3 SWAP2 SWAP1 PUSH2 0x330D JUMP JUMPDEST POP PUSH1 0x80 DUP3 ADD MLOAD DUP2 PUSH1 0x4 ADD SWAP1 DUP1 MLOAD SWAP1 PUSH1 0x20 ADD SWAP1 PUSH2 0x1717 SWAP3 SWAP2 SWAP1 PUSH2 0x330D JUMP JUMPDEST POP PUSH1 0xA0 DUP3 ADD MLOAD DUP2 PUSH1 0x5 ADD SSTORE PUSH1 0xC0 DUP3 ADD MLOAD DUP2 PUSH1 0x6 ADD PUSH1 0x0 PUSH2 0x100 EXP DUP2 SLOAD DUP2 PUSH1 0xFF MUL NOT AND SWAP1 DUP4 PUSH1 0xFF AND MUL OR SWAP1 SSTORE POP PUSH1 0xE0 DUP3 ADD MLOAD DUP2 PUSH1 0x6 ADD PUSH1 0x1 PUSH2 0x100 EXP DUP2 SLOAD DUP2 PUSH1 0xFF MUL NOT AND SWAP1 DUP4 ISZERO ISZERO MUL OR SWAP1 SSTORE POP POP POP PUSH1 0x40 DUP3 ADD MLOAD DUP2 PUSH1 0x8 ADD PUSH1 0x0 DUP3 ADD MLOAD DUP2 PUSH1 0x0 ADD SWAP1 DUP1 MLOAD SWAP1 PUSH1 0x20 ADD SWAP1 PUSH2 0x178A SWAP3 SWAP2 SWAP1 PUSH2 0x330D JUMP JUMPDEST POP PUSH1 0x20 DUP3 ADD MLOAD DUP2 PUSH1 0x1 ADD PUSH1 0x0 PUSH2 0x100 EXP DUP2 SLOAD DUP2 PUSH20 0xFFFFFFFFFFFFFFFFFFFFFFFFFFFFFFFFFFFFFFFF MUL NOT AND SWAP1 DUP4 PUSH20 0xFFFFFFFFFFFFFFFFFFFFFFFFFFFFFFFFFFFFFFFF AND MUL OR SWAP1 SSTORE POP PUSH1 0x40 DUP3 ADD MLOAD DUP2 PUSH1 0x2 ADD SWAP1 DUP1 MLOAD SWAP1 PUSH1 0x20 ADD SWAP1 PUSH2 0x17EE SWAP3 SWAP2 SWAP1 PUSH2 0x330D JUMP JUMPDEST POP PUSH1 0x60 DUP3 ADD MLOAD DUP2 PUSH1 0x3 ADD SWAP1 DUP1 MLOAD SWAP1 PUSH1 0x20 ADD SWAP1 PUSH2 0x180B SWAP3 SWAP2 SWAP1 PUSH2 0x330D JUMP JUMPDEST POP PUSH1 0x80 DUP3 ADD MLOAD DUP2 PUSH1 0x4 ADD SSTORE PUSH1 0xA0 DUP3 ADD MLOAD DUP2 PUSH1 0x5 ADD SSTORE PUSH1 0xC0 DUP3 ADD MLOAD DUP2 PUSH1 0x6 ADD PUSH1 0x0 PUSH2 0x100 EXP DUP2 SLOAD DUP2 PUSH1 0xFF MUL NOT AND SWAP1 DUP4 ISZERO ISZERO MUL OR SWAP1 SSTORE POP POP POP PUSH1 0x60 DUP3 ADD MLOAD DUP2 PUSH1 0xF ADD PUSH1 0x0 DUP3 ADD MLOAD DUP2 PUSH1 0x0 ADD SWAP1 DUP1 MLOAD SWAP1 PUSH1 0x20 ADD SWAP1 PUSH2 0x1867 SWAP3 SWAP2 SWAP1 PUSH2 0x330D JUMP JUMPDEST POP PUSH1 0x20 DUP3 ADD MLOAD DUP2 PUSH1 0x1 ADD PUSH1 0x0 PUSH2 0x100 EXP DUP2 SLOAD DUP2 PUSH20 0xFFFFFFFFFFFFFFFFFFFFFFFFFFFFFFFFFFFFFFFF MUL NOT AND SWAP1 DUP4 PUSH20 0xFFFFFFFFFFFFFFFFFFFFFFFFFFFFFFFFFFFFFFFF AND MUL OR SWAP1 SSTORE POP PUSH1 0x40 DUP3 ADD MLOAD DUP2 PUSH1 0x2 ADD SWAP1 DUP1 MLOAD SWAP1 PUSH1 0x20 ADD SWAP1 PUSH2 0x18CB SWAP3 SWAP2 SWAP1 PUSH2 0x330D JUMP JUMPDEST POP PUSH1 0x60 DUP3 ADD MLOAD DUP2 PUSH1 0x3 ADD SSTORE PUSH1 0x80 DUP3 ADD MLOAD DUP2 PUSH1 0x4 ADD PUSH1 0x0 PUSH2 0x100 EXP DUP2 SLOAD DUP2 PUSH1 0xFF MUL NOT AND SWAP1 DUP4 ISZERO ISZERO MUL OR SWAP1 SSTORE POP POP POP PUSH1 0x80 DUP3 ADD MLOAD DUP2 PUSH1 0x14 ADD PUSH1 0x0 DUP3 ADD MLOAD DUP2 PUSH1 0x0 ADD SWAP1 DUP1 MLOAD SWAP1 PUSH1 0x20 ADD SWAP1 PUSH2 0x191D SWAP3 SWAP2 SWAP1 PUSH2 0x330D JUMP JUMPDEST POP PUSH1 0x20 DUP3 ADD MLOAD DUP2 PUSH1 0x1 ADD PUSH1 0x0 PUSH2 0x100 EXP DUP2 SLOAD DUP2 PUSH20 0xFFFFFFFFFFFFFFFFFFFFFFFFFFFFFFFFFFFFFFFF MUL NOT AND SWAP1 DUP4 PUSH20 0xFFFFFFFFFFFFFFFFFFFFFFFFFFFFFFFFFFFFFFFF AND MUL OR SWAP1 SSTORE POP PUSH1 0x40 DUP3 ADD MLOAD DUP2 PUSH1 0x2 ADD SWAP1 DUP1 MLOAD SWAP1 PUSH1 0x20 ADD SWAP1 PUSH2 0x1981 SWAP3 SWAP2 SWAP1 PUSH2 0x330D JUMP JUMPDEST POP PUSH1 0x60 DUP3 ADD MLOAD DUP2 PUSH1 0x3 ADD SSTORE PUSH1 0x80 DUP3 ADD MLOAD DUP2 PUSH1 0x4 ADD PUSH1 0x0 PUSH2 0x100 EXP DUP2 SLOAD DUP2 PUSH4 0xFFFFFFFF MUL NOT AND SWAP1 DUP4 PUSH4 0xFFFFFFFF AND MUL OR SWAP1 SSTORE POP PUSH1 0xA0 DUP3 ADD MLOAD DUP2 PUSH1 0x4 ADD PUSH1 0x4 PUSH2 0x100 EXP DUP2 SLOAD DUP2 PUSH1 0xFF MUL NOT AND SWAP1 DUP4 ISZERO ISZERO MUL OR SWAP1 SSTORE POP POP POP PUSH1 0xA0 DUP3 ADD MLOAD DUP2 PUSH1 0x19 ADD PUSH1 0x0 DUP3 ADD MLOAD DUP2 PUSH1 0x0 ADD SWAP1 DUP1 MLOAD SWAP1 PUSH1 0x20 ADD SWAP1 PUSH2 0x19FA SWAP3 SWAP2 SWAP1 PUSH2 0x330D JUMP JUMPDEST POP PUSH1 0x20 DUP3 ADD MLOAD DUP2 PUSH1 0x1 ADD PUSH1 0x0 PUSH2 0x100 EXP DUP2 SLOAD DUP2 PUSH20 0xFFFFFFFFFFFFFFFFFFFFFFFFFFFFFFFFFFFFFFFF MUL NOT AND SWAP1 DUP4 PUSH20 0xFFFFFFFFFFFFFFFFFFFFFFFFFFFFFFFFFFFFFFFF AND MUL OR SWAP1 SSTORE POP PUSH1 0x40 DUP3 ADD MLOAD DUP2 PUSH1 0x2 ADD SWAP1 DUP1 MLOAD SWAP1 PUSH1 0x20 ADD SWAP1 PUSH2 0x1A5E SWAP3 SWAP2 SWAP1 PUSH2 0x330D JUMP JUMPDEST POP PUSH1 0x60 DUP3 ADD MLOAD DUP2 PUSH1 0x3 ADD SSTORE PUSH1 0x80 DUP3 ADD MLOAD DUP2 PUSH1 0x4 ADD PUSH1 0x0 PUSH2 0x100 EXP DUP2 SLOAD DUP2 PUSH1 0xFF MUL NOT AND SWAP1 DUP4 ISZERO ISZERO MUL OR SWAP1 SSTORE POP POP POP SWAP1 POP POP PUSH32 0x2354C6982830F23074CBADD3A8326546827CA5BE87B6CFE41E906C66E75CD965 DUP3 PUSH1 0x40 MLOAD PUSH2 0x1ABD SWAP2 SWAP1 PUSH2 0x426C JUMP JUMPDEST PUSH1 0x40 MLOAD DUP1 SWAP2 SUB SWAP1 LOG1 POP POP JUMP JUMPDEST PUSH1 0x1 PUSH1 0x20 MSTORE DUP1 PUSH1 0x0 MSTORE PUSH1 0x40 PUSH1 0x0 KECCAK256 PUSH1 0x0 SWAP2 POP SWAP1 POP DUP1 PUSH1 0x0 ADD SLOAD SWAP1 DUP1 PUSH1 0x1 ADD PUSH1 0x40 MLOAD DUP1 PUSH2 0x100 ADD PUSH1 0x40 MSTORE SWAP1 DUP2 PUSH1 0x0 DUP3 ADD DUP1 SLOAD PUSH2 0x1B03 SWAP1 PUSH2 0x4584 JUMP JUMPDEST DUP1 PUSH1 0x1F ADD PUSH1 0x20 DUP1 SWAP2 DIV MUL PUSH1 0x20 ADD PUSH1 0x40 MLOAD SWAP1 DUP2 ADD PUSH1 0x40 MSTORE DUP1 SWAP3 SWAP2 SWAP1 DUP2 DUP2 MSTORE PUSH1 0x20 ADD DUP3 DUP1 SLOAD PUSH2 0x1B2F SWAP1 PUSH2 0x4584 JUMP JUMPDEST DUP1 ISZERO PUSH2 0x1B7C JUMPI DUP1 PUSH1 0x1F LT PUSH2 0x1B51 JUMPI PUSH2 0x100 DUP1 DUP4 SLOAD DIV MUL DUP4 MSTORE SWAP2 PUSH1 0x20 ADD SWAP2 PUSH2 0x1B7C JUMP JUMPDEST DUP3 ADD SWAP2 SWAP1 PUSH1 0x0 MSTORE PUSH1 0x20 PUSH1 0x0 KECCAK256 SWAP1 JUMPDEST DUP2 SLOAD DUP2 MSTORE SWAP1 PUSH1 0x1 ADD SWAP1 PUSH1 0x20 ADD DUP1 DUP4 GT PUSH2 0x1B5F JUMPI DUP3 SWAP1 SUB PUSH1 0x1F AND DUP3 ADD SWAP2 JUMPDEST POP POP POP POP POP DUP2 MSTORE PUSH1 0x20 ADD PUSH1 0x1 DUP3 ADD PUSH1 0x0 SWAP1 SLOAD SWAP1 PUSH2 0x100 EXP SWAP1 DIV PUSH20 0xFFFFFFFFFFFFFFFFFFFFFFFFFFFFFFFFFFFFFFFF AND PUSH20 0xFFFFFFFFFFFFFFFFFFFFFFFFFFFFFFFFFFFFFFFF AND PUSH20 0xFFFFFFFFFFFFFFFFFFFFFFFFFFFFFFFFFFFFFFFF AND DUP2 MSTORE PUSH1 0x20 ADD PUSH1 0x2 DUP3 ADD DUP1 SLOAD PUSH2 0x1BEB SWAP1 PUSH2 0x4584 JUMP JUMPDEST DUP1 PUSH1 0x1F ADD PUSH1 0x20 DUP1 SWAP2 DIV MUL PUSH1 0x20 ADD PUSH1 0x40 MLOAD SWAP1 DUP2 ADD PUSH1 0x40 MSTORE DUP1 SWAP3 SWAP2 SWAP1 DUP2 DUP2 MSTORE PUSH1 0x20 ADD DUP3 DUP1 SLOAD PUSH2 0x1C17 SWAP1 PUSH2 0x4584 JUMP JUMPDEST DUP1 ISZERO PUSH2 0x1C64 JUMPI DUP1 PUSH1 0x1F LT PUSH2 0x1C39 JUMPI PUSH2 0x100 DUP1 DUP4 SLOAD DIV MUL DUP4 MSTORE SWAP2 PUSH1 0x20 ADD SWAP2 PUSH2 0x1C64 JUMP JUMPDEST DUP3 ADD SWAP2 SWAP1 PUSH1 0x0 MSTORE PUSH1 0x20 PUSH1 0x0 KECCAK256 SWAP1 JUMPDEST DUP2 SLOAD DUP2 MSTORE SWAP1 PUSH1 0x1 ADD SWAP1 PUSH1 0x20 ADD DUP1 DUP4 GT PUSH2 0x1C47 JUMPI DUP3 SWAP1 SUB PUSH1 0x1F AND DUP3 ADD SWAP2 JUMPDEST POP POP POP POP POP DUP2 MSTORE PUSH1 0x20 ADD PUSH1 0x3 DUP3 ADD DUP1 SLOAD PUSH2 0x1C7D SWAP1 PUSH2 0x4584 JUMP JUMPDEST DUP1 PUSH1 0x1F ADD PUSH1 0x20 DUP1 SWAP2 DIV MUL PUSH1 0x20 ADD PUSH1 0x40 MLOAD SWAP1 DUP2 ADD PUSH1 0x40 MSTORE DUP1 SWAP3 SWAP2 SWAP1 DUP2 DUP2 MSTORE PUSH1 0x20 ADD DUP3 DUP1 SLOAD PUSH2 0x1CA9 SWAP1 PUSH2 0x4584 JUMP JUMPDEST DUP1 ISZERO PUSH2 0x1CF6 JUMPI DUP1 PUSH1 0x1F LT PUSH2 0x1CCB JUMPI PUSH2 0x100 DUP1 DUP4 SLOAD DIV MUL DUP4 MSTORE SWAP2 PUSH1 0x20 ADD SWAP2 PUSH2 0x1CF6 JUMP JUMPDEST DUP3 ADD SWAP2 SWAP1 PUSH1 0x0 MSTORE PUSH1 0x20 PUSH1 0x0 KECCAK256 SWAP1 JUMPDEST DUP2 SLOAD DUP2 MSTORE SWAP1 PUSH1 0x1 ADD SWAP1 PUSH1 0x20 ADD DUP1 DUP4 GT PUSH2 0x1CD9 JUMPI DUP3 SWAP1 SUB PUSH1 0x1F AND DUP3 ADD SWAP2 JUMPDEST POP POP POP POP POP DUP2 MSTORE PUSH1 0x20 ADD PUSH1 0x4 DUP3 ADD DUP1 SLOAD PUSH2 0x1D0F SWAP1 PUSH2 0x4584 JUMP JUMPDEST DUP1 PUSH1 0x1F ADD PUSH1 0x20 DUP1 SWAP2 DIV MUL PUSH1 0x20 ADD PUSH1 0x40 MLOAD SWAP1 DUP2 ADD PUSH1 0x40 MSTORE DUP1 SWAP3 SWAP2 SWAP1 DUP2 DUP2 MSTORE PUSH1 0x20 ADD DUP3 DUP1 SLOAD PUSH2 0x1D3B SWAP1 PUSH2 0x4584 JUMP JUMPDEST DUP1 ISZERO PUSH2 0x1D88 JUMPI DUP1 PUSH1 0x1F LT PUSH2 0x1D5D JUMPI PUSH2 0x100 DUP1 DUP4 SLOAD DIV MUL DUP4 MSTORE SWAP2 PUSH1 0x20 ADD SWAP2 PUSH2 0x1D88 JUMP JUMPDEST DUP3 ADD SWAP2 SWAP1 PUSH1 0x0 MSTORE PUSH1 0x20 PUSH1 0x0 KECCAK256 SWAP1 JUMPDEST DUP2 SLOAD DUP2 MSTORE SWAP1 PUSH1 0x1 ADD SWAP1 PUSH1 0x20 ADD DUP1 DUP4 GT PUSH2 0x1D6B JUMPI DUP3 SWAP1 SUB PUSH1 0x1F AND DUP3 ADD SWAP2 JUMPDEST POP POP POP POP POP DUP2 MSTORE PUSH1 0x20 ADD PUSH1 0x5 DUP3 ADD SLOAD DUP2 MSTORE PUSH1 0x20 ADD PUSH1 0x6 DUP3 ADD PUSH1 0x0 SWAP1 SLOAD SWAP1 PUSH2 0x100 EXP SWAP1 DIV PUSH1 0xFF AND PUSH1 0xFF AND PUSH1 0xFF AND DUP2 MSTORE PUSH1 0x20 ADD PUSH1 0x6 DUP3 ADD PUSH1 0x1 SWAP1 SLOAD SWAP1 PUSH2 0x100 EXP SWAP1 DIV PUSH1 0xFF AND ISZERO ISZERO ISZERO ISZERO DUP2 MSTORE POP POP SWAP1 DUP1 PUSH1 0x8 ADD PUSH1 0x40 MLOAD DUP1 PUSH1 0xE0 ADD PUSH1 0x40 MSTORE SWAP1 DUP2 PUSH1 0x0 DUP3 ADD DUP1 SLOAD PUSH2 0x1DF3 SWAP1 PUSH2 0x4584 JUMP JUMPDEST DUP1 PUSH1 0x1F ADD PUSH1 0x20 DUP1 SWAP2 DIV MUL PUSH1 0x20 ADD PUSH1 0x40 MLOAD SWAP1 DUP2 ADD PUSH1 0x40 MSTORE DUP1 SWAP3 SWAP2 SWAP1 DUP2 DUP2 MSTORE PUSH1 0x20 ADD DUP3 DUP1 SLOAD PUSH2 0x1E1F SWAP1 PUSH2 0x4584 JUMP JUMPDEST DUP1 ISZERO PUSH2 0x1E6C JUMPI DUP1 PUSH1 0x1F LT PUSH2 0x1E41 JUMPI PUSH2 0x100 DUP1 DUP4 SLOAD DIV MUL DUP4 MSTORE SWAP2 PUSH1 0x20 ADD SWAP2 PUSH2 0x1E6C JUMP JUMPDEST DUP3 ADD SWAP2 SWAP1 PUSH1 0x0 MSTORE PUSH1 0x20 PUSH1 0x0 KECCAK256 SWAP1 JUMPDEST DUP2 SLOAD DUP2 MSTORE SWAP1 PUSH1 0x1 ADD SWAP1 PUSH1 0x20 ADD DUP1 DUP4 GT PUSH2 0x1E4F JUMPI DUP3 SWAP1 SUB PUSH1 0x1F AND DUP3 ADD SWAP2 JUMPDEST POP POP POP POP POP DUP2 MSTORE PUSH1 0x20 ADD PUSH1 0x1 DUP3 ADD PUSH1 0x0 SWAP1 SLOAD SWAP1 PUSH2 0x100 EXP SWAP1 DIV PUSH20 0xFFFFFFFFFFFFFFFFFFFFFFFFFFFFFFFFFFFFFFFF AND PUSH20 0xFFFFFFFFFFFFFFFFFFFFFFFFFFFFFFFFFFFFFFFF AND PUSH20 0xFFFFFFFFFFFFFFFFFFFFFFFFFFFFFFFFFFFFFFFF AND DUP2 MSTORE PUSH1 0x20 ADD PUSH1 0x2 DUP3 ADD DUP1 SLOAD PUSH2 0x1EDB SWAP1 PUSH2 0x4584 JUMP JUMPDEST DUP1 PUSH1 0x1F ADD PUSH1 0x20 DUP1 SWAP2 DIV MUL PUSH1 0x20 ADD PUSH1 0x40 MLOAD SWAP1 DUP2 ADD PUSH1 0x40 MSTORE DUP1 SWAP3 SWAP2 SWAP1 DUP2 DUP2 MSTORE PUSH1 0x20 ADD DUP3 DUP1 SLOAD PUSH2 0x1F07 SWAP1 PUSH2 0x4584 JUMP JUMPDEST DUP1 ISZERO PUSH2 0x1F54 JUMPI DUP1 PUSH1 0x1F LT PUSH2 0x1F29 JUMPI PUSH2 0x100 DUP1 DUP4 SLOAD DIV MUL DUP4 MSTORE SWAP2 PUSH1 0x20 ADD SWAP2 PUSH2 0x1F54 JUMP JUMPDEST DUP3 ADD SWAP2 SWAP1 PUSH1 0x0 MSTORE PUSH1 0x20 PUSH1 0x0 KECCAK256 SWAP1 JUMPDEST DUP2 SLOAD DUP2 MSTORE SWAP1 PUSH1 0x1 ADD SWAP1 PUSH1 0x20 ADD DUP1 DUP4 GT PUSH2 0x1F37 JUMPI DUP3 SWAP1 SUB PUSH1 0x1F AND DUP3 ADD SWAP2 JUMPDEST POP POP POP POP POP DUP2 MSTORE PUSH1 0x20 ADD PUSH1 0x3 DUP3 ADD DUP1 SLOAD PUSH2 0x1F6D SWAP1 PUSH2 0x4584 JUMP JUMPDEST DUP1 PUSH1 0x1F ADD PUSH1 0x20 DUP1 SWAP2 DIV MUL PUSH1 0x20 ADD PUSH1 0x40 MLOAD SWAP1 DUP2 ADD PUSH1 0x40 MSTORE DUP1 SWAP3 SWAP2 SWAP1 DUP2 DUP2 MSTORE PUSH1 0x20 ADD DUP3 DUP1 SLOAD PUSH2 0x1F99 SWAP1 PUSH2 0x4584 JUMP JUMPDEST DUP1 ISZERO PUSH2 0x1FE6 JUMPI DUP1 PUSH1 0x1F LT PUSH2 0x1FBB JUMPI PUSH2 0x100 DUP1 DUP4 SLOAD DIV MUL DUP4 MSTORE SWAP2 PUSH1 0x20 ADD SWAP2 PUSH2 0x1FE6 JUMP JUMPDEST DUP3 ADD SWAP2 SWAP1 PUSH1 0x0 MSTORE PUSH1 0x20 PUSH1 0x0 KECCAK256 SWAP1 JUMPDEST DUP2 SLOAD DUP2 MSTORE SWAP1 PUSH1 0x1 ADD SWAP1 PUSH1 0x20 ADD DUP1 DUP4 GT PUSH2 0x1FC9 JUMPI DUP3 SWAP1 SUB PUSH1 0x1F AND DUP3 ADD SWAP2 JUMPDEST POP POP POP POP POP DUP2 MSTORE PUSH1 0x20 ADD PUSH1 0x4 DUP3 ADD SLOAD DUP2 MSTORE PUSH1 0x20 ADD PUSH1 0x5 DUP3 ADD SLOAD DUP2 MSTORE PUSH1 0x20 ADD PUSH1 0x6 DUP3 ADD PUSH1 0x0 SWAP1 SLOAD SWAP1 PUSH2 0x100 EXP SWAP1 DIV PUSH1 0xFF AND ISZERO ISZERO ISZERO ISZERO DUP2 MSTORE POP POP SWAP1 DUP1 PUSH1 0xF ADD PUSH1 0x40 MLOAD DUP1 PUSH1 0xA0 ADD PUSH1 0x40 MSTORE SWAP1 DUP2 PUSH1 0x0 DUP3 ADD DUP1 SLOAD PUSH2 0x203E SWAP1 PUSH2 0x4584 JUMP JUMPDEST DUP1 PUSH1 0x1F ADD PUSH1 0x20 DUP1 SWAP2 DIV MUL PUSH1 0x20 ADD PUSH1 0x40 MLOAD SWAP1 DUP2 ADD PUSH1 0x40 MSTORE DUP1 SWAP3 SWAP2 SWAP1 DUP2 DUP2 MSTORE PUSH1 0x20 ADD DUP3 DUP1 SLOAD PUSH2 0x206A SWAP1 PUSH2 0x4584 JUMP JUMPDEST DUP1 ISZERO PUSH2 0x20B7 JUMPI DUP1 PUSH1 0x1F LT PUSH2 0x208C JUMPI PUSH2 0x100 DUP1 DUP4 SLOAD DIV MUL DUP4 MSTORE SWAP2 PUSH1 0x20 ADD SWAP2 PUSH2 0x20B7 JUMP JUMPDEST DUP3 ADD SWAP2 SWAP1 PUSH1 0x0 MSTORE PUSH1 0x20 PUSH1 0x0 KECCAK256 SWAP1 JUMPDEST DUP2 SLOAD DUP2 MSTORE SWAP1 PUSH1 0x1 ADD SWAP1 PUSH1 0x20 ADD DUP1 DUP4 GT PUSH2 0x209A JUMPI DUP3 SWAP1 SUB PUSH1 0x1F AND DUP3 ADD SWAP2 JUMPDEST POP POP POP POP POP DUP2 MSTORE PUSH1 0x20 ADD PUSH1 0x1 DUP3 ADD PUSH1 0x0 SWAP1 SLOAD SWAP1 PUSH2 0x100 EXP SWAP1 DIV PUSH20 0xFFFFFFFFFFFFFFFFFFFFFFFFFFFFFFFFFFFFFFFF AND PUSH20 0xFFFFFFFFFFFFFFFFFFFFFFFFFFFFFFFFFFFFFFFF AND PUSH20 0xFFFFFFFFFFFFFFFFFFFFFFFFFFFFFFFFFFFFFFFF AND DUP2 MSTORE PUSH1 0x20 ADD PUSH1 0x2 DUP3 ADD DUP1 SLOAD PUSH2 0x2126 SWAP1 PUSH2 0x4584 JUMP JUMPDEST DUP1 PUSH1 0x1F ADD PUSH1 0x20 DUP1 SWAP2 DIV MUL PUSH1 0x20 ADD PUSH1 0x40 MLOAD SWAP1 DUP2 ADD PUSH1 0x40 MSTORE DUP1 SWAP3 SWAP2 SWAP1 DUP2 DUP2 MSTORE PUSH1 0x20 ADD DUP3 DUP1 SLOAD PUSH2 0x2152 SWAP1 PUSH2 0x4584 JUMP JUMPDEST DUP1 ISZERO PUSH2 0x219F JUMPI DUP1 PUSH1 0x1F LT PUSH2 0x2174 JUMPI PUSH2 0x100 DUP1 DUP4 SLOAD DIV MUL DUP4 MSTORE SWAP2 PUSH1 0x20 ADD SWAP2 PUSH2 0x219F JUMP JUMPDEST DUP3 ADD SWAP2 SWAP1 PUSH1 0x0 MSTORE PUSH1 0x20 PUSH1 0x0 KECCAK256 SWAP1 JUMPDEST DUP2 SLOAD DUP2 MSTORE SWAP1 PUSH1 0x1 ADD SWAP1 PUSH1 0x20 ADD DUP1 DUP4 GT PUSH2 0x2182 JUMPI DUP3 SWAP1 SUB PUSH1 0x1F AND DUP3 ADD SWAP2 JUMPDEST POP POP POP POP POP DUP2 MSTORE PUSH1 0x20 ADD PUSH1 0x3 DUP3 ADD SLOAD DUP2 MSTORE PUSH1 0x20 ADD PUSH1 0x4 DUP3 ADD PUSH1 0x0 SWAP1 SLOAD SWAP1 PUSH2 0x100 EXP SWAP1 DIV PUSH1 0xFF AND ISZERO ISZERO ISZERO ISZERO DUP2 MSTORE POP POP SWAP1 DUP1 PUSH1 0x14 ADD PUSH1 0x40 MLOAD DUP1 PUSH1 0xC0 ADD PUSH1 0x40 MSTORE SWAP1 DUP2 PUSH1 0x0 DUP3 ADD DUP1 SLOAD PUSH2 0x21ED SWAP1 PUSH2 0x4584 JUMP JUMPDEST DUP1 PUSH1 0x1F ADD PUSH1 0x20 DUP1 SWAP2 DIV MUL PUSH1 0x20 ADD PUSH1 0x40 MLOAD SWAP1 DUP2 ADD PUSH1 0x40 MSTORE DUP1 SWAP3 SWAP2 SWAP1 DUP2 DUP2 MSTORE PUSH1 0x20 ADD DUP3 DUP1 SLOAD PUSH2 0x2219 SWAP1 PUSH2 0x4584 JUMP JUMPDEST DUP1 ISZERO PUSH2 0x2266 JUMPI DUP1 PUSH1 0x1F LT PUSH2 0x223B JUMPI PUSH2 0x100 DUP1 DUP4 SLOAD DIV MUL DUP4 MSTORE SWAP2 PUSH1 0x20 ADD SWAP2 PUSH2 0x2266 JUMP JUMPDEST DUP3 ADD SWAP2 SWAP1 PUSH1 0x0 MSTORE PUSH1 0x20 PUSH1 0x0 KECCAK256 SWAP1 JUMPDEST DUP2 SLOAD DUP2 MSTORE SWAP1 PUSH1 0x1 ADD SWAP1 PUSH1 0x20 ADD DUP1 DUP4 GT PUSH2 0x2249 JUMPI DUP3 SWAP1 SUB PUSH1 0x1F AND DUP3 ADD SWAP2 JUMPDEST POP POP POP POP POP DUP2 MSTORE PUSH1 0x20 ADD PUSH1 0x1 DUP3 ADD PUSH1 0x0 SWAP1 SLOAD SWAP1 PUSH2 0x100 EXP SWAP1 DIV PUSH20 0xFFFFFFFFFFFFFFFFFFFFFFFFFFFFFFFFFFFFFFFF AND PUSH20 0xFFFFFFFFFFFFFFFFFFFFFFFFFFFFFFFFFFFFFFFF AND PUSH20 0xFFFFFFFFFFFFFFFFFFFFFFFFFFFFFFFFFFFFFFFF AND DUP2 MSTORE PUSH1 0x20 ADD PUSH1 0x2 DUP3 ADD DUP1 SLOAD PUSH2 0x22D5 SWAP1 PUSH2 0x4584 JUMP JUMPDEST DUP1 PUSH1 0x1F ADD PUSH1 0x20 DUP1 SWAP2 DIV MUL PUSH1 0x20 ADD PUSH1 0x40 MLOAD SWAP1 DUP2 ADD PUSH1 0x40 MSTORE DUP1 SWAP3 SWAP2 SWAP1 DUP2 DUP2 MSTORE PUSH1 0x20 ADD DUP3 DUP1 SLOAD PUSH2 0x2301 SWAP1 PUSH2 0x4584 JUMP JUMPDEST DUP1 ISZERO PUSH2 0x234E JUMPI DUP1 PUSH1 0x1F LT PUSH2 0x2323 JUMPI PUSH2 0x100 DUP1 DUP4 SLOAD DIV MUL DUP4 MSTORE SWAP2 PUSH1 0x20 ADD SWAP2 PUSH2 0x234E JUMP JUMPDEST DUP3 ADD SWAP2 SWAP1 PUSH1 0x0 MSTORE PUSH1 0x20 PUSH1 0x0 KECCAK256 SWAP1 JUMPDEST DUP2 SLOAD DUP2 MSTORE SWAP1 PUSH1 0x1 ADD SWAP1 PUSH1 0x20 ADD DUP1 DUP4 GT PUSH2 0x2331 JUMPI DUP3 SWAP1 SUB PUSH1 0x1F AND DUP3 ADD SWAP2 JUMPDEST POP POP POP POP POP DUP2 MSTORE PUSH1 0x20 ADD PUSH1 0x3 DUP3 ADD SLOAD DUP2 MSTORE PUSH1 0x20 ADD PUSH1 0x4 DUP3 ADD PUSH1 0x0 SWAP1 SLOAD SWAP1 PUSH2 0x100 EXP SWAP1 DIV PUSH4 0xFFFFFFFF AND PUSH4 0xFFFFFFFF AND PUSH4 0xFFFFFFFF AND DUP2 MSTORE PUSH1 0x20 ADD PUSH1 0x4 DUP3 ADD PUSH1 0x4 SWAP1 SLOAD SWAP1 PUSH2 0x100 EXP SWAP1 DIV PUSH1 0xFF AND ISZERO ISZERO ISZERO ISZERO DUP2 MSTORE POP POP SWAP1 DUP1 PUSH1 0x19 ADD PUSH1 0x40 MLOAD DUP1 PUSH1 0xA0 ADD PUSH1 0x40 MSTORE SWAP1 DUP2 PUSH1 0x0 DUP3 ADD DUP1 SLOAD PUSH2 0x23C2 SWAP1 PUSH2 0x4584 JUMP JUMPDEST DUP1 PUSH1 0x1F ADD PUSH1 0x20 DUP1 SWAP2 DIV MUL PUSH1 0x20 ADD PUSH1 0x40 MLOAD SWAP1 DUP2 ADD PUSH1 0x40 MSTORE DUP1 SWAP3 SWAP2 SWAP1 DUP2 DUP2 MSTORE PUSH1 0x20 ADD DUP3 DUP1 SLOAD PUSH2 0x23EE SWAP1 PUSH2 0x4584 JUMP JUMPDEST DUP1 ISZERO PUSH2 0x243B JUMPI DUP1 PUSH1 0x1F LT PUSH2 0x2410 JUMPI PUSH2 0x100 DUP1 DUP4 SLOAD DIV MUL DUP4 MSTORE SWAP2 PUSH1 0x20 ADD SWAP2 PUSH2 0x243B JUMP JUMPDEST DUP3 ADD SWAP2 SWAP1 PUSH1 0x0 MSTORE PUSH1 0x20 PUSH1 0x0 KECCAK256 SWAP1 JUMPDEST DUP2 SLOAD DUP2 MSTORE SWAP1 PUSH1 0x1 ADD SWAP1 PUSH1 0x20 ADD DUP1 DUP4 GT PUSH2 0x241E JUMPI DUP3 SWAP1 SUB PUSH1 0x1F AND DUP3 ADD SWAP2 JUMPDEST POP POP POP POP POP DUP2 MSTORE PUSH1 0x20 ADD PUSH1 0x1 DUP3 ADD PUSH1 0x0 SWAP1 SLOAD SWAP1 PUSH2 0x100 EXP SWAP1 DIV PUSH20 0xFFFFFFFFFFFFFFFFFFFFFFFFFFFFFFFFFFFFFFFF AND PUSH20 0xFFFFFFFFFFFFFFFFFFFFFFFFFFFFFFFFFFFFFFFF AND PUSH20 0xFFFFFFFFFFFFFFFFFFFFFFFFFFFFFFFFFFFFFFFF AND DUP2 MSTORE PUSH1 0x20 ADD PUSH1 0x2 DUP3 ADD DUP1 SLOAD PUSH2 0x24AA SWAP1 PUSH2 0x4584 JUMP JUMPDEST DUP1 PUSH1 0x1F ADD PUSH1 0x20 DUP1 SWAP2 DIV MUL PUSH1 0x20 ADD PUSH1 0x40 MLOAD SWAP1 DUP2 ADD PUSH1 0x40 MSTORE DUP1 SWAP3 SWAP2 SWAP1 DUP2 DUP2 MSTORE PUSH1 0x20 ADD DUP3 DUP1 SLOAD PUSH2 0x24D6 SWAP1 PUSH2 0x4584 JUMP JUMPDEST DUP1 ISZERO PUSH2 0x2523 JUMPI DUP1 PUSH1 0x1F LT PUSH2 0x24F8 JUMPI PUSH2 0x100 DUP1 DUP4 SLOAD DIV MUL DUP4 MSTORE SWAP2 PUSH1 0x20 ADD SWAP2 PUSH2 0x2523 JUMP JUMPDEST DUP3 ADD SWAP2 SWAP1 PUSH1 0x0 MSTORE PUSH1 0x20 PUSH1 0x0 KECCAK256 SWAP1 JUMPDEST DUP2 SLOAD DUP2 MSTORE SWAP1 PUSH1 0x1 ADD SWAP1 PUSH1 0x20 ADD DUP1 DUP4 GT PUSH2 0x2506 JUMPI DUP3 SWAP1 SUB PUSH1 0x1F AND DUP3 ADD SWAP2 JUMPDEST POP POP POP POP POP DUP2 MSTORE PUSH1 0x20 ADD PUSH1 0x3 DUP3 ADD SLOAD DUP2 MSTORE PUSH1 0x20 ADD PUSH1 0x4 DUP3 ADD PUSH1 0x0 SWAP1 SLOAD SWAP1 PUSH2 0x100 EXP SWAP1 DIV PUSH1 0xFF AND ISZERO ISZERO ISZERO ISZERO DUP2 MSTORE POP POP SWAP1 POP DUP7 JUMP JUMPDEST PUSH1 0x60 PUSH1 0x0 DUP1 PUSH1 0x0 DUP5 PUSH20 0xFFFFFFFFFFFFFFFFFFFFFFFFFFFFFFFFFFFFFFFF AND PUSH20 0xFFFFFFFFFFFFFFFFFFFFFFFFFFFFFFFFFFFFFFFF AND DUP2 MSTORE PUSH1 0x20 ADD SWAP1 DUP2 MSTORE PUSH1 0x20 ADD PUSH1 0x0 KECCAK256 DUP1 SLOAD DUP1 PUSH1 0x20 MUL PUSH1 0x20 ADD PUSH1 0x40 MLOAD SWAP1 DUP2 ADD PUSH1 0x40 MSTORE DUP1 SWAP3 SWAP2 SWAP1 DUP2 DUP2 MSTORE PUSH1 0x20 ADD DUP3 DUP1 SLOAD DUP1 ISZERO PUSH2 0x25E2 JUMPI PUSH1 0x20 MUL DUP3 ADD SWAP2 SWAP1 PUSH1 0x0 MSTORE PUSH1 0x20 PUSH1 0x0 KECCAK256 SWAP1 JUMPDEST DUP2 SLOAD DUP2 MSTORE PUSH1 0x20 ADD SWAP1 PUSH1 0x1 ADD SWAP1 DUP1 DUP4 GT PUSH2 0x25CE JUMPI JUMPDEST POP POP POP POP POP SWAP1 POP PUSH1 0x0 DUP2 MLOAD PUSH8 0xFFFFFFFFFFFFFFFF DUP2 GT ISZERO PUSH2 0x262C JUMPI PUSH32 0x4E487B7100000000000000000000000000000000000000000000000000000000 PUSH1 0x0 MSTORE PUSH1 0x41 PUSH1 0x4 MSTORE PUSH1 0x24 PUSH1 0x0 REVERT JUMPDEST PUSH1 0x40 MLOAD SWAP1 DUP1 DUP3 MSTORE DUP1 PUSH1 0x20 MUL PUSH1 0x20 ADD DUP3 ADD PUSH1 0x40 MSTORE DUP1 ISZERO PUSH2 0x2665 JUMPI DUP2 PUSH1 0x20 ADD JUMPDEST PUSH2 0x2652 PUSH2 0x32B9 JUMP JUMPDEST DUP2 MSTORE PUSH1 0x20 ADD SWAP1 PUSH1 0x1 SWAP1 SUB SWAP1 DUP2 PUSH2 0x264A JUMPI SWAP1 POP JUMPDEST POP SWAP1 POP PUSH1 0x0 JUMPDEST DUP3 MLOAD DUP2 LT ISZERO PUSH2 0x31B6 JUMPI PUSH1 0x1 PUSH1 0x0 DUP5 DUP4 DUP2 MLOAD DUP2 LT PUSH2 0x26B1 JUMPI PUSH32 0x4E487B7100000000000000000000000000000000000000000000000000000000 PUSH1 0x0 MSTORE PUSH1 0x32 PUSH1 0x4 MSTORE PUSH1 0x24 PUSH1 0x0 REVERT JUMPDEST PUSH1 0x20 MUL PUSH1 0x20 ADD ADD MLOAD DUP2 MSTORE PUSH1 0x20 ADD SWAP1 DUP2 MSTORE PUSH1 0x20 ADD PUSH1 0x0 KECCAK256 PUSH1 0x40 MLOAD DUP1 PUSH1 0xC0 ADD PUSH1 0x40 MSTORE SWAP1 DUP2 PUSH1 0x0 DUP3 ADD SLOAD DUP2 MSTORE PUSH1 0x20 ADD PUSH1 0x1 DUP3 ADD PUSH1 0x40 MLOAD DUP1 PUSH2 0x100 ADD PUSH1 0x40 MSTORE SWAP1 DUP2 PUSH1 0x0 DUP3 ADD DUP1 SLOAD PUSH2 0x26FD SWAP1 PUSH2 0x4584 JUMP JUMPDEST DUP1 PUSH1 0x1F ADD PUSH1 0x20 DUP1 SWAP2 DIV MUL PUSH1 0x20 ADD PUSH1 0x40 MLOAD SWAP1 DUP2 ADD PUSH1 0x40 MSTORE DUP1 SWAP3 SWAP2 SWAP1 DUP2 DUP2 MSTORE PUSH1 0x20 ADD DUP3 DUP1 SLOAD PUSH2 0x2729 SWAP1 PUSH2 0x4584 JUMP JUMPDEST DUP1 ISZERO PUSH2 0x2776 JUMPI DUP1 PUSH1 0x1F LT PUSH2 0x274B JUMPI PUSH2 0x100 DUP1 DUP4 SLOAD DIV MUL DUP4 MSTORE SWAP2 PUSH1 0x20 ADD SWAP2 PUSH2 0x2776 JUMP JUMPDEST DUP3 ADD SWAP2 SWAP1 PUSH1 0x0 MSTORE PUSH1 0x20 PUSH1 0x0 KECCAK256 SWAP1 JUMPDEST DUP2 SLOAD DUP2 MSTORE SWAP1 PUSH1 0x1 ADD SWAP1 PUSH1 0x20 ADD DUP1 DUP4 GT PUSH2 0x2759 JUMPI DUP3 SWAP1 SUB PUSH1 0x1F AND DUP3 ADD SWAP2 JUMPDEST POP POP POP POP POP DUP2 MSTORE PUSH1 0x20 ADD PUSH1 0x1 DUP3 ADD PUSH1 0x0 SWAP1 SLOAD SWAP1 PUSH2 0x100 EXP SWAP1 DIV PUSH20 0xFFFFFFFFFFFFFFFFFFFFFFFFFFFFFFFFFFFFFFFF AND PUSH20 0xFFFFFFFFFFFFFFFFFFFFFFFFFFFFFFFFFFFFFFFF AND PUSH20 0xFFFFFFFFFFFFFFFFFFFFFFFFFFFFFFFFFFFFFFFF AND DUP2 MSTORE PUSH1 0x20 ADD PUSH1 0x2 DUP3 ADD DUP1 SLOAD PUSH2 0x27E5 SWAP1 PUSH2 0x4584 JUMP JUMPDEST DUP1 PUSH1 0x1F ADD PUSH1 0x20 DUP1 SWAP2 DIV MUL PUSH1 0x20 ADD PUSH1 0x40 MLOAD SWAP1 DUP2 ADD PUSH1 0x40 MSTORE DUP1 SWAP3 SWAP2 SWAP1 DUP2 DUP2 MSTORE PUSH1 0x20 ADD DUP3 DUP1 SLOAD PUSH2 0x2811 SWAP1 PUSH2 0x4584 JUMP JUMPDEST DUP1 ISZERO PUSH2 0x285E JUMPI DUP1 PUSH1 0x1F LT PUSH2 0x2833 JUMPI PUSH2 0x100 DUP1 DUP4 SLOAD DIV MUL DUP4 MSTORE SWAP2 PUSH1 0x20 ADD SWAP2 PUSH2 0x285E JUMP JUMPDEST DUP3 ADD SWAP2 SWAP1 PUSH1 0x0 MSTORE PUSH1 0x20 PUSH1 0x0 KECCAK256 SWAP1 JUMPDEST DUP2 SLOAD DUP2 MSTORE SWAP1 PUSH1 0x1 ADD SWAP1 PUSH1 0x20 ADD DUP1 DUP4 GT PUSH2 0x2841 JUMPI DUP3 SWAP1 SUB PUSH1 0x1F AND DUP3 ADD SWAP2 JUMPDEST POP POP POP POP POP DUP2 MSTORE PUSH1 0x20 ADD PUSH1 0x3 DUP3 ADD DUP1 SLOAD PUSH2 0x2877 SWAP1 PUSH2 0x4584 JUMP JUMPDEST DUP1 PUSH1 0x1F ADD PUSH1 0x20 DUP1 SWAP2 DIV MUL PUSH1 0x20 ADD PUSH1 0x40 MLOAD SWAP1 DUP2 ADD PUSH1 0x40 MSTORE DUP1 SWAP3 SWAP2 SWAP1 DUP2 DUP2 MSTORE PUSH1 0x20 ADD DUP3 DUP1 SLOAD PUSH2 0x28A3 SWAP1 PUSH2 0x4584 JUMP JUMPDEST DUP1 ISZERO PUSH2 0x28F0 JUMPI DUP1 PUSH1 0x1F LT PUSH2 0x28C5 JUMPI PUSH2 0x100 DUP1 DUP4 SLOAD DIV MUL DUP4 MSTORE SWAP2 PUSH1 0x20 ADD SWAP2 PUSH2 0x28F0 JUMP JUMPDEST DUP3 ADD SWAP2 SWAP1 PUSH1 0x0 MSTORE PUSH1 0x20 PUSH1 0x0 KECCAK256 SWAP1 JUMPDEST DUP2 SLOAD DUP2 MSTORE SWAP1 PUSH1 0x1 ADD SWAP1 PUSH1 0x20 ADD DUP1 DUP4 GT PUSH2 0x28D3 JUMPI DUP3 SWAP1 SUB PUSH1 0x1F AND DUP3 ADD SWAP2 JUMPDEST POP POP POP POP POP DUP2 MSTORE PUSH1 0x20 ADD PUSH1 0x4 DUP3 ADD DUP1 SLOAD PUSH2 0x2909 SWAP1 PUSH2 0x4584 JUMP JUMPDEST DUP1 PUSH1 0x1F ADD PUSH1 0x20 DUP1 SWAP2 DIV MUL PUSH1 0x20 ADD PUSH1 0x40 MLOAD SWAP1 DUP2 ADD PUSH1 0x40 MSTORE DUP1 SWAP3 SWAP2 SWAP1 DUP2 DUP2 MSTORE PUSH1 0x20 ADD DUP3 DUP1 SLOAD PUSH2 0x2935 SWAP1 PUSH2 0x4584 JUMP JUMPDEST DUP1 ISZERO PUSH2 0x2982 JUMPI DUP1 PUSH1 0x1F LT PUSH2 0x2957 JUMPI PUSH2 0x100 DUP1 DUP4 SLOAD DIV MUL DUP4 MSTORE SWAP2 PUSH1 0x20 ADD SWAP2 PUSH2 0x2982 JUMP JUMPDEST DUP3 ADD SWAP2 SWAP1 PUSH1 0x0 MSTORE PUSH1 0x20 PUSH1 0x0 KECCAK256 SWAP1 JUMPDEST DUP2 SLOAD DUP2 MSTORE SWAP1 PUSH1 0x1 ADD SWAP1 PUSH1 0x20 ADD DUP1 DUP4 GT PUSH2 0x2965 JUMPI DUP3 SWAP1 SUB PUSH1 0x1F AND DUP3 ADD SWAP2 JUMPDEST POP POP POP POP POP DUP2 MSTORE PUSH1 0x20 ADD PUSH1 0x5 DUP3 ADD SLOAD DUP2 MSTORE PUSH1 0x20 ADD PUSH1 0x6 DUP3 ADD PUSH1 0x0 SWAP1 SLOAD SWAP1 PUSH2 0x100 EXP SWAP1 DIV PUSH1 0xFF AND PUSH1 0xFF AND PUSH1 0xFF AND DUP2 MSTORE PUSH1 0x20 ADD PUSH1 0x6 DUP3 ADD PUSH1 0x1 SWAP1 SLOAD SWAP1 PUSH2 0x100 EXP SWAP1 DIV PUSH1 0xFF AND ISZERO ISZERO ISZERO ISZERO DUP2 MSTORE POP POP DUP2 MSTORE PUSH1 0x20 ADD PUSH1 0x8 DUP3 ADD PUSH1 0x40 MLOAD DUP1 PUSH1 0xE0 ADD PUSH1 0x40 MSTORE SWAP1 DUP2 PUSH1 0x0 DUP3 ADD DUP1 SLOAD PUSH2 0x29F1 SWAP1 PUSH2 0x4584 JUMP JUMPDEST DUP1 PUSH1 0x1F ADD PUSH1 0x20 DUP1 SWAP2 DIV MUL PUSH1 0x20 ADD PUSH1 0x40 MLOAD SWAP1 DUP2 ADD PUSH1 0x40 MSTORE DUP1 SWAP3 SWAP2 SWAP1 DUP2 DUP2 MSTORE PUSH1 0x20 ADD DUP3 DUP1 SLOAD PUSH2 0x2A1D SWAP1 PUSH2 0x4584 JUMP JUMPDEST DUP1 ISZERO PUSH2 0x2A6A JUMPI DUP1 PUSH1 0x1F LT PUSH2 0x2A3F JUMPI PUSH2 0x100 DUP1 DUP4 SLOAD DIV MUL DUP4 MSTORE SWAP2 PUSH1 0x20 ADD SWAP2 PUSH2 0x2A6A JUMP JUMPDEST DUP3 ADD SWAP2 SWAP1 PUSH1 0x0 MSTORE PUSH1 0x20 PUSH1 0x0 KECCAK256 SWAP1 JUMPDEST DUP2 SLOAD DUP2 MSTORE SWAP1 PUSH1 0x1 ADD SWAP1 PUSH1 0x20 ADD DUP1 DUP4 GT PUSH2 0x2A4D JUMPI DUP3 SWAP1 SUB PUSH1 0x1F AND DUP3 ADD SWAP2 JUMPDEST POP POP POP POP POP DUP2 MSTORE PUSH1 0x20 ADD PUSH1 0x1 DUP3 ADD PUSH1 0x0 SWAP1 SLOAD SWAP1 PUSH2 0x100 EXP SWAP1 DIV PUSH20 0xFFFFFFFFFFFFFFFFFFFFFFFFFFFFFFFFFFFFFFFF AND PUSH20 0xFFFFFFFFFFFFFFFFFFFFFFFFFFFFFFFFFFFFFFFF AND PUSH20 0xFFFFFFFFFFFFFFFFFFFFFFFFFFFFFFFFFFFFFFFF AND DUP2 MSTORE PUSH1 0x20 ADD PUSH1 0x2 DUP3 ADD DUP1 SLOAD PUSH2 0x2AD9 SWAP1 PUSH2 0x4584 JUMP JUMPDEST DUP1 PUSH1 0x1F ADD PUSH1 0x20 DUP1 SWAP2 DIV MUL PUSH1 0x20 ADD PUSH1 0x40 MLOAD SWAP1 DUP2 ADD PUSH1 0x40 MSTORE DUP1 SWAP3 SWAP2 SWAP1 DUP2 DUP2 MSTORE PUSH1 0x20 ADD DUP3 DUP1 SLOAD PUSH2 0x2B05 SWAP1 PUSH2 0x4584 JUMP JUMPDEST DUP1 ISZERO PUSH2 0x2B52 JUMPI DUP1 PUSH1 0x1F LT PUSH2 0x2B27 JUMPI PUSH2 0x100 DUP1 DUP4 SLOAD DIV MUL DUP4 MSTORE SWAP2 PUSH1 0x20 ADD SWAP2 PUSH2 0x2B52 JUMP JUMPDEST DUP3 ADD SWAP2 SWAP1 PUSH1 0x0 MSTORE PUSH1 0x20 PUSH1 0x0 KECCAK256 SWAP1 JUMPDEST DUP2 SLOAD DUP2 MSTORE SWAP1 PUSH1 0x1 ADD SWAP1 PUSH1 0x20 ADD DUP1 DUP4 GT PUSH2 0x2B35 JUMPI DUP3 SWAP1 SUB PUSH1 0x1F AND DUP3 ADD SWAP2 JUMPDEST POP POP POP POP POP DUP2 MSTORE PUSH1 0x20 ADD PUSH1 0x3 DUP3 ADD DUP1 SLOAD PUSH2 0x2B6B SWAP1 PUSH2 0x4584 JUMP JUMPDEST DUP1 PUSH1 0x1F ADD PUSH1 0x20 DUP1 SWAP2 DIV MUL PUSH1 0x20 ADD PUSH1 0x40 MLOAD SWAP1 DUP2 ADD PUSH1 0x40 MSTORE DUP1 SWAP3 SWAP2 SWAP1 DUP2 DUP2 MSTORE PUSH1 0x20 ADD DUP3 DUP1 SLOAD PUSH2 0x2B97 SWAP1 PUSH2 0x4584 JUMP JUMPDEST DUP1 ISZERO PUSH2 0x2BE4 JUMPI DUP1 PUSH1 0x1F LT PUSH2 0x2BB9 JUMPI PUSH2 0x100 DUP1 DUP4 SLOAD DIV MUL DUP4 MSTORE SWAP2 PUSH1 0x20 ADD SWAP2 PUSH2 0x2BE4 JUMP JUMPDEST DUP3 ADD SWAP2 SWAP1 PUSH1 0x0 MSTORE PUSH1 0x20 PUSH1 0x0 KECCAK256 SWAP1 JUMPDEST DUP2 SLOAD DUP2 MSTORE SWAP1 PUSH1 0x1 ADD SWAP1 PUSH1 0x20 ADD DUP1 DUP4 GT PUSH2 0x2BC7 JUMPI DUP3 SWAP1 SUB PUSH1 0x1F AND DUP3 ADD SWAP2 JUMPDEST POP POP POP POP POP DUP2 MSTORE PUSH1 0x20 ADD PUSH1 0x4 DUP3 ADD SLOAD DUP2 MSTORE PUSH1 0x20 ADD PUSH1 0x5 DUP3 ADD SLOAD DUP2 MSTORE PUSH1 0x20 ADD PUSH1 0x6 DUP3 ADD PUSH1 0x0 SWAP1 SLOAD SWAP1 PUSH2 0x100 EXP SWAP1 DIV PUSH1 0xFF AND ISZERO ISZERO ISZERO ISZERO DUP2 MSTORE POP POP DUP2 MSTORE PUSH1 0x20 ADD PUSH1 0xF DUP3 ADD PUSH1 0x40 MLOAD DUP1 PUSH1 0xA0 ADD PUSH1 0x40 MSTORE SWAP1 DUP2 PUSH1 0x0 DUP3 ADD DUP1 SLOAD PUSH2 0x2C40 SWAP1 PUSH2 0x4584 JUMP JUMPDEST DUP1 PUSH1 0x1F ADD PUSH1 0x20 DUP1 SWAP2 DIV MUL PUSH1 0x20 ADD PUSH1 0x40 MLOAD SWAP1 DUP2 ADD PUSH1 0x40 MSTORE DUP1 SWAP3 SWAP2 SWAP1 DUP2 DUP2 MSTORE PUSH1 0x20 ADD DUP3 DUP1 SLOAD PUSH2 0x2C6C SWAP1 PUSH2 0x4584 JUMP JUMPDEST DUP1 ISZERO PUSH2 0x2CB9 JUMPI DUP1 PUSH1 0x1F LT PUSH2 0x2C8E JUMPI PUSH2 0x100 DUP1 DUP4 SLOAD DIV MUL DUP4 MSTORE SWAP2 PUSH1 0x20 ADD SWAP2 PUSH2 0x2CB9 JUMP JUMPDEST DUP3 ADD SWAP2 SWAP1 PUSH1 0x0 MSTORE PUSH1 0x20 PUSH1 0x0 KECCAK256 SWAP1 JUMPDEST DUP2 SLOAD DUP2 MSTORE SWAP1 PUSH1 0x1 ADD SWAP1 PUSH1 0x20 ADD DUP1 DUP4 GT PUSH2 0x2C9C JUMPI DUP3 SWAP1 SUB PUSH1 0x1F AND DUP3 ADD SWAP2 JUMPDEST POP POP POP POP POP DUP2 MSTORE PUSH1 0x20 ADD PUSH1 0x1 DUP3 ADD PUSH1 0x0 SWAP1 SLOAD SWAP1 PUSH2 0x100 EXP SWAP1 DIV PUSH20 0xFFFFFFFFFFFFFFFFFFFFFFFFFFFFFFFFFFFFFFFF AND PUSH20 0xFFFFFFFFFFFFFFFFFFFFFFFFFFFFFFFFFFFFFFFF AND PUSH20 0xFFFFFFFFFFFFFFFFFFFFFFFFFFFFFFFFFFFFFFFF AND DUP2 MSTORE PUSH1 0x20 ADD PUSH1 0x2 DUP3 ADD DUP1 SLOAD PUSH2 0x2D28 SWAP1 PUSH2 0x4584 JUMP JUMPDEST DUP1 PUSH1 0x1F ADD PUSH1 0x20 DUP1 SWAP2 DIV MUL PUSH1 0x20 ADD PUSH1 0x40 MLOAD SWAP1 DUP2 ADD PUSH1 0x40 MSTORE DUP1 SWAP3 SWAP2 SWAP1 DUP2 DUP2 MSTORE PUSH1 0x20 ADD DUP3 DUP1 SLOAD PUSH2 0x2D54 SWAP1 PUSH2 0x4584 JUMP JUMPDEST DUP1 ISZERO PUSH2 0x2DA1 JUMPI DUP1 PUSH1 0x1F LT PUSH2 0x2D76 JUMPI PUSH2 0x100 DUP1 DUP4 SLOAD DIV MUL DUP4 MSTORE SWAP2 PUSH1 0x20 ADD SWAP2 PUSH2 0x2DA1 JUMP JUMPDEST DUP3 ADD SWAP2 SWAP1 PUSH1 0x0 MSTORE PUSH1 0x20 PUSH1 0x0 KECCAK256 SWAP1 JUMPDEST DUP2 SLOAD DUP2 MSTORE SWAP1 PUSH1 0x1 ADD SWAP1 PUSH1 0x20 ADD DUP1 DUP4 GT PUSH2 0x2D84 JUMPI DUP3 SWAP1 SUB PUSH1 0x1F AND DUP3 ADD SWAP2 JUMPDEST POP POP POP POP POP DUP2 MSTORE PUSH1 0x20 ADD PUSH1 0x3 DUP3 ADD SLOAD DUP2 MSTORE PUSH1 0x20 ADD PUSH1 0x4 DUP3 ADD PUSH1 0x0 SWAP1 SLOAD SWAP1 PUSH2 0x100 EXP SWAP1 DIV PUSH1 0xFF AND ISZERO ISZERO ISZERO ISZERO DUP2 MSTORE POP POP DUP2 MSTORE PUSH1 0x20 ADD PUSH1 0x14 DUP3 ADD PUSH1 0x40 MLOAD DUP1 PUSH1 0xC0 ADD PUSH1 0x40 MSTORE SWAP1 DUP2 PUSH1 0x0 DUP3 ADD DUP1 SLOAD PUSH2 0x2DF3 SWAP1 PUSH2 0x4584 JUMP JUMPDEST DUP1 PUSH1 0x1F ADD PUSH1 0x20 DUP1 SWAP2 DIV MUL PUSH1 0x20 ADD PUSH1 0x40 MLOAD SWAP1 DUP2 ADD PUSH1 0x40 MSTORE DUP1 SWAP3 SWAP2 SWAP1 DUP2 DUP2 MSTORE PUSH1 0x20 ADD DUP3 DUP1 SLOAD PUSH2 0x2E1F SWAP1 PUSH2 0x4584 JUMP JUMPDEST DUP1 ISZERO PUSH2 0x2E6C JUMPI DUP1 PUSH1 0x1F LT PUSH2 0x2E41 JUMPI PUSH2 0x100 DUP1 DUP4 SLOAD DIV MUL DUP4 MSTORE SWAP2 PUSH1 0x20 ADD SWAP2 PUSH2 0x2E6C JUMP JUMPDEST DUP3 ADD SWAP2 SWAP1 PUSH1 0x0 MSTORE PUSH1 0x20 PUSH1 0x0 KECCAK256 SWAP1 JUMPDEST DUP2 SLOAD DUP2 MSTORE SWAP1 PUSH1 0x1 ADD SWAP1 PUSH1 0x20 ADD DUP1 DUP4 GT PUSH2 0x2E4F JUMPI DUP3 SWAP1 SUB PUSH1 0x1F AND DUP3 ADD SWAP2 JUMPDEST POP POP POP POP POP DUP2 MSTORE PUSH1 0x20 ADD PUSH1 0x1 DUP3 ADD PUSH1 0x0 SWAP1 SLOAD SWAP1 PUSH2 0x100 EXP SWAP1 DIV PUSH20 0xFFFFFFFFFFFFFFFFFFFFFFFFFFFFFFFFFFFFFFFF AND PUSH20 0xFFFFFFFFFFFFFFFFFFFFFFFFFFFFFFFFFFFFFFFF AND PUSH20 0xFFFFFFFFFFFFFFFFFFFFFFFFFFFFFFFFFFFFFFFF AND DUP2 MSTORE PUSH1 0x20 ADD PUSH1 0x2 DUP3 ADD DUP1 SLOAD PUSH2 0x2EDB SWAP1 PUSH2 0x4584 JUMP JUMPDEST DUP1 PUSH1 0x1F ADD PUSH1 0x20 DUP1 SWAP2 DIV MUL PUSH1 0x20 ADD PUSH1 0x40 MLOAD SWAP1 DUP2 ADD PUSH1 0x40 MSTORE DUP1 SWAP3 SWAP2 SWAP1 DUP2 DUP2 MSTORE PUSH1 0x20 ADD DUP3 DUP1 SLOAD PUSH2 0x2F07 SWAP1 PUSH2 0x4584 JUMP JUMPDEST DUP1 ISZERO PUSH2 0x2F54 JUMPI DUP1 PUSH1 0x1F LT PUSH2 0x2F29 JUMPI PUSH2 0x100 DUP1 DUP4 SLOAD DIV MUL DUP4 MSTORE SWAP2 PUSH1 0x20 ADD SWAP2 PUSH2 0x2F54 JUMP JUMPDEST DUP3 ADD SWAP2 SWAP1 PUSH1 0x0 MSTORE PUSH1 0x20 PUSH1 0x0 KECCAK256 SWAP1 JUMPDEST DUP2 SLOAD DUP2 MSTORE SWAP1 PUSH1 0x1 ADD SWAP1 PUSH1 0x20 ADD DUP1 DUP4 GT PUSH2 0x2F37 JUMPI DUP3 SWAP1 SUB PUSH1 0x1F AND DUP3 ADD SWAP2 JUMPDEST POP POP POP POP POP DUP2 MSTORE PUSH1 0x20 ADD PUSH1 0x3 DUP3 ADD SLOAD DUP2 MSTORE PUSH1 0x20 ADD PUSH1 0x4 DUP3 ADD PUSH1 0x0 SWAP1 SLOAD SWAP1 PUSH2 0x100 EXP SWAP1 DIV PUSH4 0xFFFFFFFF AND PUSH4 0xFFFFFFFF AND PUSH4 0xFFFFFFFF AND DUP2 MSTORE PUSH1 0x20 ADD PUSH1 0x4 DUP3 ADD PUSH1 0x4 SWAP1 SLOAD SWAP1 PUSH2 0x100 EXP SWAP1 DIV PUSH1 0xFF AND ISZERO ISZERO ISZERO ISZERO DUP2 MSTORE POP POP DUP2 MSTORE PUSH1 0x20 ADD PUSH1 0x19 DUP3 ADD PUSH1 0x40 MLOAD DUP1 PUSH1 0xA0 ADD PUSH1 0x40 MSTORE SWAP1 DUP2 PUSH1 0x0 DUP3 ADD DUP1 SLOAD PUSH2 0x2FCC SWAP1 PUSH2 0x4584 JUMP JUMPDEST DUP1 PUSH1 0x1F ADD PUSH1 0x20 DUP1 SWAP2 DIV MUL PUSH1 0x20 ADD PUSH1 0x40 MLOAD SWAP1 DUP2 ADD PUSH1 0x40 MSTORE DUP1 SWAP3 SWAP2 SWAP1 DUP2 DUP2 MSTORE PUSH1 0x20 ADD DUP3 DUP1 SLOAD PUSH2 0x2FF8 SWAP1 PUSH2 0x4584 JUMP JUMPDEST DUP1 ISZERO PUSH2 0x3045 JUMPI DUP1 PUSH1 0x1F LT PUSH2 0x301A JUMPI PUSH2 0x100 DUP1 DUP4 SLOAD DIV MUL DUP4 MSTORE SWAP2 PUSH1 0x20 ADD SWAP2 PUSH2 0x3045 JUMP JUMPDEST DUP3 ADD SWAP2 SWAP1 PUSH1 0x0 MSTORE PUSH1 0x20 PUSH1 0x0 KECCAK256 SWAP1 JUMPDEST DUP2 SLOAD DUP2 MSTORE SWAP1 PUSH1 0x1 ADD SWAP1 PUSH1 0x20 ADD DUP1 DUP4 GT PUSH2 0x3028 JUMPI DUP3 SWAP1 SUB PUSH1 0x1F AND DUP3 ADD SWAP2 JUMPDEST POP POP POP POP POP DUP2 MSTORE PUSH1 0x20 ADD PUSH1 0x1 DUP3 ADD PUSH1 0x0 SWAP1 SLOAD SWAP1 PUSH2 0x100 EXP SWAP1 DIV PUSH20 0xFFFFFFFFFFFFFFFFFFFFFFFFFFFFFFFFFFFFFFFF AND PUSH20 0xFFFFFFFFFFFFFFFFFFFFFFFFFFFFFFFFFFFFFFFF AND PUSH20 0xFFFFFFFFFFFFFFFFFFFFFFFFFFFFFFFFFFFFFFFF AND DUP2 MSTORE PUSH1 0x20 ADD PUSH1 0x2 DUP3 ADD DUP1 SLOAD PUSH2 0x30B4 SWAP1 PUSH2 0x4584 JUMP JUMPDEST DUP1 PUSH1 0x1F ADD PUSH1 0x20 DUP1 SWAP2 DIV MUL PUSH1 0x20 ADD PUSH1 0x40 MLOAD SWAP1 DUP2 ADD PUSH1 0x40 MSTORE DUP1 SWAP3 SWAP2 SWAP1 DUP2 DUP2 MSTORE PUSH1 0x20 ADD DUP3 DUP1 SLOAD PUSH2 0x30E0 SWAP1 PUSH2 0x4584 JUMP JUMPDEST DUP1 ISZERO PUSH2 0x312D JUMPI DUP1 PUSH1 0x1F LT PUSH2 0x3102 JUMPI PUSH2 0x100 DUP1 DUP4 SLOAD DIV MUL DUP4 MSTORE SWAP2 PUSH1 0x20 ADD SWAP2 PUSH2 0x312D JUMP JUMPDEST DUP3 ADD SWAP2 SWAP1 PUSH1 0x0 MSTORE PUSH1 0x20 PUSH1 0x0 KECCAK256 SWAP1 JUMPDEST DUP2 SLOAD DUP2 MSTORE SWAP1 PUSH1 0x1 ADD SWAP1 PUSH1 0x20 ADD DUP1 DUP4 GT PUSH2 0x3110 JUMPI DUP3 SWAP1 SUB PUSH1 0x1F AND DUP3 ADD SWAP2 JUMPDEST POP POP POP POP POP DUP2 MSTORE PUSH1 0x20 ADD PUSH1 0x3 DUP3 ADD SLOAD DUP2 MSTORE PUSH1 0x20 ADD PUSH1 0x4 DUP3 ADD PUSH1 0x0 SWAP1 SLOAD SWAP1 PUSH2 0x100 EXP SWAP1 DIV PUSH1 0xFF AND ISZERO ISZERO ISZERO ISZERO DUP2 MSTORE POP POP DUP2 MSTORE POP POP DUP3 DUP3 DUP2 MLOAD DUP2 LT PUSH2 0x3198 JUMPI PUSH32 0x4E487B7100000000000000000000000000000000000000000000000000000000 PUSH1 0x0 MSTORE PUSH1 0x32 PUSH1 0x4 MSTORE PUSH1 0x24 PUSH1 0x0 REVERT JUMPDEST PUSH1 0x20 MUL PUSH1 0x20 ADD ADD DUP2 SWAP1 MSTORE POP DUP1 DUP1 PUSH2 0x31AE SWAP1 PUSH2 0x45E7 JUMP JUMPDEST SWAP2 POP POP PUSH2 0x266B JUMP JUMPDEST POP DUP1 SWAP3 POP POP POP SWAP2 SWAP1 POP JUMP JUMPDEST PUSH1 0x0 DUP1 NUMBER TIMESTAMP CALLER PUSH1 0x40 MLOAD PUSH1 0x20 ADD PUSH2 0x31D7 SWAP2 SWAP1 PUSH2 0x41D7 JUMP JUMPDEST PUSH1 0x40 MLOAD PUSH1 0x20 DUP2 DUP4 SUB SUB DUP2 MSTORE SWAP1 PUSH1 0x40 MSTORE DUP1 MLOAD SWAP1 PUSH1 0x20 ADD KECCAK256 PUSH1 0x0 SHR PUSH2 0x31FA SWAP2 SWAP1 PUSH2 0x440C JUMP JUMPDEST GASLIMIT TIMESTAMP COINBASE PUSH1 0x40 MLOAD PUSH1 0x20 ADD PUSH2 0x320D SWAP2 SWAP1 PUSH2 0x41F2 JUMP JUMPDEST PUSH1 0x40 MLOAD PUSH1 0x20 DUP2 DUP4 SUB SUB DUP2 MSTORE SWAP1 PUSH1 0x40 MSTORE DUP1 MLOAD SWAP1 PUSH1 0x20 ADD KECCAK256 PUSH1 0x0 SHR PUSH2 0x3230 SWAP2 SWAP1 PUSH2 0x440C JUMP JUMPDEST DIFFICULTY TIMESTAMP PUSH2 0x323C SWAP2 SWAP1 PUSH2 0x43B6 JUMP JUMPDEST PUSH2 0x3246 SWAP2 SWAP1 PUSH2 0x43B6 JUMP JUMPDEST PUSH2 0x3250 SWAP2 SWAP1 PUSH2 0x43B6 JUMP JUMPDEST PUSH2 0x325A SWAP2 SWAP1 PUSH2 0x43B6 JUMP JUMPDEST PUSH2 0x3264 SWAP2 SWAP1 PUSH2 0x43B6 JUMP JUMPDEST PUSH1 0x40 MLOAD PUSH1 0x20 ADD PUSH2 0x3274 SWAP2 SWAP1 PUSH2 0x420D JUMP JUMPDEST PUSH1 0x40 MLOAD PUSH1 0x20 DUP2 DUP4 SUB SUB DUP2 MSTORE SWAP1 PUSH1 0x40 MSTORE DUP1 MLOAD SWAP1 PUSH1 0x20 ADD KECCAK256 PUSH1 0x0 SHR SWAP1 POP PUSH2 0x3E8 DUP1 DUP3 PUSH2 0x329E SWAP2 SWAP1 PUSH2 0x440C JUMP JUMPDEST PUSH2 0x32A8 SWAP2 SWAP1 PUSH2 0x443D JUMP JUMPDEST DUP2 PUSH2 0x32B3 SWAP2 SWAP1 PUSH2 0x4497 JUMP JUMPDEST SWAP2 POP POP SWAP1 JUMP JUMPDEST PUSH1 0x40 MLOAD DUP1 PUSH1 0xC0 ADD PUSH1 0x40 MSTORE DUP1 PUSH1 0x0 DUP2 MSTORE PUSH1 0x20 ADD PUSH2 0x32D3 PUSH2 0x3393 JUMP JUMPDEST DUP2 MSTORE PUSH1 0x20 ADD PUSH2 0x32E0 PUSH2 0x33F3 JUMP JUMPDEST DUP2 MSTORE PUSH1 0x20 ADD PUSH2 0x32ED PUSH2 0x3448 JUMP JUMPDEST DUP2 MSTORE PUSH1 0x20 ADD PUSH2 0x32FA PUSH2 0x348F JUMP JUMPDEST DUP2 MSTORE PUSH1 0x20 ADD PUSH2 0x3307 PUSH2 0x34E3 JUMP JUMPDEST DUP2 MSTORE POP SWAP1 JUMP JUMPDEST DUP3 DUP1 SLOAD PUSH2 0x3319 SWAP1 PUSH2 0x4584 JUMP JUMPDEST SWAP1 PUSH1 0x0 MSTORE PUSH1 0x20 PUSH1 0x0 KECCAK256 SWAP1 PUSH1 0x1F ADD PUSH1 0x20 SWAP1 DIV DUP2 ADD SWAP3 DUP3 PUSH2 0x333B JUMPI PUSH1 0x0 DUP6 SSTORE PUSH2 0x3382 JUMP JUMPDEST DUP3 PUSH1 0x1F LT PUSH2 0x3354 JUMPI DUP1 MLOAD PUSH1 0xFF NOT AND DUP4 DUP1 ADD OR DUP6 SSTORE PUSH2 0x3382 JUMP JUMPDEST DUP3 DUP1 ADD PUSH1 0x1 ADD DUP6 SSTORE DUP3 ISZERO PUSH2 0x3382 JUMPI SWAP2 DUP3 ADD JUMPDEST DUP3 DUP2 GT ISZERO PUSH2 0x3381 JUMPI DUP3 MLOAD DUP3 SSTORE SWAP2 PUSH1 0x20 ADD SWAP2 SWAP1 PUSH1 0x1 ADD SWAP1 PUSH2 0x3366 JUMP JUMPDEST JUMPDEST POP SWAP1 POP PUSH2 0x338F SWAP2 SWAP1 PUSH2 0x352A JUMP JUMPDEST POP SWAP1 JUMP JUMPDEST PUSH1 0x40 MLOAD DUP1 PUSH2 0x100 ADD PUSH1 0x40 MSTORE DUP1 PUSH1 0x60 DUP2 MSTORE PUSH1 0x20 ADD PUSH1 0x0 PUSH20 0xFFFFFFFFFFFFFFFFFFFFFFFFFFFFFFFFFFFFFFFF AND DUP2 MSTORE PUSH1 0x20 ADD PUSH1 0x60 DUP2 MSTORE PUSH1 0x20 ADD PUSH1 0x60 DUP2 MSTORE PUSH1 0x20 ADD PUSH1 0x60 DUP2 MSTORE PUSH1 0x20 ADD PUSH1 0x0 DUP2 MSTORE PUSH1 0x20 ADD PUSH1 0x0 PUSH1 0xFF AND DUP2 MSTORE PUSH1 0x20 ADD PUSH1 0x0 ISZERO ISZERO DUP2 MSTORE POP SWAP1 JUMP JUMPDEST PUSH1 0x40 MLOAD DUP1 PUSH1 0xE0 ADD PUSH1 0x40 MSTORE DUP1 PUSH1 0x60 DUP2 MSTORE PUSH1 0x20 ADD PUSH1 0x0 PUSH20 0xFFFFFFFFFFFFFFFFFFFFFFFFFFFFFFFFFFFFFFFF AND DUP2 MSTORE PUSH1 0x20 ADD PUSH1 0x60 DUP2 MSTORE PUSH1 0x20 ADD PUSH1 0x60 DUP2 MSTORE PUSH1 0x20 ADD PUSH1 0x0 DUP2 MSTORE PUSH1 0x20 ADD PUSH1 0x0 DUP2 MSTORE PUSH1 0x20 ADD PUSH1 0x0 ISZERO ISZERO DUP2 MSTORE POP SWAP1 JUMP JUMPDEST PUSH1 0x40 MLOAD DUP1 PUSH1 0xA0 ADD PUSH1 0x40 MSTORE DUP1 PUSH1 0x60 DUP2 MSTORE PUSH1 0x20 ADD PUSH1 0x0 PUSH20 0xFFFFFFFFFFFFFFFFFFFFFFFFFFFFFFFFFFFFFFFF AND DUP2 MSTORE PUSH1 0x20 ADD PUSH1 0x60 DUP2 MSTORE PUSH1 0x20 ADD PUSH1 0x0 DUP2 MSTORE PUSH1 0x20 ADD PUSH1 0x0 ISZERO ISZERO DUP2 MSTORE POP SWAP1 JUMP JUMPDEST PUSH1 0x40 MLOAD DUP1 PUSH1 0xC0 ADD PUSH1 0x40 MSTORE DUP1 PUSH1 0x60 DUP2 MSTORE PUSH1 0x20 ADD PUSH1 0x0 PUSH20 0xFFFFFFFFFFFFFFFFFFFFFFFFFFFFFFFFFFFFFFFF AND DUP2 MSTORE PUSH1 0x20 ADD PUSH1 0x60 DUP2 MSTORE PUSH1 0x20 ADD PUSH1 0x0 DUP2 MSTORE PUSH1 0x20 ADD PUSH1 0x0 PUSH4 0xFFFFFFFF AND DUP2 MSTORE PUSH1 0x20 ADD PUSH1 0x0 ISZERO ISZERO DUP2 MSTORE POP SWAP1 JUMP JUMPDEST PUSH1 0x40 MLOAD DUP1 PUSH1 0xA0 ADD PUSH1 0x40 MSTORE DUP1 PUSH1 0x60 DUP2 MSTORE PUSH1 0x20 ADD PUSH1 0x0 PUSH20 0xFFFFFFFFFFFFFFFFFFFFFFFFFFFFFFFFFFFFFFFF AND DUP2 MSTORE PUSH1 0x20 ADD PUSH1 0x60 DUP2 MSTORE PUSH1 0x20 ADD PUSH1 0x0 DUP2 MSTORE PUSH1 0x20 ADD PUSH1 0x0 ISZERO ISZERO DUP2 MSTORE POP SWAP1 JUMP JUMPDEST JUMPDEST DUP1 DUP3 GT ISZERO PUSH2 0x3543 JUMPI PUSH1 0x0 DUP2 PUSH1 0x0 SWAP1 SSTORE POP PUSH1 0x1 ADD PUSH2 0x352B JUMP JUMPDEST POP SWAP1 JUMP JUMPDEST PUSH1 0x0 PUSH2 0x355A PUSH2 0x3555 DUP5 PUSH2 0x4330 JUMP JUMPDEST PUSH2 0x430B JUMP JUMPDEST SWAP1 POP DUP3 DUP2 MSTORE PUSH1 0x20 DUP2 ADD DUP5 DUP5 DUP5 ADD GT ISZERO PUSH2 0x3572 JUMPI PUSH1 0x0 DUP1 REVERT JUMPDEST PUSH2 0x357D DUP5 DUP3 DUP6 PUSH2 0x4542 JUMP JUMPDEST POP SWAP4 SWAP3 POP POP POP JUMP JUMPDEST PUSH1 0x0 DUP2 CALLDATALOAD SWAP1 POP PUSH2 0x3594 DUP2 PUSH2 0x474A JUMP JUMPDEST SWAP3 SWAP2 POP POP JUMP JUMPDEST PUSH1 0x0 DUP3 PUSH1 0x1F DUP4 ADD SLT PUSH2 0x35AB JUMPI PUSH1 0x0 DUP1 REVERT JUMPDEST DUP2 CALLDATALOAD PUSH2 0x35BB DUP5 DUP3 PUSH1 0x20 DUP7 ADD PUSH2 0x3547 JUMP JUMPDEST SWAP2 POP POP SWAP3 SWAP2 POP POP JUMP JUMPDEST PUSH1 0x0 DUP2 CALLDATALOAD SWAP1 POP PUSH2 0x35D3 DUP2 PUSH2 0x4761 JUMP JUMPDEST SWAP3 SWAP2 POP POP JUMP JUMPDEST PUSH1 0x0 DUP2 CALLDATALOAD SWAP1 POP PUSH2 0x35E8 DUP2 PUSH2 0x4778 JUMP JUMPDEST SWAP3 SWAP2 POP POP JUMP JUMPDEST PUSH1 0x0 DUP2 CALLDATALOAD SWAP1 POP PUSH2 0x35FD DUP2 PUSH2 0x478F JUMP JUMPDEST SWAP3 SWAP2 POP POP JUMP JUMPDEST PUSH1 0x0 PUSH1 0x20 DUP3 DUP5 SUB SLT ISZERO PUSH2 0x3615 JUMPI PUSH1 0x0 DUP1 REVERT JUMPDEST PUSH1 0x0 PUSH2 0x3623 DUP5 DUP3 DUP6 ADD PUSH2 0x3585 JUMP JUMPDEST SWAP2 POP POP SWAP3 SWAP2 POP POP JUMP JUMPDEST PUSH1 0x0 DUP1 PUSH1 0x40 DUP4 DUP6 SUB SLT ISZERO PUSH2 0x363F JUMPI PUSH1 0x0 DUP1 REVERT JUMPDEST PUSH1 0x0 PUSH2 0x364D DUP6 DUP3 DUP7 ADD PUSH2 0x3585 JUMP JUMPDEST SWAP3 POP POP PUSH1 0x20 PUSH2 0x365E DUP6 DUP3 DUP7 ADD PUSH2 0x35C4 JUMP JUMPDEST SWAP2 POP POP SWAP3 POP SWAP3 SWAP1 POP JUMP JUMPDEST PUSH1 0x0 PUSH1 0x20 DUP3 DUP5 SUB SLT ISZERO PUSH2 0x367A JUMPI PUSH1 0x0 DUP1 REVERT JUMPDEST PUSH1 0x0 PUSH2 0x3688 DUP5 DUP3 DUP6 ADD PUSH2 0x35C4 JUMP JUMPDEST SWAP2 POP POP SWAP3 SWAP2 POP POP JUMP JUMPDEST PUSH1 0x0 DUP1 PUSH1 0x0 DUP1 PUSH1 0x0 DUP1 PUSH1 0x0 PUSH1 0xE0 DUP9 DUP11 SUB SLT ISZERO PUSH2 0x36AC JUMPI PUSH1 0x0 DUP1 REVERT JUMPDEST PUSH1 0x0 PUSH2 0x36BA DUP11 DUP3 DUP12 ADD PUSH2 0x35C4 JUMP JUMPDEST SWAP8 POP POP PUSH1 0x20 PUSH2 0x36CB DUP11 DUP3 DUP12 ADD PUSH2 0x3585 JUMP JUMPDEST SWAP7 POP POP PUSH1 0x40 DUP9 ADD CALLDATALOAD PUSH8 0xFFFFFFFFFFFFFFFF DUP2 GT ISZERO PUSH2 0x36E8 JUMPI PUSH1 0x0 DUP1 REVERT JUMPDEST PUSH2 0x36F4 DUP11 DUP3 DUP12 ADD PUSH2 0x359A JUMP JUMPDEST SWAP6 POP POP PUSH1 0x60 DUP9 ADD CALLDATALOAD PUSH8 0xFFFFFFFFFFFFFFFF DUP2 GT ISZERO PUSH2 0x3711 JUMPI PUSH1 0x0 DUP1 REVERT JUMPDEST PUSH2 0x371D DUP11 DUP3 DUP12 ADD PUSH2 0x359A JUMP JUMPDEST SWAP5 POP POP PUSH1 0x80 DUP9 ADD CALLDATALOAD PUSH8 0xFFFFFFFFFFFFFFFF DUP2 GT ISZERO PUSH2 0x373A JUMPI PUSH1 0x0 DUP1 REVERT JUMPDEST PUSH2 0x3746 DUP11 DUP3 DUP12 ADD PUSH2 0x359A JUMP JUMPDEST SWAP4 POP POP PUSH1 0xA0 PUSH2 0x3757 DUP11 DUP3 DUP12 ADD PUSH2 0x35C4 JUMP JUMPDEST SWAP3 POP POP PUSH1 0xC0 PUSH2 0x3768 DUP11 DUP3 DUP12 ADD PUSH2 0x35EE JUMP JUMPDEST SWAP2 POP POP SWAP3 SWAP6 SWAP9 SWAP2 SWAP5 SWAP8 POP SWAP3 SWAP6 POP JUMP JUMPDEST PUSH1 0x0 DUP1 PUSH1 0x0 DUP1 PUSH1 0x0 DUP1 PUSH1 0xC0 DUP8 DUP10 SUB SLT ISZERO PUSH2 0x3790 JUMPI PUSH1 0x0 DUP1 REVERT JUMPDEST PUSH1 0x0 PUSH2 0x379E DUP10 DUP3 DUP11 ADD PUSH2 0x35C4 JUMP JUMPDEST SWAP7 POP POP PUSH1 0x20 PUSH2 0x37AF DUP10 DUP3 DUP11 ADD PUSH2 0x3585 JUMP JUMPDEST SWAP6 POP POP PUSH1 0x40 DUP8 ADD CALLDATALOAD PUSH8 0xFFFFFFFFFFFFFFFF DUP2 GT ISZERO PUSH2 0x37CC JUMPI PUSH1 0x0 DUP1 REVERT JUMPDEST PUSH2 0x37D8 DUP10 DUP3 DUP11 ADD PUSH2 0x359A JUMP JUMPDEST SWAP5 POP POP PUSH1 0x60 DUP8 ADD CALLDATALOAD PUSH8 0xFFFFFFFFFFFFFFFF DUP2 GT ISZERO PUSH2 0x37F5 JUMPI PUSH1 0x0 DUP1 REVERT JUMPDEST PUSH2 0x3801 DUP10 DUP3 DUP11 ADD PUSH2 0x359A JUMP JUMPDEST SWAP4 POP POP PUSH1 0x80 PUSH2 0x3812 DUP10 DUP3 DUP11 ADD PUSH2 0x35C4 JUMP JUMPDEST SWAP3 POP POP PUSH1 0xA0 PUSH2 0x3823 DUP10 DUP3 DUP11 ADD PUSH2 0x35C4 JUMP JUMPDEST SWAP2 POP POP SWAP3 SWAP6 POP SWAP3 SWAP6 POP SWAP3 SWAP6 JUMP JUMPDEST PUSH1 0x0 DUP1 PUSH1 0x0 DUP1 PUSH1 0x80 DUP6 DUP8 SUB SLT ISZERO PUSH2 0x3846 JUMPI PUSH1 0x0 DUP1 REVERT JUMPDEST PUSH1 0x0 PUSH2 0x3854 DUP8 DUP3 DUP9 ADD PUSH2 0x35C4 JUMP JUMPDEST SWAP5 POP POP PUSH1 0x20 PUSH2 0x3865 DUP8 DUP3 DUP9 ADD PUSH2 0x3585 JUMP JUMPDEST SWAP4 POP POP PUSH1 0x40 DUP6 ADD CALLDATALOAD PUSH8 0xFFFFFFFFFFFFFFFF DUP2 GT ISZERO PUSH2 0x3882 JUMPI PUSH1 0x0 DUP1 REVERT JUMPDEST PUSH2 0x388E DUP8 DUP3 DUP9 ADD PUSH2 0x359A JUMP JUMPDEST SWAP3 POP POP PUSH1 0x60 PUSH2 0x389F DUP8 DUP3 DUP9 ADD PUSH2 0x35C4 JUMP JUMPDEST SWAP2 POP POP SWAP3 SWAP6 SWAP2 SWAP5 POP SWAP3 POP JUMP JUMPDEST PUSH1 0x0 DUP1 PUSH1 0x0 DUP1 PUSH1 0x0 PUSH1 0xA0 DUP7 DUP9 SUB SLT ISZERO PUSH2 0x38C3 JUMPI PUSH1 0x0 DUP1 REVERT JUMPDEST PUSH1 0x0 PUSH2 0x38D1 DUP9 DUP3 DUP10 ADD PUSH2 0x35C4 JUMP JUMPDEST SWAP6 POP POP PUSH1 0x20 PUSH2 0x38E2 DUP9 DUP3 DUP10 ADD PUSH2 0x3585 JUMP JUMPDEST SWAP5 POP POP PUSH1 0x40 DUP7 ADD CALLDATALOAD PUSH8 0xFFFFFFFFFFFFFFFF DUP2 GT ISZERO PUSH2 0x38FF JUMPI PUSH1 0x0 DUP1 REVERT JUMPDEST PUSH2 0x390B DUP9 DUP3 DUP10 ADD PUSH2 0x359A JUMP JUMPDEST SWAP4 POP POP PUSH1 0x60 PUSH2 0x391C DUP9 DUP3 DUP10 ADD PUSH2 0x35C4 JUMP JUMPDEST SWAP3 POP POP PUSH1 0x80 PUSH2 0x392D DUP9 DUP3 DUP10 ADD PUSH2 0x35D9 JUMP JUMPDEST SWAP2 POP POP SWAP3 SWAP6 POP SWAP3 SWAP6 SWAP1 SWAP4 POP JUMP JUMPDEST PUSH1 0x0 PUSH2 0x3946 DUP4 DUP4 PUSH2 0x3F40 JUMP JUMPDEST SWAP1 POP SWAP3 SWAP2 POP POP JUMP JUMPDEST PUSH2 0x395F PUSH2 0x395A DUP3 PUSH2 0x44DD JUMP JUMPDEST PUSH2 0x4642 JUMP JUMPDEST DUP3 MSTORE POP POP JUMP JUMPDEST PUSH2 0x396E DUP2 PUSH2 0x44CB JUMP JUMPDEST DUP3 MSTORE POP POP JUMP JUMPDEST PUSH2 0x3985 PUSH2 0x3980 DUP3 PUSH2 0x44CB JUMP JUMPDEST PUSH2 0x4630 JUMP JUMPDEST DUP3 MSTORE POP POP JUMP JUMPDEST PUSH1 0x0 PUSH2 0x3996 DUP3 PUSH2 0x4371 JUMP JUMPDEST PUSH2 0x39A0 DUP2 DUP6 PUSH2 0x4394 JUMP JUMPDEST SWAP4 POP DUP4 PUSH1 0x20 DUP3 MUL DUP6 ADD PUSH2 0x39B2 DUP6 PUSH2 0x4361 JUMP JUMPDEST DUP1 PUSH1 0x0 JUMPDEST DUP6 DUP2 LT ISZERO PUSH2 0x39EE JUMPI DUP5 DUP5 SUB DUP10 MSTORE DUP2 MLOAD PUSH2 0x39CF DUP6 DUP3 PUSH2 0x393A JUMP JUMPDEST SWAP5 POP PUSH2 0x39DA DUP4 PUSH2 0x4387 JUMP JUMPDEST SWAP3 POP PUSH1 0x20 DUP11 ADD SWAP10 POP POP PUSH1 0x1 DUP2 ADD SWAP1 POP PUSH2 0x39B6 JUMP JUMPDEST POP DUP3 SWAP8 POP DUP8 SWAP6 POP POP POP POP POP POP SWAP3 SWAP2 POP POP JUMP JUMPDEST PUSH2 0x3A09 DUP2 PUSH2 0x44EF JUMP JUMPDEST DUP3 MSTORE POP POP JUMP JUMPDEST PUSH1 0x0 PUSH2 0x3A1A DUP3 PUSH2 0x437C JUMP JUMPDEST PUSH2 0x3A24 DUP2 DUP6 PUSH2 0x43A5 JUMP JUMPDEST SWAP4 POP PUSH2 0x3A34 DUP2 DUP6 PUSH1 0x20 DUP7 ADD PUSH2 0x4551 JUMP JUMPDEST PUSH2 0x3A3D DUP2 PUSH2 0x472C JUMP JUMPDEST DUP5 ADD SWAP2 POP POP SWAP3 SWAP2 POP POP JUMP JUMPDEST PUSH1 0x0 PUSH1 0xC0 DUP4 ADD PUSH1 0x0 DUP4 ADD MLOAD DUP5 DUP3 SUB PUSH1 0x0 DUP7 ADD MSTORE PUSH2 0x3A65 DUP3 DUP3 PUSH2 0x3A0F JUMP JUMPDEST SWAP2 POP POP PUSH1 0x20 DUP4 ADD MLOAD PUSH2 0x3A7A PUSH1 0x20 DUP7 ADD DUP3 PUSH2 0x3965 JUMP JUMPDEST POP PUSH1 0x40 DUP4 ADD MLOAD DUP5 DUP3 SUB PUSH1 0x40 DUP7 ADD MSTORE PUSH2 0x3A92 DUP3 DUP3 PUSH2 0x3A0F JUMP JUMPDEST SWAP2 POP POP PUSH1 0x60 DUP4 ADD MLOAD PUSH2 0x3AA7 PUSH1 0x60 DUP7 ADD DUP3 PUSH2 0x4184 JUMP JUMPDEST POP PUSH1 0x80 DUP4 ADD MLOAD PUSH2 0x3ABA PUSH1 0x80 DUP7 ADD DUP3 PUSH2 0x41B9 JUMP JUMPDEST POP PUSH1 0xA0 DUP4 ADD MLOAD PUSH2 0x3ACD PUSH1 0xA0 DUP7 ADD DUP3 PUSH2 0x3A00 JUMP JUMPDEST POP DUP1 SWAP2 POP POP SWAP3 SWAP2 POP POP JUMP JUMPDEST PUSH1 0x0 PUSH1 0xC0 DUP4 ADD PUSH1 0x0 DUP4 ADD MLOAD DUP5 DUP3 SUB PUSH1 0x0 DUP7 ADD MSTORE PUSH2 0x3AF5 DUP3 DUP3 PUSH2 0x3A0F JUMP JUMPDEST SWAP2 POP POP PUSH1 0x20 DUP4 ADD MLOAD PUSH2 0x3B0A PUSH1 0x20 DUP7 ADD DUP3 PUSH2 0x3965 JUMP JUMPDEST POP PUSH1 0x40 DUP4 ADD MLOAD DUP5 DUP3 SUB PUSH1 0x40 DUP7 ADD MSTORE PUSH2 0x3B22 DUP3 DUP3 PUSH2 0x3A0F JUMP JUMPDEST SWAP2 POP POP PUSH1 0x60 DUP4 ADD MLOAD PUSH2 0x3B37 PUSH1 0x60 DUP7 ADD DUP3 PUSH2 0x4184 JUMP JUMPDEST POP PUSH1 0x80 DUP4 ADD MLOAD PUSH2 0x3B4A PUSH1 0x80 DUP7 ADD DUP3 PUSH2 0x41B9 JUMP JUMPDEST POP PUSH1 0xA0 DUP4 ADD MLOAD PUSH2 0x3B5D PUSH1 0xA0 DUP7 ADD DUP3 PUSH2 0x3A00 JUMP JUMPDEST POP DUP1 SWAP2 POP POP SWAP3 SWAP2 POP POP JUMP JUMPDEST PUSH1 0x0 PUSH2 0x100 DUP4 ADD PUSH1 0x0 DUP4 ADD MLOAD DUP5 DUP3 SUB PUSH1 0x0 DUP7 ADD MSTORE PUSH2 0x3B86 DUP3 DUP3 PUSH2 0x3A0F JUMP JUMPDEST SWAP2 POP POP PUSH1 0x20 DUP4 ADD MLOAD PUSH2 0x3B9B PUSH1 0x20 DUP7 ADD DUP3 PUSH2 0x3965 JUMP JUMPDEST POP PUSH1 0x40 DUP4 ADD MLOAD DUP5 DUP3 SUB PUSH1 0x40 DUP7 ADD MSTORE PUSH2 0x3BB3 DUP3 DUP3 PUSH2 0x3A0F JUMP JUMPDEST SWAP2 POP POP PUSH1 0x60 DUP4 ADD MLOAD DUP5 DUP3 SUB PUSH1 0x60 DUP7 ADD MSTORE PUSH2 0x3BCD DUP3 DUP3 PUSH2 0x3A0F JUMP JUMPDEST SWAP2 POP POP PUSH1 0x80 DUP4 ADD MLOAD DUP5 DUP3 SUB PUSH1 0x80 DUP7 ADD MSTORE PUSH2 0x3BE7 DUP3 DUP3 PUSH2 0x3A0F JUMP JUMPDEST SWAP2 POP POP PUSH1 0xA0 DUP4 ADD MLOAD PUSH2 0x3BFC PUSH1 0xA0 DUP7 ADD DUP3 PUSH2 0x4184 JUMP JUMPDEST POP PUSH1 0xC0 DUP4 ADD MLOAD PUSH2 0x3C0F PUSH1 0xC0 DUP7 ADD DUP3 PUSH2 0x41C8 JUMP JUMPDEST POP PUSH1 0xE0 DUP4 ADD MLOAD PUSH2 0x3C22 PUSH1 0xE0 DUP7 ADD DUP3 PUSH2 0x3A00 JUMP JUMPDEST POP DUP1 SWAP2 POP POP SWAP3 SWAP2 POP POP JUMP JUMPDEST PUSH1 0x0 PUSH2 0x100 DUP4 ADD PUSH1 0x0 DUP4 ADD MLOAD DUP5 DUP3 SUB PUSH1 0x0 DUP7 ADD MSTORE PUSH2 0x3C4B DUP3 DUP3 PUSH2 0x3A0F JUMP JUMPDEST SWAP2 POP POP PUSH1 0x20 DUP4 ADD MLOAD PUSH2 0x3C60 PUSH1 0x20 DUP7 ADD DUP3 PUSH2 0x3965 JUMP JUMPDEST POP PUSH1 0x40 DUP4 ADD MLOAD DUP5 DUP3 SUB PUSH1 0x40 DUP7 ADD MSTORE PUSH2 0x3C78 DUP3 DUP3 PUSH2 0x3A0F JUMP JUMPDEST SWAP2 POP POP PUSH1 0x60 DUP4 ADD MLOAD DUP5 DUP3 SUB PUSH1 0x60 DUP7 ADD MSTORE PUSH2 0x3C92 DUP3 DUP3 PUSH2 0x3A0F JUMP JUMPDEST SWAP2 POP POP PUSH1 0x80 DUP4 ADD MLOAD DUP5 DUP3 SUB PUSH1 0x80 DUP7 ADD MSTORE PUSH2 0x3CAC DUP3 DUP3 PUSH2 0x3A0F JUMP JUMPDEST SWAP2 POP POP PUSH1 0xA0 DUP4 ADD MLOAD PUSH2 0x3CC1 PUSH1 0xA0 DUP7 ADD DUP3 PUSH2 0x4184 JUMP JUMPDEST POP PUSH1 0xC0 DUP4 ADD MLOAD PUSH2 0x3CD4 PUSH1 0xC0 DUP7 ADD DUP3 PUSH2 0x41C8 JUMP JUMPDEST POP PUSH1 0xE0 DUP4 ADD MLOAD PUSH2 0x3CE7 PUSH1 0xE0 DUP7 ADD DUP3 PUSH2 0x3A00 JUMP JUMPDEST POP DUP1 SWAP2 POP POP SWAP3 SWAP2 POP POP JUMP JUMPDEST PUSH1 0x0 PUSH1 0xE0 DUP4 ADD PUSH1 0x0 DUP4 ADD MLOAD DUP5 DUP3 SUB PUSH1 0x0 DUP7 ADD MSTORE PUSH2 0x3D0F DUP3 DUP3 PUSH2 0x3A0F JUMP JUMPDEST SWAP2 POP POP PUSH1 0x20 DUP4 ADD MLOAD PUSH2 0x3D24 PUSH1 0x20 DUP7 ADD DUP3 PUSH2 0x3965 JUMP JUMPDEST POP PUSH1 0x40 DUP4 ADD MLOAD DUP5 DUP3 SUB PUSH1 0x40 DUP7 ADD MSTORE PUSH2 0x3D3C DUP3 DUP3 PUSH2 0x3A0F JUMP JUMPDEST SWAP2 POP POP PUSH1 0x60 DUP4 ADD MLOAD DUP5 DUP3 SUB PUSH1 0x60 DUP7 ADD MSTORE PUSH2 0x3D56 DUP3 DUP3 PUSH2 0x3A0F JUMP JUMPDEST SWAP2 POP POP PUSH1 0x80 DUP4 ADD MLOAD PUSH2 0x3D6B PUSH1 0x80 DUP7 ADD DUP3 PUSH2 0x4184 JUMP JUMPDEST POP PUSH1 0xA0 DUP4 ADD MLOAD PUSH2 0x3D7E PUSH1 0xA0 DUP7 ADD DUP3 PUSH2 0x4184 JUMP JUMPDEST POP PUSH1 0xC0 DUP4 ADD MLOAD PUSH2 0x3D91 PUSH1 0xC0 DUP7 ADD DUP3 PUSH2 0x3A00 JUMP JUMPDEST POP DUP1 SWAP2 POP POP SWAP3 SWAP2 POP POP JUMP JUMPDEST PUSH1 0x0 PUSH1 0xE0 DUP4 ADD PUSH1 0x0 DUP4 ADD MLOAD DUP5 DUP3 SUB PUSH1 0x0 DUP7 ADD MSTORE PUSH2 0x3DB9 DUP3 DUP3 PUSH2 0x3A0F JUMP JUMPDEST SWAP2 POP POP PUSH1 0x20 DUP4 ADD MLOAD PUSH2 0x3DCE PUSH1 0x20 DUP7 ADD DUP3 PUSH2 0x3965 JUMP JUMPDEST POP PUSH1 0x40 DUP4 ADD MLOAD DUP5 DUP3 SUB PUSH1 0x40 DUP7 ADD MSTORE PUSH2 0x3DE6 DUP3 DUP3 PUSH2 0x3A0F JUMP JUMPDEST SWAP2 POP POP PUSH1 0x60 DUP4 ADD MLOAD DUP5 DUP3 SUB PUSH1 0x60 DUP7 ADD MSTORE PUSH2 0x3E00 DUP3 DUP3 PUSH2 0x3A0F JUMP JUMPDEST SWAP2 POP POP PUSH1 0x80 DUP4 ADD MLOAD PUSH2 0x3E15 PUSH1 0x80 DUP7 ADD DUP3 PUSH2 0x4184 JUMP JUMPDEST POP PUSH1 0xA0 DUP4 ADD MLOAD PUSH2 0x3E28 PUSH1 0xA0 DUP7 ADD DUP3 PUSH2 0x4184 JUMP JUMPDEST POP PUSH1 0xC0 DUP4 ADD MLOAD PUSH2 0x3E3B PUSH1 0xC0 DUP7 ADD DUP3 PUSH2 0x3A00 JUMP JUMPDEST POP DUP1 SWAP2 POP POP SWAP3 SWAP2 POP POP JUMP JUMPDEST PUSH1 0x0 PUSH1 0xA0 DUP4 ADD PUSH1 0x0 DUP4 ADD MLOAD DUP5 DUP3 SUB PUSH1 0x0 DUP7 ADD MSTORE PUSH2 0x3E63 DUP3 DUP3 PUSH2 0x3A0F JUMP JUMPDEST SWAP2 POP POP PUSH1 0x20 DUP4 ADD MLOAD PUSH2 0x3E78 PUSH1 0x20 DUP7 ADD DUP3 PUSH2 0x3965 JUMP JUMPDEST POP PUSH1 0x40 DUP4 ADD MLOAD DUP5 DUP3 SUB PUSH1 0x40 DUP7 ADD MSTORE PUSH2 0x3E90 DUP3 DUP3 PUSH2 0x3A0F JUMP JUMPDEST SWAP2 POP POP PUSH1 0x60 DUP4 ADD MLOAD PUSH2 0x3EA5 PUSH1 0x60 DUP7 ADD DUP3 PUSH2 0x4184 JUMP JUMPDEST POP PUSH1 0x80 DUP4 ADD MLOAD PUSH2 0x3EB8 PUSH1 0x80 DUP7 ADD DUP3 PUSH2 0x3A00 JUMP JUMPDEST POP DUP1 SWAP2 POP POP SWAP3 SWAP2 POP POP JUMP JUMPDEST PUSH1 0x0 PUSH1 0xA0 DUP4 ADD PUSH1 0x0 DUP4 ADD MLOAD DUP5 DUP3 SUB PUSH1 0x0 DUP7 ADD MSTORE PUSH2 0x3EE0 DUP3 DUP3 PUSH2 0x3A0F JUMP JUMPDEST SWAP2 POP POP PUSH1 0x20 DUP4 ADD MLOAD PUSH2 0x3EF5 PUSH1 0x20 DUP7 ADD DUP3 PUSH2 0x3965 JUMP JUMPDEST POP PUSH1 0x40 DUP4 ADD MLOAD DUP5 DUP3 SUB PUSH1 0x40 DUP7 ADD MSTORE PUSH2 0x3F0D DUP3 DUP3 PUSH2 0x3A0F JUMP JUMPDEST SWAP2 POP POP PUSH1 0x60 DUP4 ADD MLOAD PUSH2 0x3F22 PUSH1 0x60 DUP7 ADD DUP3 PUSH2 0x4184 JUMP JUMPDEST POP PUSH1 0x80 DUP4 ADD MLOAD PUSH2 0x3F35 PUSH1 0x80 DUP7 ADD DUP3 PUSH2 0x3A00 JUMP JUMPDEST POP DUP1 SWAP2 POP POP SWAP3 SWAP2 POP POP JUMP JUMPDEST PUSH1 0x0 PUSH1 0xC0 DUP4 ADD PUSH1 0x0 DUP4 ADD MLOAD PUSH2 0x3F58 PUSH1 0x0 DUP7 ADD DUP3 PUSH2 0x4184 JUMP JUMPDEST POP PUSH1 0x20 DUP4 ADD MLOAD DUP5 DUP3 SUB PUSH1 0x20 DUP7 ADD MSTORE PUSH2 0x3F70 DUP3 DUP3 PUSH2 0x3B68 JUMP JUMPDEST SWAP2 POP POP PUSH1 0x40 DUP4 ADD MLOAD DUP5 DUP3 SUB PUSH1 0x40 DUP7 ADD MSTORE PUSH2 0x3F8A DUP3 DUP3 PUSH2 0x3CF2 JUMP JUMPDEST SWAP2 POP POP PUSH1 0x60 DUP4 ADD MLOAD DUP5 DUP3 SUB PUSH1 0x60 DUP7 ADD MSTORE PUSH2 0x3FA4 DUP3 DUP3 PUSH2 0x408A JUMP JUMPDEST SWAP2 POP POP PUSH1 0x80 DUP4 ADD MLOAD DUP5 DUP3 SUB PUSH1 0x80 DUP7 ADD MSTORE PUSH2 0x3FBE DUP3 DUP3 PUSH2 0x3A48 JUMP JUMPDEST SWAP2 POP POP PUSH1 0xA0 DUP4 ADD MLOAD DUP5 DUP3 SUB PUSH1 0xA0 DUP7 ADD MSTORE PUSH2 0x3FD8 DUP3 DUP3 PUSH2 0x3E46 JUMP JUMPDEST SWAP2 POP POP DUP1 SWAP2 POP POP SWAP3 SWAP2 POP POP JUMP JUMPDEST PUSH1 0x0 PUSH1 0xC0 DUP4 ADD PUSH1 0x0 DUP4 ADD MLOAD PUSH2 0x3FFD PUSH1 0x0 DUP7 ADD DUP3 PUSH2 0x4184 JUMP JUMPDEST POP PUSH1 0x20 DUP4 ADD MLOAD DUP5 DUP3 SUB PUSH1 0x20 DUP7 ADD MSTORE PUSH2 0x4015 DUP3 DUP3 PUSH2 0x3B68 JUMP JUMPDEST SWAP2 POP POP PUSH1 0x40 DUP4 ADD MLOAD DUP5 DUP3 SUB PUSH1 0x40 DUP7 ADD MSTORE PUSH2 0x402F DUP3 DUP3 PUSH2 0x3CF2 JUMP JUMPDEST SWAP2 POP POP PUSH1 0x60 DUP4 ADD MLOAD DUP5 DUP3 SUB PUSH1 0x60 DUP7 ADD MSTORE PUSH2 0x4049 DUP3 DUP3 PUSH2 0x408A JUMP JUMPDEST SWAP2 POP POP PUSH1 0x80 DUP4 ADD MLOAD DUP5 DUP3 SUB PUSH1 0x80 DUP7 ADD MSTORE PUSH2 0x4063 DUP3 DUP3 PUSH2 0x3A48 JUMP JUMPDEST SWAP2 POP POP PUSH1 0xA0 DUP4 ADD MLOAD DUP5 DUP3 SUB PUSH1 0xA0 DUP7 ADD MSTORE PUSH2 0x407D DUP3 DUP3 PUSH2 0x3E46 JUMP JUMPDEST SWAP2 POP POP DUP1 SWAP2 POP POP SWAP3 SWAP2 POP POP JUMP JUMPDEST PUSH1 0x0 PUSH1 0xA0 DUP4 ADD PUSH1 0x0 DUP4 ADD MLOAD DUP5 DUP3 SUB PUSH1 0x0 DUP7 ADD MSTORE PUSH2 0x40A7 DUP3 DUP3 PUSH2 0x3A0F JUMP JUMPDEST SWAP2 POP POP PUSH1 0x20 DUP4 ADD MLOAD PUSH2 0x40BC PUSH1 0x20 DUP7 ADD DUP3 PUSH2 0x3965 JUMP JUMPDEST POP PUSH1 0x40 DUP4 ADD MLOAD DUP5 DUP3 SUB PUSH1 0x40 DUP7 ADD MSTORE PUSH2 0x40D4 DUP3 DUP3 PUSH2 0x3A0F JUMP JUMPDEST SWAP2 POP POP PUSH1 0x60 DUP4 ADD MLOAD PUSH2 0x40E9 PUSH1 0x60 DUP7 ADD DUP3 PUSH2 0x4184 JUMP JUMPDEST POP PUSH1 0x80 DUP4 ADD MLOAD PUSH2 0x40FC PUSH1 0x80 DUP7 ADD DUP3 PUSH2 0x3A00 JUMP JUMPDEST POP DUP1 SWAP2 POP POP SWAP3 SWAP2 POP POP JUMP JUMPDEST PUSH1 0x0 PUSH1 0xA0 DUP4 ADD PUSH1 0x0 DUP4 ADD MLOAD DUP5 DUP3 SUB PUSH1 0x0 DUP7 ADD MSTORE PUSH2 0x4124 DUP3 DUP3 PUSH2 0x3A0F JUMP JUMPDEST SWAP2 POP POP PUSH1 0x20 DUP4 ADD MLOAD PUSH2 0x4139 PUSH1 0x20 DUP7 ADD DUP3 PUSH2 0x3965 JUMP JUMPDEST POP PUSH1 0x40 DUP4 ADD MLOAD DUP5 DUP3 SUB PUSH1 0x40 DUP7 ADD MSTORE PUSH2 0x4151 DUP3 DUP3 PUSH2 0x3A0F JUMP JUMPDEST SWAP2 POP POP PUSH1 0x60 DUP4 ADD MLOAD PUSH2 0x4166 PUSH1 0x60 DUP7 ADD DUP3 PUSH2 0x4184 JUMP JUMPDEST POP PUSH1 0x80 DUP4 ADD MLOAD PUSH2 0x4179 PUSH1 0x80 DUP7 ADD DUP3 PUSH2 0x3A00 JUMP JUMPDEST POP DUP1 SWAP2 POP POP SWAP3 SWAP2 POP POP JUMP JUMPDEST PUSH2 0x418D DUP2 PUSH2 0x451B JUMP JUMPDEST DUP3 MSTORE POP POP JUMP JUMPDEST PUSH2 0x419C DUP2 PUSH2 0x451B JUMP JUMPDEST DUP3 MSTORE POP POP JUMP JUMPDEST PUSH2 0x41B3 PUSH2 0x41AE DUP3 PUSH2 0x451B JUMP JUMPDEST PUSH2 0x4666 JUMP JUMPDEST DUP3 MSTORE POP POP JUMP JUMPDEST PUSH2 0x41C2 DUP2 PUSH2 0x4525 JUMP JUMPDEST DUP3 MSTORE POP POP JUMP JUMPDEST PUSH2 0x41D1 DUP2 PUSH2 0x4535 JUMP JUMPDEST DUP3 MSTORE POP POP JUMP JUMPDEST PUSH1 0x0 PUSH2 0x41E3 DUP3 DUP5 PUSH2 0x3974 JUMP JUMPDEST PUSH1 0x14 DUP3 ADD SWAP2 POP DUP2 SWAP1 POP SWAP3 SWAP2 POP POP JUMP JUMPDEST PUSH1 0x0 PUSH2 0x41FE DUP3 DUP5 PUSH2 0x394E JUMP JUMPDEST PUSH1 0x14 DUP3 ADD SWAP2 POP DUP2 SWAP1 POP SWAP3 SWAP2 POP POP JUMP JUMPDEST PUSH1 0x0 PUSH2 0x4219 DUP3 DUP5 PUSH2 0x41A2 JUMP JUMPDEST PUSH1 0x20 DUP3 ADD SWAP2 POP DUP2 SWAP1 POP SWAP3 SWAP2 POP POP JUMP JUMPDEST PUSH1 0x0 PUSH1 0x20 DUP3 ADD SWAP1 POP DUP2 DUP2 SUB PUSH1 0x0 DUP4 ADD MSTORE PUSH2 0x4242 DUP2 DUP5 PUSH2 0x398B JUMP JUMPDEST SWAP1 POP SWAP3 SWAP2 POP POP JUMP JUMPDEST PUSH1 0x0 PUSH1 0x20 DUP3 ADD SWAP1 POP DUP2 DUP2 SUB PUSH1 0x0 DUP4 ADD MSTORE PUSH2 0x4264 DUP2 DUP5 PUSH2 0x3FE5 JUMP JUMPDEST SWAP1 POP SWAP3 SWAP2 POP POP JUMP JUMPDEST PUSH1 0x0 PUSH1 0x20 DUP3 ADD SWAP1 POP PUSH2 0x4281 PUSH1 0x0 DUP4 ADD DUP5 PUSH2 0x4193 JUMP JUMPDEST SWAP3 SWAP2 POP POP JUMP JUMPDEST PUSH1 0x0 PUSH1 0xC0 DUP3 ADD SWAP1 POP PUSH2 0x429C PUSH1 0x0 DUP4 ADD DUP10 PUSH2 0x4193 JUMP JUMPDEST DUP2 DUP2 SUB PUSH1 0x20 DUP4 ADD MSTORE PUSH2 0x42AE DUP2 DUP9 PUSH2 0x3C2D JUMP JUMPDEST SWAP1 POP DUP2 DUP2 SUB PUSH1 0x40 DUP4 ADD MSTORE PUSH2 0x42C2 DUP2 DUP8 PUSH2 0x3D9C JUMP JUMPDEST SWAP1 POP DUP2 DUP2 SUB PUSH1 0x60 DUP4 ADD MSTORE PUSH2 0x42D6 DUP2 DUP7 PUSH2 0x4107 JUMP JUMPDEST SWAP1 POP DUP2 DUP2 SUB PUSH1 0x80 DUP4 ADD MSTORE PUSH2 0x42EA DUP2 DUP6 PUSH2 0x3AD8 JUMP JUMPDEST SWAP1 POP DUP2 DUP2 SUB PUSH1 0xA0 DUP4 ADD MSTORE PUSH2 0x42FE DUP2 DUP5 PUSH2 0x3EC3 JUMP JUMPDEST SWAP1 POP SWAP8 SWAP7 POP POP POP POP POP POP POP JUMP JUMPDEST PUSH1 0x0 PUSH2 0x4315 PUSH2 0x4326 JUMP JUMPDEST SWAP1 POP PUSH2 0x4321 DUP3 DUP3 PUSH2 0x45B6 JUMP JUMPDEST SWAP2 SWAP1 POP JUMP JUMPDEST PUSH1 0x0 PUSH1 0x40 MLOAD SWAP1 POP SWAP1 JUMP JUMPDEST PUSH1 0x0 PUSH8 0xFFFFFFFFFFFFFFFF DUP3 GT ISZERO PUSH2 0x434B JUMPI PUSH2 0x434A PUSH2 0x46FD JUMP JUMPDEST JUMPDEST PUSH2 0x4354 DUP3 PUSH2 0x472C JUMP JUMPDEST SWAP1 POP PUSH1 0x20 DUP2 ADD SWAP1 POP SWAP2 SWAP1 POP JUMP JUMPDEST PUSH1 0x0 DUP2 SWAP1 POP PUSH1 0x20 DUP3 ADD SWAP1 POP SWAP2 SWAP1 POP JUMP JUMPDEST PUSH1 0x0 DUP2 MLOAD SWAP1 POP SWAP2 SWAP1 POP JUMP JUMPDEST PUSH1 0x0 DUP2 MLOAD SWAP1 POP SWAP2 SWAP1 POP JUMP JUMPDEST PUSH1 0x0 PUSH1 0x20 DUP3 ADD SWAP1 POP SWAP2 SWAP1 POP JUMP JUMPDEST PUSH1 0x0 DUP3 DUP3 MSTORE PUSH1 0x20 DUP3 ADD SWAP1 POP SWAP3 SWAP2 POP POP JUMP JUMPDEST PUSH1 0x0 DUP3 DUP3 MSTORE PUSH1 0x20 DUP3 ADD SWAP1 POP SWAP3 SWAP2 POP POP JUMP JUMPDEST PUSH1 0x0 PUSH2 0x43C1 DUP3 PUSH2 0x451B JUMP JUMPDEST SWAP2 POP PUSH2 0x43CC DUP4 PUSH2 0x451B JUMP JUMPDEST SWAP3 POP DUP3 PUSH32 0xFFFFFFFFFFFFFFFFFFFFFFFFFFFFFFFFFFFFFFFFFFFFFFFFFFFFFFFFFFFFFFFF SUB DUP3 GT ISZERO PUSH2 0x4401 JUMPI PUSH2 0x4400 PUSH2 0x4670 JUMP JUMPDEST JUMPDEST DUP3 DUP3 ADD SWAP1 POP SWAP3 SWAP2 POP POP JUMP JUMPDEST PUSH1 0x0 PUSH2 0x4417 DUP3 PUSH2 0x451B JUMP JUMPDEST SWAP2 POP PUSH2 0x4422 DUP4 PUSH2 0x451B JUMP JUMPDEST SWAP3 POP DUP3 PUSH2 0x4432 JUMPI PUSH2 0x4431 PUSH2 0x469F JUMP JUMPDEST JUMPDEST DUP3 DUP3 DIV SWAP1 POP SWAP3 SWAP2 POP POP JUMP JUMPDEST PUSH1 0x0 PUSH2 0x4448 DUP3 PUSH2 0x451B JUMP JUMPDEST SWAP2 POP PUSH2 0x4453 DUP4 PUSH2 0x451B JUMP JUMPDEST SWAP3 POP DUP2 PUSH32 0xFFFFFFFFFFFFFFFFFFFFFFFFFFFFFFFFFFFFFFFFFFFFFFFFFFFFFFFFFFFFFFFF DIV DUP4 GT DUP3 ISZERO ISZERO AND ISZERO PUSH2 0x448C JUMPI PUSH2 0x448B PUSH2 0x4670 JUMP JUMPDEST JUMPDEST DUP3 DUP3 MUL SWAP1 POP SWAP3 SWAP2 POP POP JUMP JUMPDEST PUSH1 0x0 PUSH2 0x44A2 DUP3 PUSH2 0x451B JUMP JUMPDEST SWAP2 POP PUSH2 0x44AD DUP4 PUSH2 0x451B JUMP JUMPDEST SWAP3 POP DUP3 DUP3 LT ISZERO PUSH2 0x44C0 JUMPI PUSH2 0x44BF PUSH2 0x4670 JUMP JUMPDEST JUMPDEST DUP3 DUP3 SUB SWAP1 POP SWAP3 SWAP2 POP POP JUMP JUMPDEST PUSH1 0x0 PUSH2 0x44D6 DUP3 PUSH2 0x44FB JUMP JUMPDEST SWAP1 POP SWAP2 SWAP1 POP JUMP JUMPDEST PUSH1 0x0 PUSH2 0x44E8 DUP3 PUSH2 0x44FB JUMP JUMPDEST SWAP1 POP SWAP2 SWAP1 POP JUMP JUMPDEST PUSH1 0x0 DUP2 ISZERO ISZERO SWAP1 POP SWAP2 SWAP1 POP JUMP JUMPDEST PUSH1 0x0 PUSH20 0xFFFFFFFFFFFFFFFFFFFFFFFFFFFFFFFFFFFFFFFF DUP3 AND SWAP1 POP SWAP2 SWAP1 POP JUMP JUMPDEST PUSH1 0x0 DUP2 SWAP1 POP SWAP2 SWAP1 POP JUMP JUMPDEST PUSH1 0x0 PUSH4 0xFFFFFFFF DUP3 AND SWAP1 POP SWAP2 SWAP1 POP JUMP JUMPDEST PUSH1 0x0 PUSH1 0xFF DUP3 AND SWAP1 POP SWAP2 SWAP1 POP JUMP JUMPDEST DUP3 DUP2 DUP4 CALLDATACOPY PUSH1 0x0 DUP4 DUP4 ADD MSTORE POP POP POP JUMP JUMPDEST PUSH1 0x0 JUMPDEST DUP4 DUP2 LT ISZERO PUSH2 0x456F JUMPI DUP1 DUP3 ADD MLOAD DUP2 DUP5 ADD MSTORE PUSH1 0x20 DUP2 ADD SWAP1 POP PUSH2 0x4554 JUMP JUMPDEST DUP4 DUP2 GT ISZERO PUSH2 0x457E JUMPI PUSH1 0x0 DUP5 DUP5 ADD MSTORE JUMPDEST POP POP POP POP JUMP JUMPDEST PUSH1 0x0 PUSH1 0x2 DUP3 DIV SWAP1 POP PUSH1 0x1 DUP3 AND DUP1 PUSH2 0x459C JUMPI PUSH1 0x7F DUP3 AND SWAP2 POP JUMPDEST PUSH1 0x20 DUP3 LT DUP2 EQ ISZERO PUSH2 0x45B0 JUMPI PUSH2 0x45AF PUSH2 0x46CE JUMP JUMPDEST JUMPDEST POP SWAP2 SWAP1 POP JUMP JUMPDEST PUSH2 0x45BF DUP3 PUSH2 0x472C JUMP JUMPDEST DUP2 ADD DUP2 DUP2 LT PUSH8 0xFFFFFFFFFFFFFFFF DUP3 GT OR ISZERO PUSH2 0x45DE JUMPI PUSH2 0x45DD PUSH2 0x46FD JUMP JUMPDEST JUMPDEST DUP1 PUSH1 0x40 MSTORE POP POP POP JUMP JUMPDEST PUSH1 0x0 PUSH2 0x45F2 DUP3 PUSH2 0x451B JUMP JUMPDEST SWAP2 POP PUSH32 0xFFFFFFFFFFFFFFFFFFFFFFFFFFFFFFFFFFFFFFFFFFFFFFFFFFFFFFFFFFFFFFFF DUP3 EQ ISZERO PUSH2 0x4625 JUMPI PUSH2 0x4624 PUSH2 0x4670 JUMP JUMPDEST JUMPDEST PUSH1 0x1 DUP3 ADD SWAP1 POP SWAP2 SWAP1 POP JUMP JUMPDEST PUSH1 0x0 PUSH2 0x463B DUP3 PUSH2 0x4654 JUMP JUMPDEST SWAP1 POP SWAP2 SWAP1 POP JUMP JUMPDEST PUSH1 0x0 PUSH2 0x464D DUP3 PUSH2 0x4654 JUMP JUMPDEST SWAP1 POP SWAP2 SWAP1 POP JUMP JUMPDEST PUSH1 0x0 PUSH2 0x465F DUP3 PUSH2 0x473D JUMP JUMPDEST SWAP1 POP SWAP2 SWAP1 POP JUMP JUMPDEST PUSH1 0x0 DUP2 SWAP1 POP SWAP2 SWAP1 POP JUMP JUMPDEST PUSH32 0x4E487B7100000000000000000000000000000000000000000000000000000000 PUSH1 0x0 MSTORE PUSH1 0x11 PUSH1 0x4 MSTORE PUSH1 0x24 PUSH1 0x0 REVERT JUMPDEST PUSH32 0x4E487B7100000000000000000000000000000000000000000000000000000000 PUSH1 0x0 MSTORE PUSH1 0x12 PUSH1 0x4 MSTORE PUSH1 0x24 PUSH1 0x0 REVERT JUMPDEST PUSH32 0x4E487B7100000000000000000000000000000000000000000000000000000000 PUSH1 0x0 MSTORE PUSH1 0x22 PUSH1 0x4 MSTORE PUSH1 0x24 PUSH1 0x0 REVERT JUMPDEST PUSH32 0x4E487B7100000000000000000000000000000000000000000000000000000000 PUSH1 0x0 MSTORE PUSH1 0x41 PUSH1 0x4 MSTORE PUSH1 0x24 PUSH1 0x0 REVERT JUMPDEST PUSH1 0x0 PUSH1 0x1F NOT PUSH1 0x1F DUP4 ADD AND SWAP1 POP SWAP2 SWAP1 POP JUMP JUMPDEST PUSH1 0x0 DUP2 PUSH1 0x60 SHL SWAP1 POP SWAP2 SWAP1 POP JUMP JUMPDEST PUSH2 0x4753 DUP2 PUSH2 0x44CB JUMP JUMPDEST DUP2 EQ PUSH2 0x475E JUMPI PUSH1 0x0 DUP1 REVERT JUMPDEST POP JUMP JUMPDEST PUSH2 0x476A DUP2 PUSH2 0x451B JUMP JUMPDEST DUP2 EQ PUSH2 0x4775 JUMPI PUSH1 0x0 DUP1 REVERT JUMPDEST POP JUMP JUMPDEST PUSH2 0x4781 DUP2 PUSH2 0x4525 JUMP JUMPDEST DUP2 EQ PUSH2 0x478C JUMPI PUSH1 0x0 DUP1 REVERT JUMPDEST POP JUMP JUMPDEST PUSH2 0x4798 DUP2 PUSH2 0x4535 JUMP JUMPDEST DUP2 EQ PUSH2 0x47A3 JUMPI PUSH1 0x0 DUP1 REVERT JUMPDEST POP JUMP INVALID LOG2 PUSH5 0x6970667358 0x22 SLT KECCAK256 0x4F 0xC0 ISZERO SELFDESTRUCT 0xF9 0xB8 CODECOPY 0xF7 0xAA 0xC0 SWAP1 SWAP15 MSTORE 0x2C PUSH32 0x5F88AF1ECD227F52D5A70CB9D8638BB6A164736F6C6343000803003300000000 "
        },
        "methodIdentifiers": {
          "batches(address,uint256)": "6aafa5e9",
          "createBatch()": "b91297c8",
          "getBatches(address)": "f8185a13",
          "getTeaBatch(uint256)": "0655b240",
          "teaBatches(uint256)": "e34c7813",
          "updateDistributerEntry(uint256,address,string,uint256,uint32)": "3647534b",
          "updateFarmerEntry(uint256,address,string,string,string,uint256,uint8)": "0709d217",
          "updateManufcturerEntry(uint256,address,string,string,uint256,uint256)": "95ed230d",
          "updateRetailerEntry(uint256,address,string,uint256)": "536aee82",
          "updateWholesalerEntry(uint256,address,string,uint256)": "6fe937c5"
        }
      }
    }
  }
}