{
  "_format": "hh-sol-artifact-1",
  "contractName": "Teachain",
  "sourceName": "contracts/Teachain.sol",
  "abi": [
    {
      "inputs": [],
      "stateMutability": "nonpayable",
      "type": "constructor"
    },
    {
      "anonymous": false,
      "inputs": [
        {
          "indexed": false,
          "internalType": "uint256",
          "name": "_batchId",
          "type": "uint256"
        }
      ],
      "name": "BatchCreated",
      "type": "event"
    },
    {
      "inputs": [
        {
          "internalType": "address",
          "name": "",
          "type": "address"
        },
        {
          "internalType": "uint256",
          "name": "",
          "type": "uint256"
        }
      ],
      "name": "batches",
      "outputs": [
        {
          "internalType": "uint256",
          "name": "",
          "type": "uint256"
        }
      ],
      "stateMutability": "view",
      "type": "function"
    },
    {
      "inputs": [],
      "name": "createBatch",
      "outputs": [],
      "stateMutability": "nonpayable",
      "type": "function"
    },
    {
      "inputs": [
        {
          "internalType": "address",
          "name": "_addr",
          "type": "address"
        }
      ],
      "name": "getBatches",
      "outputs": [
        {
          "components": [
            {
              "internalType": "uint256",
              "name": "batchId",
              "type": "uint256"
            },
            {
              "components": [
                {
                  "internalType": "string",
                  "name": "role",
                  "type": "string"
                },
                {
                  "internalType": "address",
                  "name": "farmerAddress",
                  "type": "address"
                },
                {
                  "internalType": "string",
                  "name": "farmerName",
                  "type": "string"
                },
                {
                  "internalType": "string",
                  "name": "teaSpecies",
                  "type": "string"
                },
                {
                  "internalType": "string",
                  "name": "teaLocation",
                  "type": "string"
                },
                {
                  "internalType": "uint256",
                  "name": "harvestingDate",
                  "type": "uint256"
                },
                {
                  "internalType": "uint8",
                  "name": "flushNumber",
                  "type": "uint8"
                },
                {
                  "internalType": "bool",
                  "name": "isVerified",
                  "type": "bool"
                }
              ],
              "internalType": "struct Teachain.FarmerEntry",
              "name": "farmerEntry",
              "type": "tuple"
            },
            {
              "components": [
                {
                  "internalType": "string",
                  "name": "role",
                  "type": "string"
                },
                {
                  "internalType": "address",
                  "name": "manufacturerAddress",
                  "type": "address"
                },
                {
                  "internalType": "string",
                  "name": "manufacturerName",
                  "type": "string"
                },
                {
                  "internalType": "string",
                  "name": "teaType",
                  "type": "string"
                },
                {
                  "internalType": "uint256",
                  "name": "receivingDate",
                  "type": "uint256"
                },
                {
                  "internalType": "uint256",
                  "name": "witheringDuration",
                  "type": "uint256"
                },
                {
                  "internalType": "bool",
                  "name": "isVerified",
                  "type": "bool"
                }
              ],
              "internalType": "struct Teachain.ManufacturerEntry",
              "name": "manufacturerEntry",
              "type": "tuple"
            },
            {
              "components": [
                {
                  "internalType": "string",
                  "name": "role",
                  "type": "string"
                },
                {
                  "internalType": "address",
                  "name": "wholesalerAddress",
                  "type": "address"
                },
                {
                  "internalType": "string",
                  "name": "wholesalerName",
                  "type": "string"
                },
                {
                  "internalType": "uint256",
                  "name": "receivingDate",
                  "type": "uint256"
                },
                {
                  "internalType": "bool",
                  "name": "isVerified",
                  "type": "bool"
                }
              ],
              "internalType": "struct Teachain.WholesalerEntry",
              "name": "wholesalerEntry",
              "type": "tuple"
            },
            {
              "components": [
                {
                  "internalType": "string",
                  "name": "role",
                  "type": "string"
                },
                {
                  "internalType": "address",
                  "name": "distributerAddress",
                  "type": "address"
                },
                {
                  "internalType": "string",
                  "name": "distributerName",
                  "type": "string"
                },
                {
                  "internalType": "uint256",
                  "name": "receivingDate",
                  "type": "uint256"
                },
                {
                  "internalType": "uint32",
                  "name": "storageTemperature",
                  "type": "uint32"
                },
                {
                  "internalType": "bool",
                  "name": "isVerified",
                  "type": "bool"
                }
              ],
              "internalType": "struct Teachain.DistributerEntry",
              "name": "distributerEntry",
              "type": "tuple"
            },
            {
              "components": [
                {
                  "internalType": "string",
                  "name": "role",
                  "type": "string"
                },
                {
                  "internalType": "address",
                  "name": "retailerAddress",
                  "type": "address"
                },
                {
                  "internalType": "string",
                  "name": "retailerName",
                  "type": "string"
                },
                {
                  "internalType": "uint256",
                  "name": "receivingDate",
                  "type": "uint256"
                },
                {
                  "internalType": "bool",
                  "name": "isVerified",
                  "type": "bool"
                }
              ],
              "internalType": "struct Teachain.RetailerEntry",
              "name": "retailerEntry",
              "type": "tuple"
            }
          ],
          "internalType": "struct Teachain.TeaBatch[]",
          "name": "",
          "type": "tuple[]"
        }
      ],
      "stateMutability": "view",
      "type": "function"
    },
    {
      "inputs": [
        {
          "internalType": "uint256",
          "name": "_id",
          "type": "uint256"
        }
      ],
      "name": "getTeaBatch",
      "outputs": [
        {
          "components": [
            {
              "internalType": "uint256",
              "name": "batchId",
              "type": "uint256"
            },
            {
              "components": [
                {
                  "internalType": "string",
                  "name": "role",
                  "type": "string"
                },
                {
                  "internalType": "address",
                  "name": "farmerAddress",
                  "type": "address"
                },
                {
                  "internalType": "string",
                  "name": "farmerName",
                  "type": "string"
                },
                {
                  "internalType": "string",
                  "name": "teaSpecies",
                  "type": "string"
                },
                {
                  "internalType": "string",
                  "name": "teaLocation",
                  "type": "string"
                },
                {
                  "internalType": "uint256",
                  "name": "harvestingDate",
                  "type": "uint256"
                },
                {
                  "internalType": "uint8",
                  "name": "flushNumber",
                  "type": "uint8"
                },
                {
                  "internalType": "bool",
                  "name": "isVerified",
                  "type": "bool"
                }
              ],
              "internalType": "struct Teachain.FarmerEntry",
              "name": "farmerEntry",
              "type": "tuple"
            },
            {
              "components": [
                {
                  "internalType": "string",
                  "name": "role",
                  "type": "string"
                },
                {
                  "internalType": "address",
                  "name": "manufacturerAddress",
                  "type": "address"
                },
                {
                  "internalType": "string",
                  "name": "manufacturerName",
                  "type": "string"
                },
                {
                  "internalType": "string",
                  "name": "teaType",
                  "type": "string"
                },
                {
                  "internalType": "uint256",
                  "name": "receivingDate",
                  "type": "uint256"
                },
                {
                  "internalType": "uint256",
                  "name": "witheringDuration",
                  "type": "uint256"
                },
                {
                  "internalType": "bool",
                  "name": "isVerified",
                  "type": "bool"
                }
              ],
              "internalType": "struct Teachain.ManufacturerEntry",
              "name": "manufacturerEntry",
              "type": "tuple"
            },
            {
              "components": [
                {
                  "internalType": "string",
                  "name": "role",
                  "type": "string"
                },
                {
                  "internalType": "address",
                  "name": "wholesalerAddress",
                  "type": "address"
                },
                {
                  "internalType": "string",
                  "name": "wholesalerName",
                  "type": "string"
                },
                {
                  "internalType": "uint256",
                  "name": "receivingDate",
                  "type": "uint256"
                },
                {
                  "internalType": "bool",
                  "name": "isVerified",
                  "type": "bool"
                }
              ],
              "internalType": "struct Teachain.WholesalerEntry",
              "name": "wholesalerEntry",
              "type": "tuple"
            },
            {
              "components": [
                {
                  "internalType": "string",
                  "name": "role",
                  "type": "string"
                },
                {
                  "internalType": "address",
                  "name": "distributerAddress",
                  "type": "address"
                },
                {
                  "internalType": "string",
                  "name": "distributerName",
                  "type": "string"
                },
                {
                  "internalType": "uint256",
                  "name": "receivingDate",
                  "type": "uint256"
                },
                {
                  "internalType": "uint32",
                  "name": "storageTemperature",
                  "type": "uint32"
                },
                {
                  "internalType": "bool",
                  "name": "isVerified",
                  "type": "bool"
                }
              ],
              "internalType": "struct Teachain.DistributerEntry",
              "name": "distributerEntry",
              "type": "tuple"
            },
            {
              "components": [
                {
                  "internalType": "string",
                  "name": "role",
                  "type": "string"
                },
                {
                  "internalType": "address",
                  "name": "retailerAddress",
                  "type": "address"
                },
                {
                  "internalType": "string",
                  "name": "retailerName",
                  "type": "string"
                },
                {
                  "internalType": "uint256",
                  "name": "receivingDate",
                  "type": "uint256"
                },
                {
                  "internalType": "bool",
                  "name": "isVerified",
                  "type": "bool"
                }
              ],
              "internalType": "struct Teachain.RetailerEntry",
              "name": "retailerEntry",
              "type": "tuple"
            }
          ],
          "internalType": "struct Teachain.TeaBatch",
          "name": "",
          "type": "tuple"
        }
      ],
      "stateMutability": "view",
      "type": "function"
    },
    {
      "inputs": [
        {
          "internalType": "uint256",
          "name": "",
          "type": "uint256"
        }
      ],
      "name": "teaBatches",
      "outputs": [
        {
          "internalType": "uint256",
          "name": "batchId",
          "type": "uint256"
        },
        {
          "components": [
            {
              "internalType": "string",
              "name": "role",
              "type": "string"
            },
            {
              "internalType": "address",
              "name": "farmerAddress",
              "type": "address"
            },
            {
              "internalType": "string",
              "name": "farmerName",
              "type": "string"
            },
            {
              "internalType": "string",
              "name": "teaSpecies",
              "type": "string"
            },
            {
              "internalType": "string",
              "name": "teaLocation",
              "type": "string"
            },
            {
              "internalType": "uint256",
              "name": "harvestingDate",
              "type": "uint256"
            },
            {
              "internalType": "uint8",
              "name": "flushNumber",
              "type": "uint8"
            },
            {
              "internalType": "bool",
              "name": "isVerified",
              "type": "bool"
            }
          ],
          "internalType": "struct Teachain.FarmerEntry",
          "name": "farmerEntry",
          "type": "tuple"
        },
        {
          "components": [
            {
              "internalType": "string",
              "name": "role",
              "type": "string"
            },
            {
              "internalType": "address",
              "name": "manufacturerAddress",
              "type": "address"
            },
            {
              "internalType": "string",
              "name": "manufacturerName",
              "type": "string"
            },
            {
              "internalType": "string",
              "name": "teaType",
              "type": "string"
            },
            {
              "internalType": "uint256",
              "name": "receivingDate",
              "type": "uint256"
            },
            {
              "internalType": "uint256",
              "name": "witheringDuration",
              "type": "uint256"
            },
            {
              "internalType": "bool",
              "name": "isVerified",
              "type": "bool"
            }
          ],
          "internalType": "struct Teachain.ManufacturerEntry",
          "name": "manufacturerEntry",
          "type": "tuple"
        },
        {
          "components": [
            {
              "internalType": "string",
              "name": "role",
              "type": "string"
            },
            {
              "internalType": "address",
              "name": "wholesalerAddress",
              "type": "address"
            },
            {
              "internalType": "string",
              "name": "wholesalerName",
              "type": "string"
            },
            {
              "internalType": "uint256",
              "name": "receivingDate",
              "type": "uint256"
            },
            {
              "internalType": "bool",
              "name": "isVerified",
              "type": "bool"
            }
          ],
          "internalType": "struct Teachain.WholesalerEntry",
          "name": "wholesalerEntry",
          "type": "tuple"
        },
        {
          "components": [
            {
              "internalType": "string",
              "name": "role",
              "type": "string"
            },
            {
              "internalType": "address",
              "name": "distributerAddress",
              "type": "address"
            },
            {
              "internalType": "string",
              "name": "distributerName",
              "type": "string"
            },
            {
              "internalType": "uint256",
              "name": "receivingDate",
              "type": "uint256"
            },
            {
              "internalType": "uint32",
              "name": "storageTemperature",
              "type": "uint32"
            },
            {
              "internalType": "bool",
              "name": "isVerified",
              "type": "bool"
            }
          ],
          "internalType": "struct Teachain.DistributerEntry",
          "name": "distributerEntry",
          "type": "tuple"
        },
        {
          "components": [
            {
              "internalType": "string",
              "name": "role",
              "type": "string"
            },
            {
              "internalType": "address",
              "name": "retailerAddress",
              "type": "address"
            },
            {
              "internalType": "string",
              "name": "retailerName",
              "type": "string"
            },
            {
              "internalType": "uint256",
              "name": "receivingDate",
              "type": "uint256"
            },
            {
              "internalType": "bool",
              "name": "isVerified",
              "type": "bool"
            }
          ],
          "internalType": "struct Teachain.RetailerEntry",
          "name": "retailerEntry",
          "type": "tuple"
        }
      ],
      "stateMutability": "view",
      "type": "function"
    },
    {
      "inputs": [
        {
          "internalType": "uint256",
          "name": "_batchId",
          "type": "uint256"
        },
        {
          "internalType": "address",
          "name": "_addr",
          "type": "address"
        },
        {
          "internalType": "string",
          "name": "_distributerName",
          "type": "string"
        },
        {
          "internalType": "uint256",
          "name": "_receivingDate",
          "type": "uint256"
        },
        {
          "internalType": "uint32",
          "name": "_storageTemperature",
          "type": "uint32"
        }
      ],
      "name": "updateDistributerEntry",
      "outputs": [],
      "stateMutability": "nonpayable",
      "type": "function"
    },
    {
      "inputs": [
        {
          "internalType": "uint256",
          "name": "_batchId",
          "type": "uint256"
        },
        {
          "internalType": "address",
          "name": "_addr",
          "type": "address"
        },
        {
          "internalType": "string",
          "name": "_farmerName",
          "type": "string"
        },
        {
          "internalType": "string",
          "name": "_teaSpecies",
          "type": "string"
        },
        {
          "internalType": "string",
          "name": "_teaLocation",
          "type": "string"
        },
        {
          "internalType": "uint256",
          "name": "_harvestingDate",
          "type": "uint256"
        },
        {
          "internalType": "uint8",
          "name": "_flushNumber",
          "type": "uint8"
        }
      ],
      "name": "updateFarmerEntry",
      "outputs": [],
      "stateMutability": "nonpayable",
      "type": "function"
    },
    {
      "inputs": [
        {
          "internalType": "uint256",
          "name": "_batchId",
          "type": "uint256"
        },
        {
          "internalType": "address",
          "name": "_addr",
          "type": "address"
        },
        {
          "internalType": "string",
          "name": "_manufacturerName",
          "type": "string"
        },
        {
          "internalType": "string",
          "name": "_teaType",
          "type": "string"
        },
        {
          "internalType": "uint256",
          "name": "_receivingDate",
          "type": "uint256"
        },
        {
          "internalType": "uint256",
          "name": "_witheringDuration",
          "type": "uint256"
        }
      ],
      "name": "updateManufcturerEntry",
      "outputs": [],
      "stateMutability": "nonpayable",
      "type": "function"
    },
    {
      "inputs": [
        {
          "internalType": "uint256",
          "name": "_batchId",
          "type": "uint256"
        },
        {
          "internalType": "address",
          "name": "_addr",
          "type": "address"
        },
        {
          "internalType": "string",
          "name": "_retailerName",
          "type": "string"
        },
        {
          "internalType": "uint256",
          "name": "_receivingDate",
          "type": "uint256"
        }
      ],
      "name": "updateRetailerEntry",
      "outputs": [],
      "stateMutability": "nonpayable",
      "type": "function"
    },
    {
      "inputs": [
        {
          "internalType": "uint256",
          "name": "_batchId",
          "type": "uint256"
        },
        {
          "internalType": "address",
          "name": "_addr",
          "type": "address"
        },
        {
          "internalType": "string",
          "name": "_wholesalerName",
          "type": "string"
        },
        {
          "internalType": "uint256",
          "name": "_receivingDate",
          "type": "uint256"
        }
      ],
      "name": "updateWholesalerEntry",
      "outputs": [],
      "stateMutability": "nonpayable",
      "type": "function"
    }
  ],
  "bytecode": "0x60806040523480156200001157600080fd5b50620000226200002860201b60201c565b62000c25565b60006200003a620004ff60201b60201c565b90506200004662000611565b818160000181815250508060016000848152602001908152602001600020600082015181600001556020820151816001016000820151816000019080519060200190620000959291906200066f565b5060208201518160010160006101000a81548173ffffffffffffffffffffffffffffffffffffffff021916908373ffffffffffffffffffffffffffffffffffffffff1602179055506040820151816002019080519060200190620000fb9291906200066f565b5060608201518160030190805190602001906200011a9291906200066f565b506080820151816004019080519060200190620001399291906200066f565b5060a0820151816005015560c08201518160060160006101000a81548160ff021916908360ff16021790555060e08201518160060160016101000a81548160ff02191690831515021790555050506040820151816008016000820151816000019080519060200190620001ae9291906200066f565b5060208201518160010160006101000a81548173ffffffffffffffffffffffffffffffffffffffff021916908373ffffffffffffffffffffffffffffffffffffffff1602179055506040820151816002019080519060200190620002149291906200066f565b506060820151816003019080519060200190620002339291906200066f565b506080820151816004015560a0820151816005015560c08201518160060160006101000a81548160ff0219169083151502179055505050606082015181600f016000820151816000019080519060200190620002919291906200066f565b5060208201518160010160006101000a81548173ffffffffffffffffffffffffffffffffffffffff021916908373ffffffffffffffffffffffffffffffffffffffff1602179055506040820151816002019080519060200190620002f79291906200066f565b506060820151816003015560808201518160040160006101000a81548160ff021916908315150217905550505060808201518160140160008201518160000190805190602001906200034b9291906200066f565b5060208201518160010160006101000a81548173ffffffffffffffffffffffffffffffffffffffff021916908373ffffffffffffffffffffffffffffffffffffffff1602179055506040820151816002019080519060200190620003b19291906200066f565b506060820151816003015560808201518160040160006101000a81548163ffffffff021916908363ffffffff16021790555060a08201518160040160046101000a81548160ff021916908315150217905550505060a08201518160190160008201518160000190805190602001906200042c9291906200066f565b5060208201518160010160006101000a81548173ffffffffffffffffffffffffffffffffffffffff021916908373ffffffffffffffffffffffffffffffffffffffff1602179055506040820151816002019080519060200190620004929291906200066f565b506060820151816003015560808201518160040160006101000a81548160ff02191690831515021790555050509050507f2354c6982830f23074cbadd3a8326546827ca5be87b6cfe41e906c66e75cd96582604051620004f391906200096f565b60405180910390a15050565b60008043423360405160200162000517919062000918565b6040516020818303038152906040528051906020012060001c6200053c9190620009e9565b45424160405160200162000551919062000935565b6040516020818303038152906040528051906020012060001c620005769190620009e9565b44426200058491906200098c565b6200059091906200098c565b6200059c91906200098c565b620005a891906200098c565b620005b491906200098c565b604051602001620005c6919062000952565b6040516020818303038152906040528051906020012060001c90506103e88082620005f29190620009e9565b620005fe919062000a21565b816200060b919062000a82565b91505090565b6040518060c00160405280600081526020016200062d62000700565b81526020016200063c62000760565b81526020016200064b620007b5565b81526020016200065a620007fc565b81526020016200066962000850565b81525090565b8280546200067d9062000b0f565b90600052602060002090601f016020900481019282620006a15760008555620006ed565b82601f10620006bc57805160ff1916838001178555620006ed565b82800160010185558215620006ed579182015b82811115620006ec578251825591602001919060010190620006cf565b5b509050620006fc919062000897565b5090565b60405180610100016040528060608152602001600073ffffffffffffffffffffffffffffffffffffffff16815260200160608152602001606081526020016060815260200160008152602001600060ff1681526020016000151581525090565b6040518060e0016040528060608152602001600073ffffffffffffffffffffffffffffffffffffffff168152602001606081526020016060815260200160008152602001600081526020016000151581525090565b6040518060a0016040528060608152602001600073ffffffffffffffffffffffffffffffffffffffff16815260200160608152602001600081526020016000151581525090565b6040518060c0016040528060608152602001600073ffffffffffffffffffffffffffffffffffffffff1681526020016060815260200160008152602001600063ffffffff1681526020016000151581525090565b6040518060a0016040528060608152602001600073ffffffffffffffffffffffffffffffffffffffff16815260200160608152602001600081526020016000151581525090565b5b80821115620008b257600081600090555060010162000898565b5090565b620008cb620008c58262000ad1565b62000b59565b82525050565b620008e6620008e08262000abd565b62000b45565b82525050565b620008f78162000b05565b82525050565b620009126200090c8262000b05565b62000b81565b82525050565b6000620009268284620008d1565b60148201915081905092915050565b6000620009438284620008b6565b60148201915081905092915050565b6000620009608284620008fd565b60208201915081905092915050565b6000602082019050620009866000830184620008ec565b92915050565b6000620009998262000b05565b9150620009a68362000b05565b9250827fffffffffffffffffffffffffffffffffffffffffffffffffffffffffffffffff03821115620009de57620009dd62000b8b565b5b828201905092915050565b6000620009f68262000b05565b915062000a038362000b05565b92508262000a165762000a1562000bba565b5b828204905092915050565b600062000a2e8262000b05565b915062000a3b8362000b05565b9250817fffffffffffffffffffffffffffffffffffffffffffffffffffffffffffffffff048311821515161562000a775762000a7662000b8b565b5b828202905092915050565b600062000a8f8262000b05565b915062000a9c8362000b05565b92508282101562000ab25762000ab162000b8b565b5b828203905092915050565b600062000aca8262000ae5565b9050919050565b600062000ade8262000ae5565b9050919050565b600073ffffffffffffffffffffffffffffffffffffffff82169050919050565b6000819050919050565b6000600282049050600182168062000b2857607f821691505b6020821081141562000b3f5762000b3e62000be9565b5b50919050565b600062000b528262000b6d565b9050919050565b600062000b668262000b6d565b9050919050565b600062000b7a8262000c18565b9050919050565b6000819050919050565b7f4e487b7100000000000000000000000000000000000000000000000000000000600052601160045260246000fd5b7f4e487b7100000000000000000000000000000000000000000000000000000000600052601260045260246000fd5b7f4e487b7100000000000000000000000000000000000000000000000000000000600052602260045260246000fd5b60008160601b9050919050565b6147dc8062000c356000396000f3fe608060405234801561001057600080fd5b506004361061009e5760003560e01c80636fe937c5116100665780636fe937c51461015757806395ed230d14610173578063b91297c81461018f578063e34c781314610199578063f8185a13146101ce5761009e565b80630655b240146100a35780630709d217146100d35780633647534b146100ef578063536aee821461010b5780636aafa5e914610127575b600080fd5b6100bd60048036038101906100b89190613668565b6101fe565b6040516100ca919061424a565b60405180910390f35b6100ed60048036038101906100e89190613691565b610cb8565b005b610109600480360381019061010491906138ab565b610ed6565b005b61012560048036038101906101209190613830565b6110b4565b005b610141600480360381019061013c919061362c565b61125e565b60405161014e919061426c565b60405180910390f35b610171600480360381019061016c9190613830565b61128f565b005b61018d60048036038101906101889190613777565b611439565b005b610197611618565b005b6101b360048036038101906101ae9190613668565b611ac9565b6040516101c596959493929190614287565b60405180910390f35b6101e860048036038101906101e39190613603565b612556565b6040516101f59190614228565b60405180910390f35b6102066132b9565b600160008381526020019081526020016000206040518060c001604052908160008201548152602001600182016040518061010001604052908160008201805461024f90614584565b80601f016020809104026020016040519081016040528092919081815260200182805461027b90614584565b80156102c85780601f1061029d576101008083540402835291602001916102c8565b820191906000526020600020905b8154815290600101906020018083116102ab57829003601f168201915b505050505081526020016001820160009054906101000a900473ffffffffffffffffffffffffffffffffffffffff1673ffffffffffffffffffffffffffffffffffffffff1673ffffffffffffffffffffffffffffffffffffffff16815260200160028201805461033790614584565b80601f016020809104026020016040519081016040528092919081815260200182805461036390614584565b80156103b05780601f10610385576101008083540402835291602001916103b0565b820191906000526020600020905b81548152906001019060200180831161039357829003601f168201915b505050505081526020016003820180546103c990614584565b80601f01602080910402602001604051908101604052809291908181526020018280546103f590614584565b80156104425780601f1061041757610100808354040283529160200191610442565b820191906000526020600020905b81548152906001019060200180831161042557829003601f168201915b5050505050815260200160048201805461045b90614584565b80601f016020809104026020016040519081016040528092919081815260200182805461048790614584565b80156104d45780601f106104a9576101008083540402835291602001916104d4565b820191906000526020600020905b8154815290600101906020018083116104b757829003601f168201915b50505050508152602001600582015481526020016006820160009054906101000a900460ff1660ff1660ff1681526020016006820160019054906101000a900460ff1615151515815250508152602001600882016040518060e001604052908160008201805461054390614584565b80601f016020809104026020016040519081016040528092919081815260200182805461056f90614584565b80156105bc5780601f10610591576101008083540402835291602001916105bc565b820191906000526020600020905b81548152906001019060200180831161059f57829003601f168201915b505050505081526020016001820160009054906101000a900473ffffffffffffffffffffffffffffffffffffffff1673ffffffffffffffffffffffffffffffffffffffff1673ffffffffffffffffffffffffffffffffffffffff16815260200160028201805461062b90614584565b80601f016020809104026020016040519081016040528092919081815260200182805461065790614584565b80156106a45780601f10610679576101008083540402835291602001916106a4565b820191906000526020600020905b81548152906001019060200180831161068757829003601f168201915b505050505081526020016003820180546106bd90614584565b80601f01602080910402602001604051908101604052809291908181526020018280546106e990614584565b80156107365780601f1061070b57610100808354040283529160200191610736565b820191906000526020600020905b81548152906001019060200180831161071957829003601f168201915b5050505050815260200160048201548152602001600582015481526020016006820160009054906101000a900460ff1615151515815250508152602001600f82016040518060a001604052908160008201805461079290614584565b80601f01602080910402602001604051908101604052809291908181526020018280546107be90614584565b801561080b5780601f106107e05761010080835404028352916020019161080b565b820191906000526020600020905b8154815290600101906020018083116107ee57829003601f168201915b505050505081526020016001820160009054906101000a900473ffffffffffffffffffffffffffffffffffffffff1673ffffffffffffffffffffffffffffffffffffffff1673ffffffffffffffffffffffffffffffffffffffff16815260200160028201805461087a90614584565b80601f01602080910402602001604051908101604052809291908181526020018280546108a690614584565b80156108f35780601f106108c8576101008083540402835291602001916108f3565b820191906000526020600020905b8154815290600101906020018083116108d657829003601f168201915b50505050508152602001600382015481526020016004820160009054906101000a900460ff1615151515815250508152602001601482016040518060c001604052908160008201805461094590614584565b80601f016020809104026020016040519081016040528092919081815260200182805461097190614584565b80156109be5780601f10610993576101008083540402835291602001916109be565b820191906000526020600020905b8154815290600101906020018083116109a157829003601f168201915b505050505081526020016001820160009054906101000a900473ffffffffffffffffffffffffffffffffffffffff1673ffffffffffffffffffffffffffffffffffffffff1673ffffffffffffffffffffffffffffffffffffffff168152602001600282018054610a2d90614584565b80601f0160208091040260200160405190810160405280929190818152602001828054610a5990614584565b8015610aa65780601f10610a7b57610100808354040283529160200191610aa6565b820191906000526020600020905b815481529060010190602001808311610a8957829003601f168201915b50505050508152602001600382015481526020016004820160009054906101000a900463ffffffff1663ffffffff1663ffffffff1681526020016004820160049054906101000a900460ff1615151515815250508152602001601982016040518060a0016040529081600082018054610b1e90614584565b80601f0160208091040260200160405190810160405280929190818152602001828054610b4a90614584565b8015610b975780601f10610b6c57610100808354040283529160200191610b97565b820191906000526020600020905b815481529060010190602001808311610b7a57829003601f168201915b505050505081526020016001820160009054906101000a900473ffffffffffffffffffffffffffffffffffffffff1673ffffffffffffffffffffffffffffffffffffffff1673ffffffffffffffffffffffffffffffffffffffff168152602001600282018054610c0690614584565b80601f0160208091040260200160405190810160405280929190818152602001828054610c3290614584565b8015610c7f5780601f10610c5457610100808354040283529160200191610c7f565b820191906000526020600020905b815481529060010190602001808311610c6257829003601f168201915b50505050508152602001600382015481526020016004820160009054906101000a900460ff161515151581525050815250509050919050565b60006040518061010001604052806040518060400160405280600681526020017f4661726d6572000000000000000000000000000000000000000000000000000081525081526020018873ffffffffffffffffffffffffffffffffffffffff1681526020018781526020018681526020018581526020018481526020018360ff16815260200160011515815250905080600160008a81526020019081526020016000206001016000820151816000019080519060200190610d7a92919061330d565b5060208201518160010160006101000a81548173ffffffffffffffffffffffffffffffffffffffff021916908373ffffffffffffffffffffffffffffffffffffffff1602179055506040820151816002019080519060200190610dde92919061330d565b506060820151816003019080519060200190610dfb92919061330d565b506080820151816004019080519060200190610e1892919061330d565b5060a0820151816005015560c08201518160060160006101000a81548160ff021916908360ff16021790555060e08201518160060160016101000a81548160ff0219169083151502179055509050506000808873ffffffffffffffffffffffffffffffffffffffff1673ffffffffffffffffffffffffffffffffffffffff1681526020019081526020016000208890806001815401808255809150506001900390600052602060002001600090919091909150555050505050505050565b60006040518060c001604052806040518060400160405280600b81526020017f446973747269627574657200000000000000000000000000000000000000000081525081526020018673ffffffffffffffffffffffffffffffffffffffff1681526020018581526020018481526020018363ffffffff16815260200160011515815250905080600160008881526020019081526020016000206014016000820151816000019080519060200190610f8e92919061330d565b5060208201518160010160006101000a81548173ffffffffffffffffffffffffffffffffffffffff021916908373ffffffffffffffffffffffffffffffffffffffff1602179055506040820151816002019080519060200190610ff292919061330d565b506060820151816003015560808201518160040160006101000a81548163ffffffff021916908363ffffffff16021790555060a08201518160040160046101000a81548160ff0219169083151502179055509050506000808673ffffffffffffffffffffffffffffffffffffffff1673ffffffffffffffffffffffffffffffffffffffff168152602001908152602001600020869080600181540180825580915050600190039060005260206000200160009091909190915055505050505050565b60006040518060a001604052806040518060400160405280600881526020017f52657461696c657200000000000000000000000000000000000000000000000081525081526020018573ffffffffffffffffffffffffffffffffffffffff1681526020018481526020018381526020016001151581525090508060016000878152602001908152602001600020601901600082015181600001908051906020019061116092919061330d565b5060208201518160010160006101000a81548173ffffffffffffffffffffffffffffffffffffffff021916908373ffffffffffffffffffffffffffffffffffffffff16021790555060408201518160020190805190602001906111c492919061330d565b506060820151816003015560808201518160040160006101000a81548160ff0219169083151502179055509050506000808573ffffffffffffffffffffffffffffffffffffffff1673ffffffffffffffffffffffffffffffffffffffff1681526020019081526020016000208590806001815401808255809150506001900390600052602060002001600090919091909150555050505050565b6000602052816000526040600020818154811061127a57600080fd5b90600052602060002001600091509150505481565b60006040518060a001604052806040518060400160405280600a81526020017f57686f6c6573616c65720000000000000000000000000000000000000000000081525081526020018573ffffffffffffffffffffffffffffffffffffffff1681526020018481526020018381526020016001151581525090508060016000878152602001908152602001600020600f01600082015181600001908051906020019061133b92919061330d565b5060208201518160010160006101000a81548173ffffffffffffffffffffffffffffffffffffffff021916908373ffffffffffffffffffffffffffffffffffffffff160217905550604082015181600201908051906020019061139f92919061330d565b506060820151816003015560808201518160040160006101000a81548160ff0219169083151502179055509050506000808573ffffffffffffffffffffffffffffffffffffffff1673ffffffffffffffffffffffffffffffffffffffff1681526020019081526020016000208590806001815401808255809150506001900390600052602060002001600090919091909150555050505050565b60006040518060e001604052806040518060400160405280600c81526020017f4d616e756661637475726572000000000000000000000000000000000000000081525081526020018773ffffffffffffffffffffffffffffffffffffffff168152602001868152602001858152602001848152602001838152602001600115158152509050806001600089815260200190815260200160002060080160008201518160000190805190602001906114f192919061330d565b5060208201518160010160006101000a81548173ffffffffffffffffffffffffffffffffffffffff021916908373ffffffffffffffffffffffffffffffffffffffff160217905550604082015181600201908051906020019061155592919061330d565b50606082015181600301908051906020019061157292919061330d565b506080820151816004015560a0820151816005015560c08201518160060160006101000a81548160ff0219169083151502179055509050506000808773ffffffffffffffffffffffffffffffffffffffff1673ffffffffffffffffffffffffffffffffffffffff16815260200190815260200160002087908060018154018082558091505060019003906000526020600020016000909190919091505550505050505050565b60006116226131c1565b905061162c6132b9565b81816000018181525050806001600084815260200190815260200160002060008201518160000155602082015181600101600082015181600001908051906020019061167992919061330d565b5060208201518160010160006101000a81548173ffffffffffffffffffffffffffffffffffffffff021916908373ffffffffffffffffffffffffffffffffffffffff16021790555060408201518160020190805190602001906116dd92919061330d565b5060608201518160030190805190602001906116fa92919061330d565b50608082015181600401908051906020019061171792919061330d565b5060a0820151816005015560c08201518160060160006101000a81548160ff021916908360ff16021790555060e08201518160060160016101000a81548160ff0219169083151502179055505050604082015181600801600082015181600001908051906020019061178a92919061330d565b5060208201518160010160006101000a81548173ffffffffffffffffffffffffffffffffffffffff021916908373ffffffffffffffffffffffffffffffffffffffff16021790555060408201518160020190805190602001906117ee92919061330d565b50606082015181600301908051906020019061180b92919061330d565b506080820151816004015560a0820151816005015560c08201518160060160006101000a81548160ff0219169083151502179055505050606082015181600f01600082015181600001908051906020019061186792919061330d565b5060208201518160010160006101000a81548173ffffffffffffffffffffffffffffffffffffffff021916908373ffffffffffffffffffffffffffffffffffffffff16021790555060408201518160020190805190602001906118cb92919061330d565b506060820151816003015560808201518160040160006101000a81548160ff0219169083151502179055505050608082015181601401600082015181600001908051906020019061191d92919061330d565b5060208201518160010160006101000a81548173ffffffffffffffffffffffffffffffffffffffff021916908373ffffffffffffffffffffffffffffffffffffffff160217905550604082015181600201908051906020019061198192919061330d565b506060820151816003015560808201518160040160006101000a81548163ffffffff021916908363ffffffff16021790555060a08201518160040160046101000a81548160ff021916908315150217905550505060a08201518160190160008201518160000190805190602001906119fa92919061330d565b5060208201518160010160006101000a81548173ffffffffffffffffffffffffffffffffffffffff021916908373ffffffffffffffffffffffffffffffffffffffff1602179055506040820151816002019080519060200190611a5e92919061330d565b506060820151816003015560808201518160040160006101000a81548160ff02191690831515021790555050509050507f2354c6982830f23074cbadd3a8326546827ca5be87b6cfe41e906c66e75cd96582604051611abd919061426c565b60405180910390a15050565b60016020528060005260406000206000915090508060000154908060010160405180610100016040529081600082018054611b0390614584565b80601f0160208091040260200160405190810160405280929190818152602001828054611b2f90614584565b8015611b7c5780601f10611b5157610100808354040283529160200191611b7c565b820191906000526020600020905b815481529060010190602001808311611b5f57829003601f168201915b505050505081526020016001820160009054906101000a900473ffffffffffffffffffffffffffffffffffffffff1673ffffffffffffffffffffffffffffffffffffffff1673ffffffffffffffffffffffffffffffffffffffff168152602001600282018054611beb90614584565b80601f0160208091040260200160405190810160405280929190818152602001828054611c1790614584565b8015611c645780601f10611c3957610100808354040283529160200191611c64565b820191906000526020600020905b815481529060010190602001808311611c4757829003601f168201915b50505050508152602001600382018054611c7d90614584565b80601f0160208091040260200160405190810160405280929190818152602001828054611ca990614584565b8015611cf65780601f10611ccb57610100808354040283529160200191611cf6565b820191906000526020600020905b815481529060010190602001808311611cd957829003601f168201915b50505050508152602001600482018054611d0f90614584565b80601f0160208091040260200160405190810160405280929190818152602001828054611d3b90614584565b8015611d885780601f10611d5d57610100808354040283529160200191611d88565b820191906000526020600020905b815481529060010190602001808311611d6b57829003601f168201915b50505050508152602001600582015481526020016006820160009054906101000a900460ff1660ff1660ff1681526020016006820160019054906101000a900460ff16151515158152505090806008016040518060e0016040529081600082018054611df390614584565b80601f0160208091040260200160405190810160405280929190818152602001828054611e1f90614584565b8015611e6c5780601f10611e4157610100808354040283529160200191611e6c565b820191906000526020600020905b815481529060010190602001808311611e4f57829003601f168201915b505050505081526020016001820160009054906101000a900473ffffffffffffffffffffffffffffffffffffffff1673ffffffffffffffffffffffffffffffffffffffff1673ffffffffffffffffffffffffffffffffffffffff168152602001600282018054611edb90614584565b80601f0160208091040260200160405190810160405280929190818152602001828054611f0790614584565b8015611f545780601f10611f2957610100808354040283529160200191611f54565b820191906000526020600020905b815481529060010190602001808311611f3757829003601f168201915b50505050508152602001600382018054611f6d90614584565b80601f0160208091040260200160405190810160405280929190818152602001828054611f9990614584565b8015611fe65780601f10611fbb57610100808354040283529160200191611fe6565b820191906000526020600020905b815481529060010190602001808311611fc957829003601f168201915b5050505050815260200160048201548152602001600582015481526020016006820160009054906101000a900460ff1615151515815250509080600f016040518060a001604052908160008201805461203e90614584565b80601f016020809104026020016040519081016040528092919081815260200182805461206a90614584565b80156120b75780601f1061208c576101008083540402835291602001916120b7565b820191906000526020600020905b81548152906001019060200180831161209a57829003601f168201915b505050505081526020016001820160009054906101000a900473ffffffffffffffffffffffffffffffffffffffff1673ffffffffffffffffffffffffffffffffffffffff1673ffffffffffffffffffffffffffffffffffffffff16815260200160028201805461212690614584565b80601f016020809104026020016040519081016040528092919081815260200182805461215290614584565b801561219f5780601f106121745761010080835404028352916020019161219f565b820191906000526020600020905b81548152906001019060200180831161218257829003601f168201915b50505050508152602001600382015481526020016004820160009054906101000a900460ff16151515158152505090806014016040518060c00160405290816000820180546121ed90614584565b80601f016020809104026020016040519081016040528092919081815260200182805461221990614584565b80156122665780601f1061223b57610100808354040283529160200191612266565b820191906000526020600020905b81548152906001019060200180831161224957829003601f168201915b505050505081526020016001820160009054906101000a900473ffffffffffffffffffffffffffffffffffffffff1673ffffffffffffffffffffffffffffffffffffffff1673ffffffffffffffffffffffffffffffffffffffff1681526020016002820180546122d590614584565b80601f016020809104026020016040519081016040528092919081815260200182805461230190614584565b801561234e5780601f106123235761010080835404028352916020019161234e565b820191906000526020600020905b81548152906001019060200180831161233157829003601f168201915b50505050508152602001600382015481526020016004820160009054906101000a900463ffffffff1663ffffffff1663ffffffff1681526020016004820160049054906101000a900460ff16151515158152505090806019016040518060a00160405290816000820180546123c290614584565b80601f01602080910402602001604051908101604052809291908181526020018280546123ee90614584565b801561243b5780601f106124105761010080835404028352916020019161243b565b820191906000526020600020905b81548152906001019060200180831161241e57829003601f168201915b505050505081526020016001820160009054906101000a900473ffffffffffffffffffffffffffffffffffffffff1673ffffffffffffffffffffffffffffffffffffffff1673ffffffffffffffffffffffffffffffffffffffff1681526020016002820180546124aa90614584565b80601f01602080910402602001604051908101604052809291908181526020018280546124d690614584565b80156125235780601f106124f857610100808354040283529160200191612523565b820191906000526020600020905b81548152906001019060200180831161250657829003601f168201915b50505050508152602001600382015481526020016004820160009054906101000a900460ff161515151581525050905086565b606060008060008473ffffffffffffffffffffffffffffffffffffffff1673ffffffffffffffffffffffffffffffffffffffff1681526020019081526020016000208054806020026020016040519081016040528092919081815260200182805480156125e257602002820191906000526020600020905b8154815260200190600101908083116125ce575b505050505090506000815167ffffffffffffffff81111561262c577f4e487b7100000000000000000000000000000000000000000000000000000000600052604160045260246000fd5b60405190808252806020026020018201604052801561266557816020015b6126526132b9565b81526020019060019003908161264a5790505b50905060005b82518110156131b657600160008483815181106126b1577f4e487b7100000000000000000000000000000000000000000000000000000000600052603260045260246000fd5b602002602001015181526020019081526020016000206040518060c00160405290816000820154815260200160018201604051806101000160405290816000820180546126fd90614584565b80601f016020809104026020016040519081016040528092919081815260200182805461272990614584565b80156127765780601f1061274b57610100808354040283529160200191612776565b820191906000526020600020905b81548152906001019060200180831161275957829003601f168201915b505050505081526020016001820160009054906101000a900473ffffffffffffffffffffffffffffffffffffffff1673ffffffffffffffffffffffffffffffffffffffff1673ffffffffffffffffffffffffffffffffffffffff1681526020016002820180546127e590614584565b80601f016020809104026020016040519081016040528092919081815260200182805461281190614584565b801561285e5780601f106128335761010080835404028352916020019161285e565b820191906000526020600020905b81548152906001019060200180831161284157829003601f168201915b5050505050815260200160038201805461287790614584565b80601f01602080910402602001604051908101604052809291908181526020018280546128a390614584565b80156128f05780601f106128c5576101008083540402835291602001916128f0565b820191906000526020600020905b8154815290600101906020018083116128d357829003601f168201915b5050505050815260200160048201805461290990614584565b80601f016020809104026020016040519081016040528092919081815260200182805461293590614584565b80156129825780601f1061295757610100808354040283529160200191612982565b820191906000526020600020905b81548152906001019060200180831161296557829003601f168201915b50505050508152602001600582015481526020016006820160009054906101000a900460ff1660ff1660ff1681526020016006820160019054906101000a900460ff1615151515815250508152602001600882016040518060e00160405290816000820180546129f190614584565b80601f0160208091040260200160405190810160405280929190818152602001828054612a1d90614584565b8015612a6a5780601f10612a3f57610100808354040283529160200191612a6a565b820191906000526020600020905b815481529060010190602001808311612a4d57829003601f168201915b505050505081526020016001820160009054906101000a900473ffffffffffffffffffffffffffffffffffffffff1673ffffffffffffffffffffffffffffffffffffffff1673ffffffffffffffffffffffffffffffffffffffff168152602001600282018054612ad990614584565b80601f0160208091040260200160405190810160405280929190818152602001828054612b0590614584565b8015612b525780601f10612b2757610100808354040283529160200191612b52565b820191906000526020600020905b815481529060010190602001808311612b3557829003601f168201915b50505050508152602001600382018054612b6b90614584565b80601f0160208091040260200160405190810160405280929190818152602001828054612b9790614584565b8015612be45780601f10612bb957610100808354040283529160200191612be4565b820191906000526020600020905b815481529060010190602001808311612bc757829003601f168201915b5050505050815260200160048201548152602001600582015481526020016006820160009054906101000a900460ff1615151515815250508152602001600f82016040518060a0016040529081600082018054612c4090614584565b80601f0160208091040260200160405190810160405280929190818152602001828054612c6c90614584565b8015612cb95780601f10612c8e57610100808354040283529160200191612cb9565b820191906000526020600020905b815481529060010190602001808311612c9c57829003601f168201915b505050505081526020016001820160009054906101000a900473ffffffffffffffffffffffffffffffffffffffff1673ffffffffffffffffffffffffffffffffffffffff1673ffffffffffffffffffffffffffffffffffffffff168152602001600282018054612d2890614584565b80601f0160208091040260200160405190810160405280929190818152602001828054612d5490614584565b8015612da15780601f10612d7657610100808354040283529160200191612da1565b820191906000526020600020905b815481529060010190602001808311612d8457829003601f168201915b50505050508152602001600382015481526020016004820160009054906101000a900460ff1615151515815250508152602001601482016040518060c0016040529081600082018054612df390614584565b80601f0160208091040260200160405190810160405280929190818152602001828054612e1f90614584565b8015612e6c5780601f10612e4157610100808354040283529160200191612e6c565b820191906000526020600020905b815481529060010190602001808311612e4f57829003601f168201915b505050505081526020016001820160009054906101000a900473ffffffffffffffffffffffffffffffffffffffff1673ffffffffffffffffffffffffffffffffffffffff1673ffffffffffffffffffffffffffffffffffffffff168152602001600282018054612edb90614584565b80601f0160208091040260200160405190810160405280929190818152602001828054612f0790614584565b8015612f545780601f10612f2957610100808354040283529160200191612f54565b820191906000526020600020905b815481529060010190602001808311612f3757829003601f168201915b50505050508152602001600382015481526020016004820160009054906101000a900463ffffffff1663ffffffff1663ffffffff1681526020016004820160049054906101000a900460ff1615151515815250508152602001601982016040518060a0016040529081600082018054612fcc90614584565b80601f0160208091040260200160405190810160405280929190818152602001828054612ff890614584565b80156130455780601f1061301a57610100808354040283529160200191613045565b820191906000526020600020905b81548152906001019060200180831161302857829003601f168201915b505050505081526020016001820160009054906101000a900473ffffffffffffffffffffffffffffffffffffffff1673ffffffffffffffffffffffffffffffffffffffff1673ffffffffffffffffffffffffffffffffffffffff1681526020016002820180546130b490614584565b80601f01602080910402602001604051908101604052809291908181526020018280546130e090614584565b801561312d5780601f106131025761010080835404028352916020019161312d565b820191906000526020600020905b81548152906001019060200180831161311057829003601f168201915b50505050508152602001600382015481526020016004820160009054906101000a900460ff16151515158152505081525050828281518110613198577f4e487b7100000000000000000000000000000000000000000000000000000000600052603260045260246000fd5b602002602001018190525080806131ae906145e7565b91505061266b565b508092505050919050565b6000804342336040516020016131d791906141d7565b6040516020818303038152906040528051906020012060001c6131fa919061440c565b45424160405160200161320d91906141f2565b6040516020818303038152906040528051906020012060001c613230919061440c565b444261323c91906143b6565b61324691906143b6565b61325091906143b6565b61325a91906143b6565b61326491906143b6565b604051602001613274919061420d565b6040516020818303038152906040528051906020012060001c90506103e8808261329e919061440c565b6132a8919061443d565b816132b39190614497565b91505090565b6040518060c00160405280600081526020016132d3613393565b81526020016132e06133f3565b81526020016132ed613448565b81526020016132fa61348f565b81526020016133076134e3565b81525090565b82805461331990614584565b90600052602060002090601f01602090048101928261333b5760008555613382565b82601f1061335457805160ff1916838001178555613382565b82800160010185558215613382579182015b82811115613381578251825591602001919060010190613366565b5b50905061338f919061352a565b5090565b60405180610100016040528060608152602001600073ffffffffffffffffffffffffffffffffffffffff16815260200160608152602001606081526020016060815260200160008152602001600060ff1681526020016000151581525090565b6040518060e0016040528060608152602001600073ffffffffffffffffffffffffffffffffffffffff168152602001606081526020016060815260200160008152602001600081526020016000151581525090565b6040518060a0016040528060608152602001600073ffffffffffffffffffffffffffffffffffffffff16815260200160608152602001600081526020016000151581525090565b6040518060c0016040528060608152602001600073ffffffffffffffffffffffffffffffffffffffff1681526020016060815260200160008152602001600063ffffffff1681526020016000151581525090565b6040518060a0016040528060608152602001600073ffffffffffffffffffffffffffffffffffffffff16815260200160608152602001600081526020016000151581525090565b5b8082111561354357600081600090555060010161352b565b5090565b600061355a61355584614330565b61430b565b90508281526020810184848401111561357257600080fd5b61357d848285614542565b509392505050565b6000813590506135948161474a565b92915050565b600082601f8301126135ab57600080fd5b81356135bb848260208601613547565b91505092915050565b6000813590506135d381614761565b92915050565b6000813590506135e881614778565b92915050565b6000813590506135fd8161478f565b92915050565b60006020828403121561361557600080fd5b600061362384828501613585565b91505092915050565b6000806040838503121561363f57600080fd5b600061364d85828601613585565b925050602061365e858286016135c4565b9150509250929050565b60006020828403121561367a57600080fd5b6000613688848285016135c4565b91505092915050565b600080600080600080600060e0888a0312156136ac57600080fd5b60006136ba8a828b016135c4565b97505060206136cb8a828b01613585565b965050604088013567ffffffffffffffff8111156136e857600080fd5b6136f48a828b0161359a565b955050606088013567ffffffffffffffff81111561371157600080fd5b61371d8a828b0161359a565b945050608088013567ffffffffffffffff81111561373a57600080fd5b6137468a828b0161359a565b93505060a06137578a828b016135c4565b92505060c06137688a828b016135ee565b91505092959891949750929550565b60008060008060008060c0878903121561379057600080fd5b600061379e89828a016135c4565b96505060206137af89828a01613585565b955050604087013567ffffffffffffffff8111156137cc57600080fd5b6137d889828a0161359a565b945050606087013567ffffffffffffffff8111156137f557600080fd5b61380189828a0161359a565b935050608061381289828a016135c4565b92505060a061382389828a016135c4565b9150509295509295509295565b6000806000806080858703121561384657600080fd5b6000613854878288016135c4565b945050602061386587828801613585565b935050604085013567ffffffffffffffff81111561388257600080fd5b61388e8782880161359a565b925050606061389f878288016135c4565b91505092959194509250565b600080600080600060a086880312156138c357600080fd5b60006138d1888289016135c4565b95505060206138e288828901613585565b945050604086013567ffffffffffffffff8111156138ff57600080fd5b61390b8882890161359a565b935050606061391c888289016135c4565b925050608061392d888289016135d9565b9150509295509295909350565b60006139468383613f40565b905092915050565b61395f61395a826144dd565b614642565b82525050565b61396e816144cb565b82525050565b613985613980826144cb565b614630565b82525050565b600061399682614371565b6139a08185614394565b9350836020820285016139b285614361565b8060005b858110156139ee57848403895281516139cf858261393a565b94506139da83614387565b925060208a019950506001810190506139b6565b50829750879550505050505092915050565b613a09816144ef565b82525050565b6000613a1a8261437c565b613a2481856143a5565b9350613a34818560208601614551565b613a3d8161472c565b840191505092915050565b600060c0830160008301518482036000860152613a658282613a0f565b9150506020830151613a7a6020860182613965565b5060408301518482036040860152613a928282613a0f565b9150506060830151613aa76060860182614184565b506080830151613aba60808601826141b9565b5060a0830151613acd60a0860182613a00565b508091505092915050565b600060c0830160008301518482036000860152613af58282613a0f565b9150506020830151613b0a6020860182613965565b5060408301518482036040860152613b228282613a0f565b9150506060830151613b376060860182614184565b506080830151613b4a60808601826141b9565b5060a0830151613b5d60a0860182613a00565b508091505092915050565b6000610100830160008301518482036000860152613b868282613a0f565b9150506020830151613b9b6020860182613965565b5060408301518482036040860152613bb38282613a0f565b91505060608301518482036060860152613bcd8282613a0f565b91505060808301518482036080860152613be78282613a0f565b91505060a0830151613bfc60a0860182614184565b5060c0830151613c0f60c08601826141c8565b5060e0830151613c2260e0860182613a00565b508091505092915050565b6000610100830160008301518482036000860152613c4b8282613a0f565b9150506020830151613c606020860182613965565b5060408301518482036040860152613c788282613a0f565b91505060608301518482036060860152613c928282613a0f565b91505060808301518482036080860152613cac8282613a0f565b91505060a0830151613cc160a0860182614184565b5060c0830151613cd460c08601826141c8565b5060e0830151613ce760e0860182613a00565b508091505092915050565b600060e0830160008301518482036000860152613d0f8282613a0f565b9150506020830151613d246020860182613965565b5060408301518482036040860152613d3c8282613a0f565b91505060608301518482036060860152613d568282613a0f565b9150506080830151613d6b6080860182614184565b5060a0830151613d7e60a0860182614184565b5060c0830151613d9160c0860182613a00565b508091505092915050565b600060e0830160008301518482036000860152613db98282613a0f565b9150506020830151613dce6020860182613965565b5060408301518482036040860152613de68282613a0f565b91505060608301518482036060860152613e008282613a0f565b9150506080830151613e156080860182614184565b5060a0830151613e2860a0860182614184565b5060c0830151613e3b60c0860182613a00565b508091505092915050565b600060a0830160008301518482036000860152613e638282613a0f565b9150506020830151613e786020860182613965565b5060408301518482036040860152613e908282613a0f565b9150506060830151613ea56060860182614184565b506080830151613eb86080860182613a00565b508091505092915050565b600060a0830160008301518482036000860152613ee08282613a0f565b9150506020830151613ef56020860182613965565b5060408301518482036040860152613f0d8282613a0f565b9150506060830151613f226060860182614184565b506080830151613f356080860182613a00565b508091505092915050565b600060c083016000830151613f586000860182614184565b5060208301518482036020860152613f708282613b68565b91505060408301518482036040860152613f8a8282613cf2565b91505060608301518482036060860152613fa4828261408a565b91505060808301518482036080860152613fbe8282613a48565b91505060a083015184820360a0860152613fd88282613e46565b9150508091505092915050565b600060c083016000830151613ffd6000860182614184565b50602083015184820360208601526140158282613b68565b9150506040830151848203604086015261402f8282613cf2565b91505060608301518482036060860152614049828261408a565b915050608083015184820360808601526140638282613a48565b91505060a083015184820360a086015261407d8282613e46565b9150508091505092915050565b600060a08301600083015184820360008601526140a78282613a0f565b91505060208301516140bc6020860182613965565b50604083015184820360408601526140d48282613a0f565b91505060608301516140e96060860182614184565b5060808301516140fc6080860182613a00565b508091505092915050565b600060a08301600083015184820360008601526141248282613a0f565b91505060208301516141396020860182613965565b50604083015184820360408601526141518282613a0f565b91505060608301516141666060860182614184565b5060808301516141796080860182613a00565b508091505092915050565b61418d8161451b565b82525050565b61419c8161451b565b82525050565b6141b36141ae8261451b565b614666565b82525050565b6141c281614525565b82525050565b6141d181614535565b82525050565b60006141e38284613974565b60148201915081905092915050565b60006141fe828461394e565b60148201915081905092915050565b600061421982846141a2565b60208201915081905092915050565b60006020820190508181036000830152614242818461398b565b905092915050565b600060208201905081810360008301526142648184613fe5565b905092915050565b60006020820190506142816000830184614193565b92915050565b600060c08201905061429c6000830189614193565b81810360208301526142ae8188613c2d565b905081810360408301526142c28187613d9c565b905081810360608301526142d68186614107565b905081810360808301526142ea8185613ad8565b905081810360a08301526142fe8184613ec3565b9050979650505050505050565b6000614315614326565b905061432182826145b6565b919050565b6000604051905090565b600067ffffffffffffffff82111561434b5761434a6146fd565b5b6143548261472c565b9050602081019050919050565b6000819050602082019050919050565b600081519050919050565b600081519050919050565b6000602082019050919050565b600082825260208201905092915050565b600082825260208201905092915050565b60006143c18261451b565b91506143cc8361451b565b9250827fffffffffffffffffffffffffffffffffffffffffffffffffffffffffffffffff0382111561440157614400614670565b5b828201905092915050565b60006144178261451b565b91506144228361451b565b9250826144325761443161469f565b5b828204905092915050565b60006144488261451b565b91506144538361451b565b9250817fffffffffffffffffffffffffffffffffffffffffffffffffffffffffffffffff048311821515161561448c5761448b614670565b5b828202905092915050565b60006144a28261451b565b91506144ad8361451b565b9250828210156144c0576144bf614670565b5b828203905092915050565b60006144d6826144fb565b9050919050565b60006144e8826144fb565b9050919050565b60008115159050919050565b600073ffffffffffffffffffffffffffffffffffffffff82169050919050565b6000819050919050565b600063ffffffff82169050919050565b600060ff82169050919050565b82818337600083830152505050565b60005b8381101561456f578082015181840152602081019050614554565b8381111561457e576000848401525b50505050565b6000600282049050600182168061459c57607f821691505b602082108114156145b0576145af6146ce565b5b50919050565b6145bf8261472c565b810181811067ffffffffffffffff821117156145de576145dd6146fd565b5b80604052505050565b60006145f28261451b565b91507fffffffffffffffffffffffffffffffffffffffffffffffffffffffffffffffff82141561462557614624614670565b5b600182019050919050565b600061463b82614654565b9050919050565b600061464d82614654565b9050919050565b600061465f8261473d565b9050919050565b6000819050919050565b7f4e487b7100000000000000000000000000000000000000000000000000000000600052601160045260246000fd5b7f4e487b7100000000000000000000000000000000000000000000000000000000600052601260045260246000fd5b7f4e487b7100000000000000000000000000000000000000000000000000000000600052602260045260246000fd5b7f4e487b7100000000000000000000000000000000000000000000000000000000600052604160045260246000fd5b6000601f19601f8301169050919050565b60008160601b9050919050565b614753816144cb565b811461475e57600080fd5b50565b61476a8161451b565b811461477557600080fd5b50565b61478181614525565b811461478c57600080fd5b50565b61479881614535565b81146147a357600080fd5b5056fea26469706673582212204fc015fff9b839f7aac0909e522c7f5f88af1ecd227f52d5a70cb9d8638bb6a164736f6c63430008030033",
  "linkReferences": {},
  "deployedLinkReferences": {}
}